:020000040800F2
:10000000F82500209D010008A5010008CF37000851
:10001000A9010008AB010008AD01000800000000C4
:10002000000000000000000000000000AF01000818
:10003000B101000800000000B3010008FD840008C1
:10004000B7010008B7010008B7010008B7010008B0
:10005000B7010008B7010008B7010008B7010008A0
:10006000B7010008B7010008E3680008B7010008FD
:10007000B7010008B7010008B7010008B701000880
:10008000B7010008B7010008B7010008B701000870
:10009000B7010008B7010008B7010008E5680008CB
:1000A000B7010008B7010008B7010008057D000886
:1000B000417E0008917E0008137F0008AB6F0008A6
:1000C000896D0008AF6F0008AD6F0008B701000828
:1000D000B7010008B7010008298A0008D78B00087B
:1000E000B7010008B7010008B7010008B701000810
:1000F000B7010008B7010008A37D0008B701000898
:10010000B7010008B7010008A97F0008B70100087F
:10011000B7010008B7010008B7010008B7010008DF
:10012000B7010008B7010008B7010008B7010008CF
:10013000B7010008B7010008B7010008B7010008BF
:10014000B7010008B7010008B7010008B7010008AF
:10015000B7010008B70100081B870008B7010008B5
:10016000B7010008B7010008B7010008B70100088F
:10017000B7010008B7010008B7010008B70100087F
:10018000B7010008B7010008DFF80CD00BF0B8FB8E
:10019000004800471B360008F82500200648804725
:1001A00006480047FEE7FEE7FEE7FEE7FEE7FEE75C
:1001B000FEE7FEE7FEE7FEE7358C00088901000850
:1001C0002DE9F0417E4D044601262878F70280B9DA
:1001D00008F0B3F9A9683231884207D379482E7004
:1001E000078008F0AAF9A860BDE8F0812878002807
:1001F000FAD008F0A2F9A96821448842F4D300207B
:1002000028707048801C078008F097F9A8606E4835
:10021000017809B1491E01706E70E5E7F8B5684DC7
:100220008DF800008DF801108DF802208DF8033054
:10023000A8791DF8001044292FD04C292BD04D2926
:1002400027D04E292CD032240026032806D274B1A0
:100250002046FFF7B5FFA879032808D308F06DF909
:10026000A968001B884202D95748AE7106706878A9
:10027000012801D0002C0BD1A879032801D2401C01
:10028000A87150496E70891C2E704FF40060088070
:10029000F8BD6424D8E7C824D6E74FF4FA64D3E75E
:1002A0000024D1E72DE9F047DFF820A10446444DB2
:1002B0009AF80D004FF00109002610B185F8029060
:1002C00000E0AE704FF4007001F0F9FC404F18B33D
:1002D000404941484FF0020891F86430B0F90000FD
:1002E00003EB830282420FDA97F801C0BCF1000FE2
:1002F0000AD085F8049091F86510194401EB81014A
:10030000814201DA85F80480824203DA797809B9FA
:1003100085F8048000B92E71102001F0BBFC40B1BB
:100320009AF80A1011B99AF80B0008B1F87AA8B136
:10033000EE702879022814D0012817D0E878012817
:1003400017D0A878012817D0042C19D0022C1ED061
:10035000012C1ED0687901281ED022E085F8039078
:10036000E7E74E22442311464C200DE04D234C225A
:1003700008E04D234E2201E04D235322532102E099
:1003800044234D224D215320BDE8F04746E7442346
:1003900005E044234E22F5E7787810B14E234D2234
:1003A000ECE70948007818B1BDE8F047322007E7CC
:1003B00004492E70891C4FF400600880BDE8F08766
:1003C00000000020180C02403C010020C20C00205C
:1003D000900C0020A40800204A01002070B51546AA
:1003E000B0FBF5F60446A84203D33046FFF7F6FF0C
:1003F000014605FB1640ECA2105C0870481C70BD5D
:1004000070B50C46911E232900D30A22002500282E
:1004100004DA2D212170611C404200E02146FFF7E3
:10042000DDFF0570204670BD70B504462DED0C8BC8
:1004300000E0641C20782028FBD00928F9D09FED2B
:10044000E4ABC1B22D29B0EE4ABAF0EE6ABA02D0DE
:100450002B2802D002E09FEDE0BB641C9FEDE08BF7
:100460009FEDE1CB11E000BF0BF012F941EC190B4D
:1004700053EC1C2B51EC180B0BF02BF853EC192BF5
:100480000AF081FF41EC180B641C207830380928F1
:10049000EAD920782E2822D1B0EE4C9AF0EE6C9A50
:1004A000641CB0EE4CDAF0EE6CDA14E00BF0F0F80D
:1004B00053EC192B0BF07DF853EC182B0AF063FF6B
:1004C00041EC180B53EC1D2B51EC190B0BF001F800
:1004D00041EC190B641C207830380928E6D92078C3
:1004E000652801D045284CD114F8010F00262D288D
:1004F00002D02B2801D001E00126641C00256FF0FA
:100500002F0105E005EB850201EB42028518641C12
:1005100022781046303A092AF4D94FF49A7085426D
:100520000BD905469FEDB20B51EC1A0B53EC102B77
:100530000AF0CFFF41EC1A0B323D322DF2D29FED83
:10054000AE9B082D13D353EC192B51EC1A0B0AF068
:10055000C0FF41EC1A0B083DF3E700BF53EC1C2B26
:1005600051EC1A0B0AF0B5FF41EC1A0B6D1E002D71
:10057000F4D136B153EC1A2B51EC180B0BF019F8DF
:1005800005E053EC1A2B51EC180B0AF0A2FF53ECC8
:100590001B2B0AF09EFF0BF08CF8BDEC0C8B00EED1
:1005A000100A70BDF0B587B0002607460096019688
:1005B00093A5DFED940AB5EEC00A0296F1EE10FAAB
:1005C00002DD30EE200A01E030EE600ADFED8E0A37
:1005D00020EE200ABDEEC00A10EE104A002C01DD0C
:1005E000204600E060420A2203A9FFF709FF002C21
:1005F00001DB202000E02D208DF8000003A80AF088
:1006000094FE302401280AD003A80AF08EFE0228A6
:100610000CD003A80AF089FE03280CD00DE08DF859
:1006200001408DF802408DF8034006E08DF801404E
:100630008DF8024001E08DF8014003A968460AF0F8
:100640003BFE68460AF071FEC01EC4B222466946EF
:1006500038460AF055FE3E55294638460AF02CFE2B
:100660000DEB040138460AF027FE07B03846F0BD0E
:1006700070B505460C4608680AF057FE0246216828
:100680002868BDE870400AF058BE70B505460AF00B
:100690004CFE5E4E10F0FF0F0FD028460AF066FEAB
:1006A0000446142815DA202128460AF035FE0AF0FF
:1006B0005DFE06EB4401088770BD002406EB440094
:1006C0002146028F52A00BF0C9F9641C142CF5DBF3
:1006D00070BDBDE87040142150A00BF0BFB9F0B55B
:1006E00000242DED028B87B0054626460AF01DFE3C
:1006F00010F0FF0F9FED538A534F51D0052253A1A5
:1007000028460AF01AFE00284BD0042251A12846A0
:100710000AF013FE002845D02E4628460AF026FE91
:10072000451E0C2D3FDA202130460AF0F5FD06006B
:1007300008D0701C0646FFF777FE07EB0510012472
:1007400080ED040A202130460AF0E6FD060008D0BC
:10075000461C3046FFF768FE07EB0510641C80ED71
:10076000050A202130460AF0D7FD060008D0701C8B
:100770000646FFF759FE07EB0510641C80ED060ADC
:10078000202130460AF0C8FD38B1401CFFF74CFE6E
:1007900007EB0510641C80ED070A042C7ED05DE099
:1007A00064E0DFE0E6E00BE13031323334353637F8
:1007B00038394142434445464748494A4B4C4D4EDF
:1007C0004F505152535455565758595A0000000033
:1007D000000000000000F03F000000000000F0BF3B
:1007E00000000000000000000000000000002440A5
:1007F0009A647EC50E1B514A0000000084D79741C1
:100800002E0000006F12033A00007A44A408002072
:100810006175782025752025750D0A00496E766171
:100820006C6964204665617475726520696E6465E3
:10083000783A206D757374206265203C2025750D13
:100840000A00000000000000A40500207265736526
:10085000740000006C6F616400000000E9A000BF3C
:1008600008F03EF807B0BDEC028BF0BDF4A008F034
:1008700037F8002407EB041595ED040AB5EEC00A1D
:10088000F1EE10FA2DD0761C611CF8A00BF0E6F802
:1008900095ED040A03A8FFF785FE00E08CE0014611
:1008A000F4A00BF0DBF895ED050A03A8FFF77AFE3C
:1008B0000146F0A00BF0D2F895ED060A03A8FFF769
:1008C00071FE0146EBA00BF0C9F895ED070A03A8ED
:1008D000FFF768FE0146E8A00BF0C0F8641C0C2C82
:1008E000C8DB8DED028A8DED018A8DED008A002036
:1008F0001BE000BF07EB00119DED000AD1ED050ADA
:10090000401C30EE200A8DED000A9DED010AD1ED6C
:10091000060A30EE200A8DED010A9DED020AD1EDA6
:10092000070A30EE200A8DED020AB042E2DBD4A0C5
:1009300007F0D6FFD64E00246D4600BF05EB8400BD
:1009400090ED000AB0EEC00A10EE100AB04201DDD0
:10095000D0A000E0D0A007F0C3FF641C032CEDDBA7
:10096000C1A07DE707EB0011401C81ED048A0C2833
:10097000F8DB77E7202128460AF0CEFC0028F8D0E3
:10098000401C05460AF0D1FCC44FC6B2002400BF8B
:1009900057F8241031B1324628460AF0CEFC18B17F
:1009A000641CF5E7BEA05BE7204602F073FF57F832
:1009B0002410C1A00BF052F8B0A0FFF790FE51E751
:1009C0000C21C2A00BF04AF84CE710B5C9A007F003
:1009D00087FF012001F04FF9CDA007F081FF0A2029
:1009E00007F0BBFDBDE81040002007F054BE7CB509
:1009F00004460D4600790021062814D2DFE800F0F5
:100A000003060A0D111EA06801780CE0A06890F999
:100A1000001008E0A068018805E0A068B0F90010A7
:100A200001E0A0680168BEA00BF018F8002D04D00A
:100A3000D4E90312BBA00BF011F87CBDA06890EDC7
:100A4000000A6846FFF7AEFD0146B8A00BF006F8B5
:100A5000002DF2D094ED030A6846B8EEC00AFFF705
:100A6000A1FD0146B2A00AF0F9FF94ED040A684620
:100A7000B8EEC00AFFF796FD0146ADA00AF0EEFF02
:100A80007CBD2DE9F041ABA02DED048B84B00AF0C4
:100A9000E5FF7AA0FFF7F9FDB24D8049687901EBD7
:100AA000800050F8041CB0A00AF0D8FF95ED040AAD
:100AB000B5EEC00AF1EE10FA5BD0002405EB04108D
:100AC00090ED048AB5EEC08AF1EE10FA4DD01430E4
:100AD000611CD0EC038AA7A00AF0C0FFB5EEC08A63
:100AE000F1EE10FA02D2A5A00AF0B8FF6846B0EE07
:100AF000480AFFF757FD01468CA00AF0AFFFF5EE5C
:100B0000C08AF1EE10FA02D29CA00AF0A7FF684654
:100B1000B0EE680AFFF746FD014684A00AF09EFF8A
:100B2000B5EEC09AF1EE10FA02D294A00AF096FF48
:100B30006846B0EE490AFFF735FD01467BA00AF092
:100B40008DFFF5EEC09AF1EE10FA02D28BA00AF0FA
:100B500085FF6846B0EE690AFFF724FD014646A00E
:100B60000AF07CFF641C0C2CA8DB611C84A00AF03A
:100B700075FF01F0B1F8494F0024064617F14C0704
:100B800057F8241021B183A00AF068FF641CF7E72E
:100B900000244FF0010800BF57F8241041B108FAB3
:100BA00004F0304202D07FA00AF058FF641CF3E743
:100BB000804A002069462C18135C94F80241401CBE
:100BC00008280B55F7DB00220A547BA00AF046FFE9
:100BD0007C4E002404EB840006EB800556F82010C0
:100BE00079A00AF03BFF00212846FFF700FF1EA076
:100BF00007F076FE641C6A2CECD304B0BDEC048BC9
:100C0000BDE8F08157726F6E67206E756D62657218
:100C1000206F6620617267756D656E74732C206E2F
:100C200065656473206964782074687220726F6CE3
:100C30006C207069746368207961770D0A00000088
:100C4000437573746F6D206D697865723A200D0A73
:100C50004D6F746F720954687209526F6C6C095051
:100C600069746368095961770D0A00002325643AA5
:100C7000090000002573090025730D0A000000001B
:100C800053616E69747920636865636B3A0900008B
:100C90000AD7233C4E4709004F4B0900BCC400084B
:100CA000496E76616C6964206D697865722074792B
:100CB00070652E2E2E0D0A004C6F61646564202530
:100CC00073206D69782E2E2E0D0A00004D6F746F03
:100CD00072206E756D626572206D75737420626529
:100CE000206265747765656E203120616E64202511
:100CF000640D0A00526573657474696E6720746FC1
:100D00002064656661756C74732E2E2E0D0A0000CA
:100D10005265626F6F74696E672E2E2E00000000A0
:100D20002564000020256420256400002573000050
:100D30002025730043757272656E7420436F6E6672
:100D400069673A20436F70792065766572797468B7
:100D5000696E672062656C6F7720686572652E2EFC
:100D60002E0D0A00A40500206D6978657220257398
:100D70000D0A0000636D69782025640020000000E2
:100D8000636D697820256420302030203020300DBC
:100D90000A00000066656174757265202D25730D6B
:100DA0000A000000666561747572652025730D0A7E
:100DB0000000000060CE00086D61702025730D0AF0
:100DC0000000000018C60008736574202573203DDC
:100DD0002000000010B5FAA007F082FD01210020DC
:100DE00000F087FDF9A007F07BFD0A2007F0B5FBB6
:100DF000BDE81040002007F04EBC10B50446F7A037
:100E000007F06EFDFB4900200870FB490860FB49B4
:100E100008702046BDE81040DCE72DE9F0470646A3
:100E20000AF083FA054600F057FFDFF8D49307462F
:100E30004FF0010855B12A46F2A130460AF07DFA7A
:100E4000C8B1307800272D2823D025E0EFA007F087
:100E500047FD002445464E4656F8241041B105FA98
:100E600004F0384202D0EEA00AF0F8FD641CF3E76B
:100E7000AFF20C201DE0EBA007F032FD00244D4640
:100E800055F824100029F3D0E5A00AF0E7FD641C12
:100E9000F6E70127761C6D1E5FF0000459F8241058
:100EA00031B12A4630460AF048FA30B1641CF5E701
:100EB000E2A0BDE8F04707F013BD08FA04F01FB147
:100EC00000F005FFE4A002E000F074FDE5A007F0EB
:100ED00007FD59F82410AFF26020BDE8F0470AF092
:100EE000BDBD70B50024E2A007F0FAFCC44D683522
:100EF00004EB440005EB80014A6855F82010E2A09D
:100F00000AF0ACFD641C0E2CF2D370BD3EB5054654
:100F10000AF00BFA08281DD10024285D0AF07EF99A
:100F20002855641C082CF8D30024D948295D0AF000
:100F3000F3F928B12819295D401C0AF0EDF918B120
:100F4000D4A007F0CDFC3EBD641C082CEDD3284690
:100F500000F00EFCD7A007F0C3FCCD4BDB4A00200D
:100F6000694615181C5C95F80251401C08284C5520
:100F7000F7D300220A54AFF200300AF06FFD3EBDF5
:100F80002DE9F04180460AF0D0F99D4ECF4F050083
:100F9000A6F14C0610D002469AA140460AF0CDF9BF
:100FA00088B1002456F82410E9B12A4640460AF0D8
:100FB000C4F9F0B1641CF5E7787906EB800050F8CD
:100FC000041CC3A01AE0C7A007F08AFC5FF000046D
:100FD00056F8241021B192A00AF040FD641CF7E7F6
:100FE000AFF27C3001E0AFF24830BDE8F04107F0ED
:100FF00077BC601C787156F82410BFA0BDE8F041A2
:101000000AF02CBD70B504460AF08FF9AF4D10F010
:10101000FF0F0CD020460AF0A9F902280ED885F857
:10102000FC020021084600F064FC77A0EBE795F88D
:10103000FC12BDE87040B5A00AF010BD70BD2DE9EE
:10104000F04180462DED028B0AF06FF9B54F060096
:101050002CD0012E03D198F800002A2826D0B2A166
:1010600040460AF037F900287FD0401C04460AF0B9
:101070007DF908EE900A2046FFF7D6F9B0EE408AD7
:101080005FF0000404EB840607EB860557F82600A2
:101090000AF04BF9024657F8261040460AF04DF97F
:1010A00000B3641C6A2CEDD3A0A058E0A7A007F001
:1010B00017FC002404EB840007EB800557F8201090
:1010C000AFF2F8200AF0CAFC31462846FFF78FFC41
:1010D000AFF26C4007F004FC641C6A2CEAD3BDEC50
:1010E000028B8DE504EB840007EB800191ED030A90
:1010F000B8EEC00AB4EEC80AF1EE10FA2ED891ED9F
:10110000040AB8EEC00AB4EEC80AF1EE10FA25DB04
:101110000979052901D0B0EE688A062911D2DFE8E5
:1011200001F0030308080D0DAA6818EE101A1170DB
:1011300007E0AA6818EE101A118002E0A96881ED94
:10114000008A57F8201087A00AF088FCBDEC028BBB
:101150002846BDE8F041002149E406E084A0BDEC4A
:10116000028BBDE8F04107F0BBBB002404EB840513
:10117000414657F825000AF0ADF878B157F8251028
:1011800007EB8506AFF2BC300AF068FC0021304660
:10119000FFF72DFCAFF230500AF060FC641C6A2CA3
:1011A000E4D39CE72DE9F04107F0C7F94FF47A71D9
:1011B000B0FBF1F17848037878480278F0E000005D
:1011C000536176696E672E2E2E0000000D0A52655F
:1011D000626F6F74696E672E2E2E00000D0A4C65CB
:1011E0006176696E6720434C49206D6F64652E2ED1
:1011F0002E0D0A00740500200C0000204E02002075
:1012000008C500086C69737400000000456E6162D7
:101210006C65642066656174757265733A200000C0
:1012200025732000417661696C61626C652066659A
:101230006174757265733A2000000000496E766132
:101240006C69642066656174757265206E616D6598
:101250002E2E2E0D0A00000044697361626C6564D5
:1012600020000000456E61626C6564200000000093
:10127000417661696C61626C6520636F6D6D616E52
:1012800064733A0D0A00000025730925730D0A00E6
:1012900060CE00084D75737420626520616E792000
:1012A0006F72646572206F6620414554523132334B
:1012B000340D0A0043757272656E74206173736930
:1012C000676E6D656E743A2000000000A405002072
:1012D00043757272656E74206D697865723A202567
:1012E000730D0A00417661696C61626C65206D69FD
:1012F000786572733A2000004D69786572207365D5
:101300007420746F2025730D0A00000043757272FB
:10131000656E742070726F66696C653A2025640D85
:101320000A00000018C600083D0000004552523A6D
:1013300020556E6B6E6F776E207661726961626C9C
:1013400065206E616D650D0A0000000043757272C4
:10135000656E742073657474696E67733A200D0A44
:101360000000000025732073657420746F20000056
:101370004552523A2056616C7565206173736967F6
:101380006E6D656E74206F7574206F662072616E6D
:1013900067650D0A00000000EB01002046010020F7
:1013A00092A00AF05BFB00F087FC05469F48A0492D
:1013B0000068B0FBF1F19FA00AF050FB0024A54F9C
:1013C000012600BF57F8241051B106FA04F0284254
:1013D00003D0AFF2B4100AF041FB641CE4B2F1E7B1
:1013E000012000F057FCA8B19B4C9A482178183096
:1013F00050F8211099A00AF031FB2078022809D179
:10140000994890F8F10008B16F2100E06E2197A093
:101410000AF024FBAFF2B07007F062FA05F042FE6A
:10142000024693484FF440730188BDE8F04191A013
:101430000AF014BB9CA007F053BA2DE9FF5FDFF858
:10144000A49299F8000038B9012189F80010A6A0EB
:1014500007F046FA00F0C6F8DFF8C4A2DFF8C4B21D
:1014600007F007FA002872D007F010FA092807D011
:101470003F2805D0DAF80010554600294FD050E03B
:101480000027744D3E462C3505F1A808DAF80040D7
:101490000CE000BFDAF8002022B1A248296809F068
:1014A0004CFF10B907B92F462E460C354545F1D3F0
:1014B00097B151465D4608683A683368125C1B5C18
:1014C0009A4209D192B92E2810D220222A54401CC7
:1014D000086000210BF80010DAF80000554608B14A
:1014E000B74213D090A007F0FBF90AE02A54401C41
:1014F0000860E0E7386807F0F3F9092007F0DBF946
:101500000C37B742F6D900F06DF800245E46286823
:101510008442A5D2305D07F0CEF9641CF7E70428B9
:1015200010D00C2814D019B10A2815D00D2813D0CA
:101530007F283FD0302993D2202891D37E288FD87E
:10154000B9B345E004B07748BDE8F05F55E447E043
:1015500077A007F0C5F929E0AFF6F40007F0C0F96D
:10156000286800263B490BF800607448CDE9000B61
:101570005F460C230E222C31029601A809F054FE7E
:10158000040007D0206809F0D0FE3844A168401C50
:10159000884702E06AA007F0A3F93021614809F00A
:1015A0007FFE2E6099F80000002819D000F01AF88C
:1015B00056E70BE00029FBD0491E0020CAF80010B6
:1015C0000BF8010067A007F08BF949E72028EFD05E
:1015D0000BF80100491CCAF8001007F06CF93FE74E
:1015E000BDE8FF9F60A007F07BB9000053797374DA
:1015F000656D20557074696D653A202564207365AA
:10160000636F6E64732C20566F6C746167653A204B
:101610002564202A20302E3156202825645320624C
:10162000617474657279290D0A0000004805002074
:1016300040420F004350552025644D487A2C2064C9
:10164000657465637465642073656E736F72733A55
:101650002000000044C50008000200204143434828
:10166000573A202573000000A40500202E256300B2
:10167000480100204379636C652054696D653A2008
:1016800025642C20493243204572726F72733A20D0
:1016900025642C20636F6E6669672073697A653AEA
:1016A0002025640D0A0000004D756C7469726F741A
:1016B0006F72436F6E74726F6C20434C4920766575
:1016C0007273696F6E20322E32204F637420313472
:1016D0002032303133202F2032333A30383A31380B
:1016E000000000004E0200200D0A456E746572690C
:1016F0006E6720434C49204D6F64652C20747970CF
:10170000652027657869742720746F207265747569
:10171000726E2C206F72202768656C70270D0A008E
:101720000C000020740500200D1B5B4B0000000026
:101730001B5B324A1B5B313B3148000071060008DD
:101740004552523A20556E6B6E6F776E20636F6D07
:101750006D616E642C20747279202768656C702727
:1017600000000000082008000D0A232000000000EF
:101770002DE9F04105460446FD4EFE4F09E0FC48C8
:1017800009F0CAFD20B1611B801B384480F80211AA
:10179000641C21780029F2D1BDE8F081F648F74BAE
:1017A000002102781B789A4212D14288B2F5407F1C
:1017B0000ED10279BE2A0BD190F8FD22EF2A07D173
:1017C00000F5407210F8013B59409042FAD309B13C
:1017D00000207047012070472DE9F05FFFF7DEFF22
:1017E00010B90A2006F037FF4FF44072E249E14891
:1017F00009F03DFDDF4C94F8FC02022802D90020DC
:1018000084F8FC02C0B200EB800004EB401101F54B
:101810008E71A022DA4809F02AFDD94AD94E00205B
:1018200092F8201092F81F3040F6C41710FB00F514
:10183000193D4D4305F6C41545435D4395FBF7F54A
:1018400026F81050401CC0B20628EFD392F82110A1
:1018500092F822809346B4F8D220B4F8D0C0DFF8D2
:10186000289300204FF47A7EC8F1640601EB810AC8
:10187000A2EB0C0500EB8002C1EB42030122002B1E
:1018800003DDC1F16402D2B201E000DA0A4613FBC3
:1018900003F708FB07F412FB02F294FBF2F2324466
:1018A00002FB03F24FF00A0392FBF3F202EB4A024F
:1018B00012B205FB02F292FBFEF2624429F81020FC
:1018C00000F10100C0B20B28D4D3BBF86C10BBF8F8
:1018D0006E205846914203D3B0F87020914200D94F
:1018E0001146A0F86C109BF80000BDE8F05F02F014
:1018F0009EBE2DE9F0478046A0489E4E4FF44077AB
:101900000078307000247780BE203071EF2086F898
:10191000FD02254686F8FE4259B196F8FC02A02247
:1019200000EB800006EB401000F58E70944909F042
:101930009EFC9048924902E010F8012B54408842E6
:10194000FAD386F8FE42DFF830A2B94607F060FE0F
:10195000F32007F0E7FF0221582007F08AFE08284D
:1019600010D1002457463159E01907F006FF082826
:1019700005D007F059FE6D1C032DE7DB02E0241DA6
:101980004C45F0D307F050FE032D02D0FFF706FFC1
:1019900010B90A2006F05FFEFFF71EFFB8F1000F36
:1019A00006D0BDE8F047012214210F2002F018BA3A
:1019B000BDE8F0876F498A6802438A6070476D49C5
:1019C0000020886070472DE9F05F69484FF440714E
:1019D0000C3070C8674809F063FCA021684809F022
:1019E0005FFC6648DFF88CB101788BF8001059462F
:1019F00003204871002088600220FFF7DBFF0120F0
:101A0000FFF7D8FF5946002081F8FC024FF416700A
:101A1000A1F8E600FA20A1F8E80008461427A0F88B
:101A2000E4700020A1F8F200A1F8F400A1F8F6009B
:101A300001F180005A46C0F85A40C0F85E5080F864
:101A40006260002081F8E300202081F8F0004F4818
:101A5000C1F8EC006E2081F8FE002B2081F8FF0019
:101A6000212081F80001002081F8010181F80A019C
:101A7000084640F2DC55A0F80C5140F24C41A0F869
:101A80000E11594640F26C70A1F81001002081F847
:101A9000120140F2E240A1F8D00040F23A70A1F801
:101AA000D2004FF47A70A1F8D4004FF4C870A1F8B6
:101AB000D6003220A1F8D800002182F813114FF48B
:101AC000E131C2F81411C2F8181169002C4C91814F
:101AD000002121704FF0280884F801804FF01E0982
:101AE00084F80B901721617584F8028084F80C90BB
:101AF000A1755521E1702D2161730022E27540220C
:101B000022711922A273182222760B2262710022FE
:101B1000E2736276A77108222274A1760E21E17128
:101B200067745021E1765A2121720A26A6744FF07B
:101B3000640A84F81CA084F809800022A27222752D
:101B4000A277E177412184F8201084F8232084F8DB
:101B5000242084F8252084F8210084F8222022857E
:101B6000628540F27120E08484F82C7010E000005F
:101B700060CE0008A405002000000E081000002020
:101B8000A4080020A00C0020AC0C002003141400BA
:101B900084F82D60152084F82E009FED510A84ED05
:101BA0000C0A9FED500A50A084ED0D0AFFF7E0FDEE
:101BB00004F164044FF0010004F8047C04F8037C91
:101BC00004F8028C04F8010C26704FF0C80C84F85D
:101BD00001C04FF49661618040F2D931A180A071BB
:101BE00025814FF47F7161814FF4FA62A281E18116
:101BF00025826282A182E5822283A0764FF0FF03D4
:101C0000E37620776077A677E67784F82000618412
:101C1000A284E58421856285A585A4F82EC084F878
:101C2000307084F8319084F83200A4F834A04FF476
:101C30009670E0869FED2F0AA4F838804FF00000E0
:101C40004FEA0B0505EB001100F1010081ED040ADC
:101C50000C28F7DB5FF0000404EB840005EB401078
:101C600000F58E70A022244909F001FB641C032CAE
:101C7000F2DBBDE8F09F10B50446FFF78FFD641E50
:101C8000204206D1FFF79FFE0021BDE81040084624
:101C90002FE610BD19494968014201D00120704763
:101CA0000020704715494A6802434A60704713494B
:101CB0004A6882434A60704710484068704710493C
:101CC0008968014201D001207047002070470C490B
:101CD0008A6882438A6070470948806870470000BC
:101CE0009A99193FF6287C3F41455452313233349A
:101CF0000000000000000000A408002010000020E8
:101D0000A405002070B50446FE4D09E006F048FF2A
:101D100095F81301012802D1042006F01EFC641C72
:101D200020780028F2D100BF06F04CFF0028FBD03D
:101D3000BDE870401E2006F010BC44F2506188429D
:101D400001DDA0EB4100F049884202DA48F6A041EB
:101D50000844704710B5546891ED001A041B00EE5A
:101D6000104AEA4CB8EEC00AC0EE010AC2ED040AFD
:101D700094F8944000EE104AB8EE400A9FEDE41A41
:101D8000F7EE001A20EE010A81EE801A91ED000AAA
:101D900071EE001A80EE211A92ED020A70EEC00A6E
:101DA00001EE200A82ED040A506082ED020AD3EDB2
:101DB000020A20EE800ABDEEC00A10EE100A10BD25
:101DC00000EE900A93ED011A92ED000AF8EEE00A97
:101DD00061EE200A91ED001A00EE810A82ED000A00
:101DE000D3ED030AB1EE601AB4EEC10AF1EE10FAB7
:101DF00002D2B0EE410A06E0B4EEE00AF1EE10FACB
:101E000001DDB0EE600A82ED000ABDEEC00A10EE00
:101E1000100A704710B5BF4CD4E90D01401AFFF706
:101E20008CFF0028D4E90D01A0EB010002DDFFF7D3
:101E300084FF02E0FFF781FF404241F294118842A3
:101E40002CDAD4E90D01401A00EE100AB8EEC00AEF
:101E5000DFEDB10A20EE200A0AF0BEF8D4ED0F0A39
:101E6000AE49F8EE600A20EE200ABDEEC00A10EE80
:101E7000100A00B22082884202DB4942884200DD1B
:101E80000846616B084448F6A0416064884200DD62
:101E9000401A002800DA0844606410BD606BFBE75C
:101EA0002DE9F04F81462DED028B83B0FFF7B2FF95
:101EB000984842F22831406C081A00EE100AB8EE39
:101EC000C00ADFED950A20EE208AB0EE480A09F03C
:101ED00011FF8DED010AB0EE480A0AF07DF88D4E33
:101EE0000024DFF83CB2DFF83CA28DED000A30366A
:101EF00088488D491A3030F9140000EE100A6846FF
:101F000000EB8400F8EEC00A00EE109A90ED001A83
:101F1000B8EEC00A51EE000ABDEEE00A10EE100A5B
:101F200000B226F81400884202DB4942884200DDF4
:101F300008467B4926F81400603900F059FE04EB8E
:101F40008408774B734907460BEB880536F9140074
:101F5000603B2A462831FFF733FF714B6D49074438
:101F600036F91400603B2A462831FFF7F3FE384467
:101F700000B26A492AF81400884203DB49428842C9
:101F800000DC01462AF81410654829682838641CCA
:101F900040F82810022CABDB03B0BDEC028BBDE88F
:101FA000F08F2DE9F05F5B4E00245036DFF874A10E
:101FB000A6F1200BA6F13609594956F824008039BC
:101FC00000F016FE39F814105D46401A544900B26C
:101FD0002BF81400703900F00BFE074635F9140099
:101FE00056F8241004EB840808444D49283901EBC5
:101FF0008805A1F1480347492A462831FFF7E0FE4A
:102000003844474B43492AF81400574656F82400F1
:10201000703B2A462831FFF79DFE4449884202DB87
:102020004942884200DD084639F9141031316229ED
:1020300000D8002037F81410084400B2374927F8B8
:102040001400884202DB4942884200DD084627F836
:10205000140033482968641C40F82810022CABDBBC
:10206000BDE8F09F09681B68C91A00EE101A2949DB
:10207000B8EEC00AD1ED0B0A503120EE200ABDEEB9
:10208000C00A81ED010A00681268801A0860704772
:1020900070B52DED028B126800680968101A00EE09
:1020A000100A1868DDE90654F8EEC08A401A00EEFE
:1020B000100A1848B8EEC00AD0ED0B0A20EE208AAC
:1020C00028EEA80A08EE080A0AF042F8DFED180A1E
:1020D00020EE200AF0EE480ABCEEC00A85ED000AA8
:1020E000B1EE680A09F0E2FC9FED121ADFED120A68
:1020F00040EE010ABDEEE00A10EE100A2060002852
:1021000020DA1BE0A4050020B0B9FFFFA4080020DE
:10211000DB0FC94018000020D302373948F4FFFF15
:10212000D40900209801002018FCFFFF30F8FFFFC1
:102130002C7D8E3FA00CB34500A00C4648F6A04174
:1021400008442060BDEC028B70BDF0B5F949F84839
:10215000D1E90032447800F1480CCCB3D0ED0A0A42
:10216000B7EE001ADCF8041081EE200A511A00EED6
:10217000901A90ED0B1A00F11A06F8EEE00A60EEE4
:10218000810A60EE800AFDEEE00A10EE901A0CB2B1
:10219000DCF80010591A00EE901AF8EEE00A20EE72
:1021A000800ABDEEC00A10EE101A0DB200F1240133
:1021B000B1F902703C4404EBD47464107480B1F93A
:1021C00000703D4405EBD5756D1035804C800D8059
:1021D00001214170CCE90032F0BD00EE100A10B5CB
:1021E000B8EEC00A002801DCB1EE400A9FEDD21A19
:1021F000C0EE010A9FEDD10A20EE800A09F07AFDB7
:10220000CB4880ED0B0A10BD10B5CD4CE07A00280C
:1022100011D0CC48007805280DD3C649CA4A0868B1
:10222000106049685160FFF7D8FFC848C04900886E
:1022300088820120207310BD2DE9F043BC49C448B9
:10224000BF4B8E7A012502790024062E29D004DCAA
:10225000022E09D0032E04D116E0122E33D0302ED8
:102260003DD00020BDE8F083B24A466856608668DB
:10227000166000694FF47A7290FBF2F0B54A108054
:10228000C87AD8724D7350E04079C00701D0032A54
:1022900003D00020C87210B147E00120FAE7DC72D9
:1022A00043E0C27AD20702D0827A032A03D0002206
:1022B000CA7212B102E00122FAE7DC72A14A90F878
:1022C0002F00107031E0A44B42691A80806942F2FD
:1022D000107290FBF2F0A14A10808D7325E0A04BA4
:1022E000102A1A7001D910221A7000229D4D9E4E9C
:1022F0009E4FDFF87C9293F800C014E002EB42039B
:1023000000EB830393F8088005F8028093F80980B6
:1023100006F8028093F80B8007F8028093F80C808F
:1023200009F80280521C6245E8DB487B8A7B10403A
:1023300098D04C738C73012094E72DE9F0477C49C9
:102340004FF000080A464E7AD579137A2C18B2F865
:1023500016C04FF00109E4B24246092E56D2DFE81A
:1023600006F0080510161D2434444A00622803D0E4
:102370004A72B52802D049E0022034E081F8099081
:1023800044E003224A720873C87108723EE00422D6
:102390004A72CC71E2180A72887237E005224A72DA
:1023A000CC71E2180A72C88230E006254D720CEB3F
:1023B0000020CC71234480B20B72C882B0F5007F3C
:1023C00001D9CA824A720A8320E0CC71E2180A72EB
:1023D0000A8BC82A01D25E4B9854521C90B20883D3
:1023E000604513D10720487210E008234B728542E4
:1023F0000CD04A720AE04A72834207D15D4880F8E5
:102400000090FFF719FF08B14FF001084046BDE802
:10241000F08770B5034600200246054611E02E2CD9
:1024200004D1521C00290FD054181D559C5C00EBA0
:1024300080004000A4F13006092E01D83038204435
:10244000521C9C5C002CEAD170BD2DE9F0410026A5
:10245000804637463546044608F0DCFE006800E05A
:10246000641C2178415C2029FAD009E01EB106EBFA
:10247000860149060E0E18F8011B303E3144CEB2DB
:10248000A4EB08010229F1DC09E01FB107EB870189
:1024900049060F0E18F8011B303F3944CFB24445AE
:1024A000F3D821782E290ED1641C002105EB85027A
:1024B00055002278835C202B02D1303D1544641CEA
:1024C000491C0429F2DB2C480621474305EBC500D3
:1024D00000EB051007EB8000B0FBF1F027494E43FD
:1024E00000EBC610BDE8F0812DE9F0470025104E45
:1024F00004462F464FF00109242815D014483146D0
:10250000E038C9782C2C3BD02A2C39D032460D2CFF
:1025100052796FD00A2C6DD00F2902D24454491C35
:10252000F170002A67D0B5E0B770F7703771B1E08D
:1025300018000020BC0100208096184B35FA8E3C14
:10254000900C002047010020C4010020460200201A
:10255000240A0020FA010020FC010020E8010020EC
:10256000FE010020D60C0020E60C0020F60C002016
:10257000060D0020EA01002040420F002D3101002D
:102580004754B178B8463A4629B1B279012A21D0E8
:10259000022A5DD074E0B2710178472970D1417888
:1025A00050296DD18178472902D0522909D067E09E
:1025B000C178472964D10079412861D186F8069015
:1025C0005EE0C1784D295BD10079432858D10220C3
:1025D000B07155E0FE4F02290ED0032910D0042916
:1025E00015D0052917D006291CD0072923D0092981
:1025F00028D045E05BE04AE0F648FFF726FF04E01C
:10260000007853283CD138684042386038E0F148BF
:10261000FFF71BFF04E00078572831D1786840426B
:1026200078602DE00078302801D9012000E00020FA
:10263000E949C87224E00021E648FFF7EAFEE749CD
:1026400008701DE00021E348FFF7E3FEE44916E0CF
:10265000072902D008290DD012E00121DD48FFF73B
:10266000D8FE41F2184148434FF47A71B0FBF1F0C3
:10267000DC4904E00121D748FFF7CBFEDA490880A6
:10268000B078401CB07086F803802A2C0CD03079CA
:1026900060403071B07910B1D44A82F800900DB129
:1026A000012800D00020B2E686F80590F2E772B16A
:1026B0008046007800F0CFFA040198F8010000F09D
:1026C000CAFA20443179C0B2884200D1012577711D
:1026D000E0E72DE9FF5FC649C0B291F8131119B1C7
:1026E000012904D002297CD1FFF7FEFE01E0FFF7AB
:1026F00024FE002875D0BF484FF0000B0178012957
:1027000010D001210170B448C17A002969D0B349C1
:102710000978052965D38246407830B19AF80C10C3
:1027200031B108E080F800B0EDE78AF80CB002E0C3
:1027300008B1FFF769FDB04905239E460878401CA3
:10274000B0FBF3F203FB12020A70AC49002091F9CE
:102750000090DFF87CC2A849A74C68315CF82030B3
:1027600041F82030A649783493FBF1F144F8201069
:10277000A44C00EB80054C4303EBC41342F21074ED
:1027800093FBF4F41FFA84F89B4C403424F8108037
:10279000904CB83404EB8505974C55F822606034B2
:1027A00054F8207045F82230BE1B334444F82030E2
:1027B00093FBFEF3934C6442614303EBC1138E49D8
:1027C0007031B9F1010F41F8203006D1A8F10208AB
:1027D000B8F5797F01D84CF82030401C0228B8DBCE
:1027E00000E081E005F0A9FE834D296A401A00EE61
:1027F000100AB8EE400ADFED840A80EE201A85ED5B
:102800000A1A05F09AFE2862A86AB0F17E5F02DA21
:1028100000EE100A01E0B7EE000A85ED0A0A03A9EE
:1028200002A86B4C794BCDE900011A1F211D2046EF
:10283000FFF72EFC02986426B0FBF6F07449754A47
:1028400057460880039890FBF6F010809AF80C0029
:1028500018B9A1F800B0A2F800B0FFF776FC387AFA
:1028600010B9F87900283FD06349343101F10800EC
:1028700000F11C07CDE900013B1D3A46211D5448DB
:10288000FFF706FC231D524A391D3846FFF7EAFBC5
:102890005A4C94F90000012828D0022824D15E4F18
:1028A0000121B7F99A0000F0B0F9FFF7F9FA97F8AB
:1028B00096005A4A18B1686C90FBF6F01080B7F891
:1028C0009200E96B88420BD2D5E90D01401AFFF75F
:1028D00034FA002800DC404242F21071884203DDE5
:1028E00001202070A88A1080BDE8FF9FFFF759FBE8
:1028F000FAE74948417900EE101AF8EE400A9FEDD8
:10290000480A344980EE801A103181ED001AC27BEA
:1029100000EE902AF8EE600A80EE801A81ED011A2E
:10292000DFED400AC1ED030A817901EE101A294951
:10293000F8EE411AB2EE041A203181EE812A81EDBF
:10294000002A027C01EE902AF8EE611A81EE802ABC
:1029500081ED012A827E01EE902AB8EE612ADFED38
:102960002A1AC2EE212AC1ED022AC1ED030AC17959
:1029700002EE101A1749B8EE422A3031C2EE012A8F
:10298000C1ED002A427C01EE102AB8EE411A81EE18
:10299000002A81ED012AC07E00EE100AB8EE400A3E
:1029A00080EE211A81ED021AC1ED030A70472DE96C
:1029B000F04706460025FFF79CFF00221A493046E3
:1029C00006F092F80A4F97F81301012831D02DE054
:1029D000BC01002044090020900C00204701002089
:1029E000FA010020FC010020E8010020EA0100209B
:1029F000A4050020E6010020180000203D01002071
:102A000080969800D3CEFEFF00007A44C8010020D3
:102A1000F6010020F8010020A40800204802002050
:102A20000000C8420000FA44D3260008022817D04C
:102A300030B3DFF8488200244FF4964A08F11409B5
:102A400058F8240006F0ABF856450BD0B6F5164FF3
:102A50000BD0B6F5614F1DD0B6F5E13F0AD11DE0B0
:102A60000425E6E759F8250002E009EB85004068F7
:102A7000FFF748F90A2005F070FD641C052CDFDB28
:102A8000304606F08CF897F8130101280AD0022886
:102A900015D01AE009EB85008068E9E709EB8500AD
:102AA000C068E5E7754D00243435285D06F078F8F8
:102AB000042005F052FD641C8C2CF6D305E070A0B8
:102AC000FFF720F97BA0FFF71DF94FF47A7005F0AE
:102AD00044FD7D480078002804D0BDE8F047102070
:102AE000FFF7E0B893E400210180704710B5B0F91A
:102AF00000300280D31A00EE903AF8EEE00A60EE61
:102B0000800A60EE800AFDEEE00A10EE903A00EED8
:102B1000902A1BB2F8EEE00A20EE800ABDEEC00A51
:102B200010EE104A0FFA84FC01EB0C00184410BDA3
:102B30002DE9F05FDFF8A0A10024644FDFF8908159
:102B4000DFF8909126460AF1280B00BF27F81460A1
:102B500028F8146004EB840529F814600AEB85005A
:102B600000F082F80BEB850000F07EF85A485030F8
:102B700000EB850000F078F8641C022CE6DBBDE871
:102B8000F09F7CB5554C026822600968616000685E
:102B9000FFF723FBA4F1240101F10800504ECDE919
:102BA0000001231D2246311D3046FFF771FAA4F1C2
:102BB0005805331D686B68643246211D2046FFF7B7
:102BC00051FA686BA8634748B0F8980068827CBDEA
:102BD00030B507E0147810F8015B2C4414701D78B0
:102BE0002C441C700C00A1F10101C9B2F2D130BD1E
:102BF00000EE100AD1ED000AB8EEC00A20EE800AFD
:102C0000BDEEC00A10EE100A7047344A583AD36B32
:102C100021B1B0EB530F0BD3580809E0984200D311
:102C20001846304900B2B1F89810814200DB0846DE
:102C3000B2F9121000B288420CDD92ED0A0A5FED83
:102C4000880A20EE200ABDEEC00A10EE100A0844E1
:102C500000B2508270473038C0B2092801D9C01F75
:102C6000C0B200F00F0070479FED1F0A002180EDF9
:102C7000000A416080ED020A7047000078CE00082B
:102C800024504D544B3331342C302C312C302C31DA
:102C90002C302C302C302C302C302C302C302C3054
:102CA0002C302C302C302C302C302C302C302A3244
:102CB000380D0A0024504D544B3232302C32303013
:102CC0002A32430D0A000000EA0100207C010020A6
:102CD0009C01002098010020840900207000002041
:102CE000BC010020A408002000000000FE4810B530
:102CF000008800EE100AB8EE400ADFEDFC0AFC493D
:102D000020EE200ABDEEC00A10EE102A00EE100AD6
:102D10004A80F8EE400A9FEDF71A81EE200ADFEDB7
:102D2000F60A042080EE201A81ED141AFEF7B2FF95
:102D3000002803D0BDE8104002F05EBC10BD70B5A5
:102D400005462DED088B0C4691ED010AD0EC03AA47
:102D5000B1EE400A08F0CEFFB0EE409A94ED010AC1
:102D6000B1EE400A09F038F9F0EE409A94ED000A0D
:102D700008F0C0FFF0EE408A94ED000A09F02CF94B
:102D8000B0EE408A94ED020A08F0B4FFB0EE40AA1B
:102D900094ED020A09F020F9F0EE402A29EE8A2A81
:102DA00022EE894A2AEE283A6AEE093A69EEA21A18
:102DB000F0EE440A2AEE833A52EE080A62EEA84A7E
:102DC000B0EE631A14EE082A01EE881A43EE881A50
:102DD0000BEE203A6AEEA40AF1EE482A28EEA95A30
:102DE00028EE890A4BEE010A0BEEA13A4BEE820A5D
:102DF00085ED003AC5ED010A6AEEA20A4BEE050A1E
:102E00004BEE800AC5ED020ABDEC088B70BDF0B533
:102E100000242DED048B83B005F075FBB44EEC4619
:102E200006F16A05B16AAA1D411A00EE101AB349EB
:102E3000B7EE008AB8EE400AD1ED040AB049B0629C
:102E400020EE200A002091F82C10971D35F9103043
:102E500000EE903A0CEB8003F8EEE00A60EE800A98
:102E6000C3ED000A19B300EE901AA64B32F910E038
:102E7000B8EE601A03EB8003C8EE010A93ED001A66
:102E800078EE600A60EE810A01EE101AB8EE411A7F
:102E9000C8EE011A01EE10EAB8EEC11A41EE210A9D
:102EA000C3ED000AFDEEE00A10EE903A01E032F8C0
:102EB000103027F810309BB213FB0344401C03284A
:102EC000C4D364204443884861460088404394FB4F
:102ED000F0F48C480C30FFF732FF0420FEF7DAFEE6
:102EE00020B1884869460C38FFF729FFB7F9000080
:102EF0003946002800DC4042B6F90220824B90425D
:102F00000CDAB1F90200002800DC4042904205DAF8
:102F1000B1F90400002801DD012000E00020794F14
:102F2000493C7A4D0C3758733C2C22D2B5F8E62038
:102F3000002000BF00EE102A31F91030B8EE400A30
:102F400030EE080A88EE001A00EE103A07EB800314
:102F5000401CF8EEC00A00EE102AD3ED001A032838
:102F6000B8EE400A41EE800A21EE200A83ED000A05
:102F7000E0D30420FEF78EFE624C0C3C18B35C4B91
:102F80000020B5F8E8107C3300EE101A33F9102059
:102F9000B8EE400A30EE080A88EE001A00EE102A59
:102FA00004EB8002401CF8EEC00A00EE101AD2EDCD
:102FB000001A0328B8EE400A41EE800A21EE200AEA
:102FC00082ED000AE0D397ED020AD7ED000A97EDF3
:102FD000011A20EE000A60EEA00A3D4661EE019A59
:102FE00070EE808AB0EE680A09F0B2F888EE009AB6
:102FF00038EEA90A09F0ACF8C8EE000AC6ED150AC9
:10300000D5ED020A95ED000A00F0EEFA384F69EEB0
:10301000280A2037388095ED010A00F0E5FA78801B
:103020000420FEF737FE00283DD0D4ED001A95EDC0
:10303000000A94ED022A95ED021A61EE802AD6ED7F
:10304000150AD4ED013A22EE000A42EE012A95ED6E
:10305000013A01EEC10A62EEA02A63EEA00A60EE18
:10306000A80A42EEC30A00F0BFFA00EE100AD6ED3D
:10307000070A0A22B8EEC00A254930EE200ABDEE42
:10308000C00A10EE100A00B290FBF2F000B2088005
:10309000B42802DDA0F5B47004E010F1B40F02DA38
:1030A00000F5B470088003B0BDEC048BF0BD2DE9D1
:1030B000FF5F0120FEF7EEFD18B102F039F9FFF7CE
:1030C000A6FE02F084FA0A4D00206F4615F16A054B
:1030D00035F8101027F81010401C0328F8D305F01D
:1030E00012FA034E706215E0060200207593D83E76
:1030F000980000200AE81C4100401C464C0E0020AD
:10310000A4080020F80A0020900C0020A40500204C
:103110004602002000F08FFE05F0F5F9716A40F2DA
:103120008A24401AA04204D9FE490888401C08801D
:1031300005E005F0E8F9716A401AA042F9D302F0FF
:1031400046FADFF8E4A30024B946A8460DF1080BBF
:103150000327AAF1060500BF38F8141039F8140047
:10316000084400B22BF814003AF91420024492FBF0
:10317000F7F200EBD07025F8142040102AF8140064
:103180000120FEF787FD20B9E7490020123121F820
:103190001400641C032CDFD34020FEF790FDE34AAB
:1031A00010B3E1495239087830B9D2F8EC00020C7A
:1031B0000A70020A4A708870DB4C002014F1060481
:1031C0000A5C35F9106034F81070531E17FB036366
:1031D0005B1C93FBF2F225F8102024F81020401C11
:1031E0000328EDD3BDE8FF9F50790128FAD1B5F946
:1031F0000400B6F90A1000EB410090FBF7F0A8803C
:103200007081EFE7002801DD024600E042428A4279
:1032100001DA00207047002802DDA0EB010001E088
:10322000F8DA084400B270472DE9F0412DED048B27
:1032300005F069F9DFEDBE8ABB4D5E3D296B441A8E
:1032400046F2A8118C4204D20020BDEC048BBDE8EC
:10325000F08100EE104AB8EE400A9FEDB69AB649EA
:10326000286380EE098A0888B44E40B196F82E2073
:103270006B69521E93FBF2F2401EEA62088096F8D8
:103280002E00E96A401E484300EE100AF8EEC00A1C
:1032900095ED050AB8EEC01A80EE810A08F0E4FD4B
:1032A000286946F6B321084400EE900AF8EEE00AD9
:1032B00020EE200ADFEDA20A20EE200ABDEEC00AB1
:1032C00010EE100AA861A96C01EB410101EB40006E
:1032D000052190FBF1F0A864E96C081A994988422D
:1032E00002DB4942884200DD084600B20A21FFF7AE
:1032F00089FF317911FB00F16FF09503B3EBE11F0A
:1033000001DD194606E09622B2EBE11F01DA9621B3
:1033100000E0C91109B2A980B27B12FB00F028229B
:1033200090FBF2F0EA88104400B2874AE8809042AD
:1033300002DB5242904200DD1046E8804FF4FA7200
:1033400090FBF2F00844A8807748804F1830DFF8EF
:1033500000C2B0F90010D7ED000A00EE101AB0F963
:10336000021097ED011AB8EEC00AB0F9040020EE81
:10337000200A00EE901A9CF80110F8EEE00A00EE28
:10338000810A00EE900A97ED021AF8EEE00A00EECC
:10339000810AD5ED150A20EE200ABDEEC00A10EE16
:1033A000100A00B2DFED6B0A9FED6B1A95ED0D0A66
:1033B00089B101EE900AF8EEE11A70EE611AF5EEAD
:1033C000C01AF1EE10FA01EE900AF8EEE11A0FDDE4
:1033D00070EE611A0EE0DFED611A60EE211A00EE68
:1033E000100AB8EEC00A9FED5E2A40EE021A0EE007
:1033F00071EEC01A5B4A11EE901A914209DA60EE42
:10340000201A00EE100AB8EEC00A40EE011AC5ED0F
:103410000D1A95ED0D0ABDEEC00A10EE101A401AF5
:1034200000B2514900EE100AC880B8EEC00AD5EDCE
:103430000E1A96F82D1020EE210ABDEEC00A10EEED
:10344000100A00B2FFF7DEFE01EE900A95ED0F0ABA
:103450004648F8EEE11A01EE880A10EE101A85EDE2
:103460000F0A814202D99FED420A06E010EE101ABF
:103470004048814201DD9FED400A85ED0F0A97ED3E
:10348000020AD5ED151A20EE210ADFED3C1A20EED6
:10349000210AB5EEC00AF1EE10FA02D2B0EE680AC7
:1034A00006E010EE101A3648814201DDB0EE610AE6
:1034B000BDEEC00A10EE100A2870A96C286C2964B1
:1034C000081A00EE100A1F49B8EEC00A643960EE0F
:1034D000091A00EE104AB8EE400A81EE802ABDEECD
:1034E000C20A10EE100A00B2884202DB494288424A
:1034F00000DD08460A21FFF785FE95ED0F0A01EE73
:10350000900A052120EE200AF8EEE11A01EE810A68
:1035100085ED0F0ABDEEC00A10EE100A00B2FFF7EB
:1035200071FE2FE0E4010020F6000020A405002039
:10353000000000000024744944020020A408002078
:103540008E2BEA41D4FEFFFFD08AFFFF040B002040
:10355000900C0020C9767E3FA69BC43BD7A3703F4A
:103560008FC2753D00007041EC0100200000FAC3DD
:103570000000FAC30000FA430000FA430000C8420A
:103580000000C84200EE100ADFED1E1A2881B8EED6
:10359000C00A60EE211A95ED110A01EE880A60EE6C
:1035A000200A95ED060AB8EEC00A40EE010AC5ED04
:1035B000110A317E11FB00F1142091FBF0F09842CA
:1035C00006DB40F6CB32914201DD962300E0034654
:1035D000A888C01AA8809CF8010018B9C5ED0F8A08
:1035E000C5ED118A012030E610B508F05FFADFED75
:1035F000060A20EE200ABDEEC00A10EE100A00B244
:1036000010BD00009A99B93F4C3D0F4410B50446D7
:10361000C0B205F050F9204610BD86B004F0A8FFF6
:103620000020FEF728FBFEF7D7F86C4D002495F834
:10363000010118B101281CD009281AD08DF81040BA
:1036400085F8014104A802F0F3FF0720FEF72AFBEA
:1036500000F0DEF8687901270E280DD008280BD07D
:103660008DF805404FF480763046FEF728FB50B9C0
:1036700005E08DF81000E5E78DF80570F2E7082009
:10368000FEF71DFB00B101208DF802000120FEF7BE
:1036900016FB8DF801000820FEF711FB80F00100F9
:1036A0008DF800004E48007800B101208DF803002D
:1036B0004C48017FC1F3C0018DF80410B5F8D61055
:1036C000ADF80810B5F8D810ADF80A100088ADF8BC
:1036D0000C0095F80101012812D0092813D08DF8AB
:1036E0000640684604F00CFD404C3F48206008202E
:1036F000FEF7E5FA58B102F0A2FD3D4820600EE069
:103700008DF80670EDE707208DF80600E9E73046F2
:10371000FEF7D5FA18B1D5F81401FFF748F90120E2
:10372000FEF7CDFA30B14FF48060FEF7C8FA08B169
:1037300002F01DF82F4E4FF00209A6F81890B84677
:103740007783DFF8B4A00024F7140AF1020B706944
:1037500080F002007061706980F0010070611920D2
:1037600004F0FBFEAAF80070192004F0F6FEABF896
:103770000070641CE4B20A2CE9D34446A6F81A800F
:10378000A6F81A9001F000FCFFF7B0FA0220FEF74D
:1037900096FA08B101F0ACFCD5F8180102F0DBF89C
:1037A00004F0B1FE154908606879052803D1144971
:1037B0004FF4C870088013494FF47A70088012499A
:1037C000C82008801148447300F039FFFCE7034823
:1037D000B0F9D40000F0C5F8FEE70000A405002011
:1037E000290100200C090020C941000874010020B3
:1037F0006962000800100240180C024070010020AD
:10380000020200200402002044020020900C00204C
:1038100070B5FE4DFE4EFF4C687906EBC000407857
:1038200060702020FEF74BFA08B1012060706879C3
:10383000F949122809D016F8302006EBC000227092
:103840004368002B18D0002021E0002005EB001277
:1038500092ED040AB5EEC00AF1EE10FA0CD0143263
:1038600001EB0013D2EC030A401C83EC040A22781B
:10387000521C22700C28E9DB70BD00BF03EB001462
:1038800001EB001594EC040A401C85EC040A9042FC
:10389000F4DB70BD30B5401C00219FEDE00ADB4A2F
:1038A00002EB0113491C83ED040A0C29F8DBD84B09
:1038B00003EBC0014C68002C10D0002113F830003D
:1038C0000AE000BF04EB011302EB011593EC040ABC
:1038D0001035491C85EC040A8842F3DC30BDCD4824
:1038E00010B54078002829D0C848CA4C4079A41C9B
:1038F000052812D008DCC749012801F10201098816
:103900001AD0042804D112E0082806D00E2815D0B9
:103910002020FEF7D4F9002810D0A188002004F060
:1039200060FCE1880120BDE8104004F05ABC002092
:1039300004F057FC6188F5E70020F4E710BD70B58E
:10394000B54E0024183EB34D07E000BF36F8141002
:10395000204604F03BFC641CE4B228788442F5D392
:1039600070BDAC4AAC4B00211278183B04E000BF9C
:1039700023F81100491CC9B29142F9D3DFE72DE9C0
:10398000F05FA44EA648DFF89C9296F800C0BCF108
:10399000030F22D9B9F90410B0F904304A420029C2
:1039A00001DD0C4600E014466FF063052C1BA342BA
:1039B00004DA002900DC1146691A0DE0002901DD56
:1039C0000C4600E014466434A34204DD002900DC08
:1039D0001146643100E0194681809249904A924C28
:1039E000B1F90680DFF830B2B2F9003094F96A100C
:1039F000B2F90220ABF1180BBCF1010F31D900254F
:103A00002DE000BF00EE108A834EB0F9047006EB83
:103A10000516B8EEC00AD6ED000A96ED021A4F431D
:103A200020EE200A00EE902AF8EEE00A00EE810A6D
:103A300000EE903A96ED011AF8EEE00A00EE810AE7
:103A400000EE907A96ED031AF8EEE00A00EE810A95
:103A5000BDEEC00A10EE106A2BF815606D1C6545AE
:103A6000D0D36A4E6B4DDFF8C4A196F805C0AD1CEB
:103A70006F4FBCF1050F3BD006DCBCF1010F26D027
:103A8000BCF1040F68D103E0BCF1080F64D1A9E0D8
:103A9000B0F904004FF47F7C01FB002303F2DC53F8
:103AA0004FF4FA68634501DA634602E0434500DDFE
:103AB00043464143881A00F2DC502B80604501DA0E
:103AC000604602E0404500DD4046688044E0B4F8CE
:103AD0006C20B0F9040001FB0020B4F86E1088429D
:103AE00003DBB4F87010884200DD0846288033E01C
:103AF00094F98200BAF8021010FB01F1B4F88A20A0
:103B0000B9F902301A44CB1701EB137102EB211102
:103B1000B4F88620914204DBB4F88820914200DC9E
:103B20000A46AA8094F98310BAF8002011FB02F12A
:103B3000B4F89020B9F900001044CA1701EB1271D3
:103B400000EB2110B4F88C10884203DBB4F88E101F
:103B5000884200DD0846E8802020FEF7B0F8002803
:103B600053D094F8841000208A0706D0BA89B6F89A
:103B70000C31A2EB030262F30F004A0706D4FA8964
:103B8000B6F80C31A2EB030262F31F40B4F88A20AE
:103B900002442A80B4F8902002EB10406880254847
:103BA000007A88B3C80694F982007CD5BAF802205E
:103BB000414211FB02F194F98320BAF8000012FB94
:103BC00000F0CA1701EB12710B11C11700EB117055
:103BD000AA88A3EB2011511AA980E98803EB2010D1
:103BE00008447FE01049ABF80080134891F980C089
:103BF00091F97F9090F80A8091F97E0091F98110F7
:103C0000B8F1000F2DD019E06DE084E0A40500208C
:103C100028D3000828010020280B00200000000005
:103C2000A6010020B4010020A4080020B800002054
:103C3000D4010020C20C0020900C0020B7F9022013
:103C4000B6F80C31A2EB030808FB00F2B7F900004C
:103C500008FB09F8C01A0CFB002201FB00802A8037
:103C600007E050430CFB0300288009FB02F901FB2D
:103C700003906880B5F90000B4F874100844B4F8F3
:103C80007210884204DBB4F87610884200DC0146EA
:103C90002980B5F90200B4F87A100844B4F8781015
:103CA000884206DB00E006E0B4F87C1088427FF72B
:103CB00008AF084609E7BAF8021010FB01F0A9881E
:103CC000C21700EB127001EB2010A88094F983005A
:103CD000BAF8001010FB01F0E988C21700EB12706F
:103CE00001EB2010E880B5F90400B4F88610884292
:103CF00003DBB4F88810884200DD0846A880B5F9D7
:103D00000600B4F88C10884203DBB4F88E108842A9
:103D100000DD0846E88094F88400000710D50025EF
:103D20002020FDF7CCFF00B10225002407EB440062
:103D300001896019C0B204F054FA641C042CF5D354
:103D40002549BBF9005001200B78D84606E000BF9A
:103D500038F91020AA4200DD1546401C9842F7D3DE
:103D60000024894632E000BFB6F8D200A84205DA46
:103D700038F814102A1A891A28F8141038F914106F
:103D8000B6F8D020914201DA104602E0814200DC10
:103D9000084628F81400B7F90600B6F80E11884254
:103DA00008DA1020FDF78BFF40B1B6F8D41000BF41
:103DB00028F814100948407818B106E0B6F8D01079
:103DC000F6E7B6F8D41028F81410641C99F800002F
:103DD0008442C9D3BDE8F09F28010020900C002048
:103DE0002DE9F05F0646894690460025DFF818A4C5
:103DF0004FF40067DFF814B419E0002410E000BFAE
:103E0000DAF8142082F00102CAF81420ABF800702E
:103E1000484604F0A2FBFD48801C0780641CE4B205
:103E2000B442EDD33C2004F098FB6D1CEDB2454547
:103E3000E3D3BDE8F09F2DE9F05FF54A00242DEDB6
:103E4000028B40F2DC51B2F906004FF4FA7388425B
:103E500002DA4FF0640A0EE0EE49B0F5FA6F91F81D
:103E6000251004DAA0F2DC56714391FBF3F1C1F1A5
:103E7000640101F0FF0AE74DE74B002195F860E08F
:103E800095F861B0B3F80C314FF06409E04A40F2A4
:103E9000E63532F91180A8EB030606F2F312AA42C6
:103EA00004D8002E04DCA3EB080601E04FF4FA76F8
:103EB000B2B2022931D0BEF1000F06D0964503D22E
:103EC000A2EB0E0292B200E00022B2FBF9F5D34E53
:103ED00006EB450736F915C0B7F90270A7EB0C06DB
:103EE0006FF018077D4302EB85056E4396FBF9F5ED
:103EF000C74E6544203E26F81150C64D95F8235014
:103F000055434FF4FA72B5FBF2F2C2F16402D2B239
:103F100012FB0AF2B2FBF9F216E0BE4DBBF1000F44
:103F200006D0934503D2A2EB0B0292B200E000222E
:103F3000B74E203EB28095F8245055434FF4FA72A4
:103F4000B5FBF2F2C2F16402B24DD2B20D446E780A
:103F500016FB02F6CC46B6FBFCF6AD4F723F7E5424
:103F6000EE7A16FB02F6B6FBFCF6FF1C7E546D7D66
:103F700015FB02F2B2FBF9F5FA1C9845555405DA27
:103F80004C3232F811506D4222F81150491CC9B21E
:103F90000329FFF47BAFA04AB2F80E11884201DA80
:103FA000084604E04FF4FA63984200DD184680B2F8
:103FB0009246401A4FF47A725043C1F5FA61B0FB51
:103FC000F1F082B2B2FBFCF0944B6FF018060C33A8
:103FD00003EB400533F910307043B5F9025002EBA2
:103FE0008000ED1A454395FBF9F0894F8B4E203F39
:103FF0001844103EF880707AA7F17805F0B388482D
:10400000B5F91E10B0F90000401A00EE100AB8EE23
:10401000C00ADFED840A20EE200ADFED830AC0EE3D
:10402000208AB0EE680A07F065FEB0EE408AB0EE76
:10403000680A07F0D1FFB7F90210F0EE400A00EE6F
:10404000101AB7F90020B8EEC00A20EE081A00EEE8
:10405000102AF8EEC01AB0EE600A01EE801ABDEE2A
:10406000C10A10EE100A00EE102AB8EEC00A20EEC7
:10407000081A00EE101AF8EEC01A00E009E0B0EEDF
:10408000600A01EEC01ABDEEC10A10EE101A3980A6
:1040900078800220FDF713FE4FF0000860B3E87847
:1040A000401CC0B20621B0FBF1F2E87001FB120027
:1040B000C0B9002002F03BFB2979584A01F0070300
:1040C000AC3A491C22F813002971002032F8101074
:1040D000401C2144C0B28CB20828F7D3E00800F09D
:1040E000ECFFA872A87AA98C884203D89AF800112C
:1040F000814202D985F8028001E00420A870A878E6
:10410000FCF7D0F84948404C0127008818B101203D
:10411000FDF7C0FD10B94648008820B1606980F005
:10412000010060610FE0B07800B16783707800B182
:1041300027834FF40060FDF7C2FD20B1707800B115
:10414000012002F043F98020FDF7B9FD48B1A96CC8
:10415000286B411A05D44CF250310844A86403F08E
:104160008FF8696C286B411A02D4717BF9B1B77072
:1041700001F0BFFF1020FDF78DFD68B1E96C286BE1
:10418000411A09D4E97A052906D32A490844E86482
:10419000606980F0020060612748C168002910D082
:1041A000BDEC028B1A48BDE8F05F7838084786F806
:1041B0000280616981F001016161204908446864FD
:1041C000D6E7BDEC028B34E610B5134C204490F8D2
:1041D000020104F011F8A0F2EE2140F2DD5291420A
:1041E00001D3B4F80C0110BD2DE9F047084E0024AE
:1041F000983E0A4F7079A146401C9C3F707107F1B0
:104200004005DFF80C801BE000100240180C024053
:10421000D4010020A4080020A4050020A00C002048
:1042200046020020DB0F4940000034430202002018
:1042300004020020F04902004C0E002020A10700DB
:10424000B16B20468847727907EBC40102F0030284
:1042500021F8120025F814905FF0000035F81430B2
:1042600031F81020401C1A44C0B225F8142004284C
:10427000F4D335F91400801CC11700EB9170801045
:1042800025F8140038F914204146D21E904202DA73
:10429000821C21F8142031F91420D21C904202DD36
:1042A000801E28F81400641CE4B2082CABD3BDE8CF
:1042B000F087FE480288FE48417852B9827842B1C0
:1042C000002905D101214170FA48FB490088C883C3
:1042D00070470029FCD10122FF21022080E52DE951
:1042E000FC4FF54B4FF0000A78335246B3F9020009
:1042F00051464442002801DD064600E02646EE4BCA
:104300007833B3F900305D42002B01DD1F4600E039
:104310002F46BE4205DD002801DD834606E0A346A8
:1043200004E0002B01DD9B4600E0AB46E34B0020A0
:104330001B7F5C4203EB83030093DD4B04EB840E95
:104340001C79DB7803B9E4B302283DDADA4D403555
:1043500035F91060383535F9105006EB4505D84E63
:10436000B54202DB7642B54200DD3546D54EDFF878
:104370004CC336F91060AD1B0CEB4006B6F9286053
:10438000AF199CF8085064267D4395FBF6F57646F8
:10439000AE4502DC009EAE4200DA3546C64E0195BF
:1043A000703656F820503D44C74FBD4202DB7F4275
:1043B000BD4200DD3D4646F820509CF81260754332
:1043C00000E005E04FEA253A13B10CB9022843D1C9
:1043D000B949BA4D78312F1831F910207D7802EBA8
:1043E0008201090191FBF5F1B84D35F91060B04D2E
:1043F000891BA83D55F820C06144DFF8D4C261454F
:1044000003DB4FF47A5C614500DD614606F52076FA
:1044100045F82010B6F5A06F02D9002145F820100C
:104420007D2591FBF5F1FD7A694389119CB1022844
:1044300011DA019FCBF5FA7505FB07F64FF4FA7711
:1044400005FB0AF502FB0B6601FB0B5596FBF7F625
:1044500095FBF7F807E023B1022802DAD046019E67
:1044600001E016468846944F984D263735F810508F
:104470003F5C15FB07FC50279CFBF7F7A6EB0709F1
:104480008D4F643737F8106027F81050AE1B884DF9
:10449000874F3C3D303F55F8205057F8207036B2DA
:1044A0002F4407EB060C824F303F47F82050A7F10E
:1044B0000C0545F82060804D2C352D5C05FB0CF576
:1044C000EE1705EBD66509EB0806A6EB65157A4EE7
:1044D0006A3626F81050401C0328FFF633AFBDE8BB
:1044E000FC8F2DE9F04F72494FF6FF72DFF8C08163
:1044F000CB7891F804E070494FF0000B58468C8956
:10450000A8F124082109B2FBF1FA13B9BEF1000F9A
:104510001DD002281BDA6849403131F910203831AA
:1045200031F9101002EB4101654A914202DB52421F
:10453000914200DD1146634A32F910208A1A5F4920
:1045400001EB4001B1F9281002EB010B01E0022858
:104550004ED0EBB35949097A01FB0BF109115B4AC3
:10456000DFF84CC132F91020ACF1A80C8A1A53497B
:1045700002FB04F60144F6124D78CF7A55434FEA18
:10458000E5195CF8205006FB0755524E4CF82050B8
:10459000B54203DB7642B54200DC2E46444D4CF872
:1045A00020600C3D4FEA663C55F8206045F820201D
:1045B000961B0AFB06F292110C3D58F8206055F844
:1045C000207045F820603744174448F8202000E068
:1045D00019E0497D09EB0C02794302EB2121364AAF
:1045E0006A3222F81010401C03288EDBBDE8F08FE1
:1045F0003249314A91F824101B317832928811FBEC
:1046000002F14911ABE72D4D2B4A95F823101B31D0
:10461000783232F8102011FB02F10911BEF1000FBF
:104620009DD0AA7C02FB0BF201EB222197E72249E5
:10463000012801D0284800E02848C86370472DE9C8
:10464000F05F00242DED048BA04601F00AFE08B1B6
:10465000FFF7CAFDDFF860A0154DDFF860B0DAF8AB
:104660003010DAF850004FF00006081A4FF001073A
:104670007ED444F620621144D1460820CAF8501076
:10468000FDF71DFB08B9FFF7AFFD4FF40070FDF714
:1046900016FBE0B39BF86430B9F90EC003EB83005E
:1046A00060453BDA687898B3002019E004020020E6
:1046B000900C0020460200203C010020A4080020AD
:1046C0000CFEFFFFB8000020F0D8FFFFF000002034
:1046D00080C1FFFF0000E0FFDF420008E344000864
:1046E000F949B1F90C21F94921F81020401C03289F
:1046F000FADBBBF86620CA809BF86500184400EB23
:104700008000604502DA00F035FC2E7001E017E011
:1047100004E0B9F81010491CA9F810109BF86400C7
:1047200000EB8001B9F90E00814204DA687810B913
:1047300000F020FC2E70B9F80E10491CA9F80E10DC
:10474000DFF884C3DFF884E30020BCF80E31BCF846
:1047500010213EF91010A408994201DD44F08004B4
:10476000914201DA44F04004401C0428F1DB00E0EF
:104770002FE299F8071048468C4205D18179FA2931
:1047800003D2491C817100E0867189F80740BEF9A7
:104790000600CA46F146984217DACD4806604660E0
:1047A0008660CA48283806604660BBF8380060B1A9
:1047B000C748DA30007820B1287810B1FFF779FDCA
:1047C00003E0687808B100F0D5FB9AF806001428D9
:1047D00019D16878C0B1BBF838005C4628B99AF89E
:1047E00007005F2801D100F0C5FBB74890F812011F
:1047F000002808D0208F002805D19AF807007D28CE
:1048000001D100F0B7FB8CE09AF80700572809D0D7
:104810000420FDF754FAB8B19AF8071050465A2907
:104820001BD011E0AB494FF47A7008804FF48070D0
:10483000FDF745FA08B1FDF7E7FC0220FDF72AFA7B
:1048400010B1A5490A2008809AF807005D2817D002
:104850005B2817D05E2817D024E0818A19B18682A0
:10486000AAF816701EE0418C21B10021418419B1D3
:10487000022102E00121F9E703218AF8001011E08A
:10488000012402E0022400E003248F49601E81F825
:10489000FC0200210846FDF72CF8E2B22821022094
:1048A000FFF79EFABBF838005C4618B99AF8071073
:1048B0006F290FD0844991F8121121B118B99AF8D3
:1048C00007007E2806D09AF80700972805D0A72869
:1048D00008D008E0FFF7EDFC05E080494FF4C87010
:1048E000088000E0AF739AF80700BB2806D0B7280D
:1048F00007D0BE2809D0BD280AD012E0608D801CE8
:1049000001E0608D801E608505E0208D801C01E047
:10491000208D801E208501210846FCF7EAFF8AF8D9
:1049200006600420FDF7CBF928B3BAF822205046E0
:10493000322172B16A7862B1634AB9F90630B2F8CD
:104940000E21934205DD624ADA3212780AB94182B9
:1049500046845F4ADA32527C32B1028B838A1A4330
:1049600009D1AAF8121006E0818A21B1697811B93B
:104970008682AAF816700020CE4640F2A46C00BFD2
:104980000EEB4001B1F9084040F214518C4201DABB
:10499000012200E0002200EB400902FA09F2A4F231
:1049A0001551B1F5C77F01D8012300E0002309F1BB
:1049B00001018B401A43644501DD012100E0002123
:1049C00009F1020901FA09F10A4342EA0802401C0E
:1049D0001FFA82F80428D3DB3D4C002014F1DA04DE
:1049E0000BEB4001098F11EA080100D0012121548D
:1049F000401C1428F4DB607838B99BF8640000EBA5
:104A00008001BAF90E0081420BDA0120FDF742F96C
:104A100038B1E87830B92D48283806604660EF7024
:104A200000E0EE70A07840B1EE70287930B92748E8
:104A30002838066046602F7100E02E71207800B99A
:104A40002F70E978264809B9297911B1022101832B
:104A500001E0022141830220FDF71CF9F8B1E07862
:104A600080B1A87978B91F48AF7101681E4801600C
:104A700016482038C1881D48AAF81A1006801C481C
:104A8000068000E0AE714FF40050FDF718F930B128
:104A9000207918B1E87B10B9EF7300E0EE730420C1
:104AA000FDF7F8F850B3607938B1687930B911483A
:104AB0006F7101881048018000E06E71A079F0B13B
:104AC000687AE8B96F721BE0A4050020D4010020C9
:104AD000E80B002004020020440200200202002013
:104AE00000100240E0000020E40000209E000020B2
:104AF0009C000020460200204802002006E06E7262
:104B0000E07918B1FD480188AAF81E101020FDF7C1
:104B1000C1F8E8B3E87AE0B39AF80B1050460529DB
:104B200046D3A17A71B1E97991BBEF71F4492E7244
:104B3000D0468AF80860081FFEF723F8022088F89C
:104B4000010039E0EE71E17A51B3ED4B143BB3F95A
:104B50000010002900DC4942BBF89C2091421FDA7A
:104B6000B3F90210002900DC4942914218DA297A8F
:104B700071B9E3482F720C388AF8086000F110010F
:104B800002680A60406841F8040FD046DC4801E042
:104B900012E00DE0001DFDF7F4FF88F801700BE056
:104BA0002E72017A41B98AF80870FDF7C1FF03E05F
:104BB000EE712E728AF80160207B08B1AF7200E0BE
:104BC000AE72D0484079082801D00E2839D16E72D3
:104BD00037E0DAF858005446032801DD001FA065CD
:104BE00030B101280CD0022814D0032829D11BE0B1
:104BF0000420A765FDF74EF810B100F00AFD00BBD8
:104C0000A06D401CA0650220FDF744F810B100F033
:104C1000E5FBB0B9A06D401CA0650220FDF73AF895
:104C200010B1FEF701FB60B9A06D401CA065082023
:104C3000FDF730F808B100F0A5FD4FF40050FDF786
:104C40003EF803F060FCAF4ACAF830005146928942
:104C500012B14B6DC31A7AD41044D1460C46486544
:104C6000FEF725FA03F04FFC2063616B411AA18126
:104C700060630420FDF70EF828B3A14A143AB2F994
:104C8000041001F145008A281ED86879E0B19B48DC
:104C900003889D480088181A00B210F1B40F02DC96
:104CA00000F5B47000B2B42802DBA0F5B47000B215
:104CB0006B7B43B19BF8093013FB00F01E2390FB84
:104CC000F3F0081A908003E08C4801888E48018038
:104CD0000220FCF7DFFF58B3A87948B39BF86300C4
:104CE00038B3DFF81CC2B9F91A30ACF1140C4846DD
:104CF000BCF90620D41A002C00DC9C1A9BF8621028
:104D00008C4208DD814C9A42268089F8097000DDCA
:104D1000494250180AE0417A29B17D490A687D4923
:104D20000A6089F809607C4800881844ACF80600DD
:104D30003BE0DFF8CCA1B9F91A20AAF1140A4846E1
:104D4000BAF90640A31A002B02DD1C4601E00DE172
:104D5000141B9BF862108C421ADD818B194409B236
:104D600001F5FA738183B3F57A7F0CD94FF4FA78A1
:104D700091FBF8F4674B08FB1411D3F800C0A4446E
:104D8000C3F800C0818361490E8089F8097007E08B
:104D9000417A29B15E490B685E490B6089F8096068
:104DA0005D4800881044AAF806001020FCF772FF46
:104DB000F0B3E87908B9287AD0B3287BC0B34F4C58
:104DC000B4F9000000EE100AB8EEC00ADFED538A15
:104DD00020EE280A07F000F9B4F90000B0EE408A8E
:104DE00000EE100AB8EEC00A20EE280A06F082FF94
:104DF000434F9BF895004C3F07F11C050028B5F97F
:104E00000200F0EE408A5E46B2EE049A75D02C1D88
:104E1000B4F90210401AFCF790FF014696F895008D
:104E20004042814214DBB5F90200B4F9021000E0FF
:104E30005DE0401AFCF781FF014696F8950081423B
:104E400006DCB5F90200B4F90210401AFCF775FF50
:104E5000618808446080B5F90000B4F90010401A78
:104E6000FCF76BFF96F895104942884212DBB5F9C2
:104E70000000B4F90010401AFCF75FFF96F8951097
:104E8000884207DCB5F90000B4F90010401AFCF7BD
:104E900054FF01462088084400B22080B4F9021073
:104EA00000EE101AB8EEC00A60EE280A00EE100AF2
:104EB000B8EEC00A40EE480A80EE890ABDEEC00A8C
:104EC00010EE102A00EE101A3A80B8EEC00A60EE1A
:104ED000080A00EE100A00BFB8EEC00A40EE280A29
:104EE00080EE890ABDEEC00A10EE100A7880D9F86B
:104EF0003C008047FEF743FD12E019E04602002027
:104F0000C8010020A4050020480200209E000020C7
:104F1000E0000020E40000209C00002035FA8E3CD8
:104F2000FEF7DDFCBDEC048BBDE8F05FFEF707BDCE
:104F300000EE100AB5F90010B8EEC00A60EE280ABB
:104F400000EE101AB8EEC00A40EE480A80EE890A58
:104F5000BDEEC00A10EE102A00EE100A3A80B8EE3C
:104F6000C00A60EE080A00EE101AB5E7BDEC048B2B
:104F7000BDE8F09F03484178002901D0002141702D
:104F800070470000900C00202DE9F843FE4DFF49CA
:104F900005F1F1030024B5F8E4209846A1F11400CE
:104FA00002F0D6FB08B101240EE0B5F8E410F74892
:104FB00002F025F940B9B5F8E410F44802F0D0FA4F
:104FC00010B9032003F047FBF14E002795F8E300EA
:104FD00030B1012804D0022814D0032829D120E0C0
:104FE0008DF800704FF44870E849ADF802001439AC
:104FF000684601F033FC08B10120307095F8E300F9
:10500000012816D06CB1E149B5F8E4204346A1F17E
:10501000140002F09DFB0220307095F8E300022896
:1050200012D0DA48143802F00CFA10B103203070B4
:105030000AE0307840B995F8E30010B185F8E370E4
:10504000C4E70120FCF733FED048143002F097FC8F
:1050500010B90220FCF72BFE0120FCF71BFE18B153
:10506000CA48143800688047C84800688047C64866
:10507000E03001F0A1FC10B90420FCF718FEC5488F
:105080006423B0F9262092FBF3F108B200EE100A77
:1050900003FB1121F8EEC00A00EE101AB8EEC00AA8
:1050A0009FEDBD1ABD4840EE010AB2EE040A20EEA3
:1050B000800A80ED000ABDE8F88300EE100AB8EE21
:1050C000400ADFEDB70A20EE200A9FEDB61AAE487F
:1050D000C0EE010A90F8FE0000EE100AB8EE400A99
:1050E00020EE800ABCEEC00A10EE100A80B27047B3
:1050F00070B500252C46002001F019FB05440A205C
:1051000003F02BFA641C202CF5D3C5F34F10FFF7E6
:10511000D4FF9D4A022192F8FF3000BF03FB01F447
:10512000844202D8491C0629F8D39F48017092F89E
:10513000000148439D49088070BD3CB50A88ADF820
:1051400000204A88ADF802208A888F4BADF80420F1
:1051500000EB4000002203446C46981834F81250CB
:1051600090F9DA00002802DD01EB400002E06D4218
:10517000A1EB4000521C20F8025C032AEDDB3CBD91
:105180002DE9F05FDFF808A2894EDFF80892BAF83F
:1051900002207D4C0025CAB3864900204FF4C87C0C
:1051A000D046624501D141F8205051F8203036F9FF
:1051B00010703B4441F8203026F8105004EB4003B7
:1051C000401CA3F8F2500328EBDB012A19D1086830
:1051D00090FBFCF024F8F20F486890FBFCF0608034
:1051E0008868B8F8061090FBFCF0401AA080A9F877
:1051F00028501146A4F1F204A9F82A500846FCF7F9
:1052000078FBB8F80200401EA8F802000420FCF762
:1052100056FD00287DD0684FDFF8748165493A88D3
:1052200008F120080C31A8F1180C322A05D0EAB395
:105230000020BB46322A15D016E034F8F20FA8F849
:1052400000006088A8F80200A088A8F80400B9F857
:105250002830ACF80030B9F82A00A4F1F204ACF818
:105260000200E5E741F8205051F8203036F910707F
:105270003B4441F8203026F8105004EB4003401C1A
:10528000A3F8F2500328D5DB012A1DD14B484C4B23
:105290000580012018804B4B02201870B8F80000E0
:1052A00024F8F20FB8F80200608000E010E0B8F8CF
:1052B0000400A080BCF80030A9F82830BCF8023007
:1052C000A4F1F204A9F82A30A2F10102ABF80020FF
:1052D0003D480288012A1CD105800A68322092FBD1
:1052E000F0F224F8F22F4A6892FBF0F262808968AB
:1052F00091FBF0F1BAF80600081AA080A9F828502E
:105300004FF00101A4F1F204A9F82A500846FCF775
:10531000F0FA308834F8F21F401A308070886188C3
:10532000401A7080B088A188401AB080BDE8F09F14
:1053300010B5164C1E48143C61688847124890F816
:10534000DD0020B11A490120FFF7F7FE02E0A16855
:1053500017488847BDE8104012E730B50C4A0D4B9E
:10536000D06893F82E300146401C834200D10020C3
:10537000164B1C680F4B183343F82140144953F85F
:1053800020300D682C4425E0A40500204C0E0020A0
:1053900000020020A40800208988883CB400002076
:1053A0003333534000F07F45EB01002060010020C3
:1053B00008010020180D00204E010020540100209B
:1053C000500100203C010020520100201C0100205F
:1053D000AC000020E31A0B60D06030BD70B5EB4824
:1053E000EB4C00682169411A01D5002070BD206195
:1053F000E84D606978B128698047686880472888E7
:105400002169084420616A69E349E4489047002023
:105410006061022070BDA8688047E8688047FFF798
:105420009CFF012060616888216908442061012097
:1054300070BD2DE9F05FD6482DED028B81880029E3
:105440007DD000249FEDD68ADFF848B38246ABF1C9
:10545000640B25464FF47A79ABF10C06BAF80430A8
:105460004B4506D104EB84020BEB820046F8245036
:105470000561CC4F56F8240037F914C0604446F853
:10548000240004EB84000BEB800000EE10CAD0F87F
:1054900010C0B8EEC00A0CF1010CC0F810C0BCF18D
:1054A000010F28D0D0ED000A01EE10CA844670EE3C
:1054B000601AB8EEC12A81EE821A71EE200AC0EDA0
:1054C000010AD0ED001A90ED021A70EE611A30EE6A
:1054D000600A01EE801A80ED031AC0ED000A80ED2B
:1054E000021A00BF27F81450AF4FD046012B27F8FF
:1054F000145008D03EE080ED010A80ED000A844699
:1055000080ED028AEEE70169012909DD491E00EEFE
:10551000101ADCED030AB8EEC01A80EE810A01E031
:10552000B0EE480A06F014FEA04890F8F000B0B1C2
:1055300000EE900AF8EE600AF4EEC00A00E022E005
:10554000F1EE10FA0BD29348A8F804906438CBF827
:10555000105045628563B560756035600AE056F8A5
:105560002410012291FBF9F027F814000F210A20E2
:10557000FEF736FC641C032CFFF670AFBAF804107B
:10558000491EAAF80410824D0020874E854C26350E
:1055900036F8102034F81010891A09B224F81010C7
:1055A00035F91020A2F54873994201DA1A4604E051
:1055B00002F54872914200DC0A4624F8102025F8D2
:1055C0001020401C0328E3DBBDEC028BAEE610B5D7
:1055D000704C7448143C61688847744890F8DA004D
:1055E00020B170490020FFF7A8FD02E0A1686D48D6
:1055F0008847BDE810401CE770B56D4C0225258337
:105600006348383001F020FA658361490120487011
:1056100070BD2DE9F0475D485D4C0068A169411AF5
:1056200002D50020BDE8F08762490844A0616248C5
:1056300001F0DBF96049DFF88481554BB1F90000D6
:10564000002700EE100A52482C333830B8EEC00A5A
:10565000D0ED000A9E1D20EE200ABDEEC00A10EE1D
:10566000102A0FFA82FCA1F800C0B1F90220D0ED97
:10567000010A00EE102AB8EEC00A20EE200ABDEEA4
:10568000C00A10EE102A0FFA82F9A1F80290B1F9BF
:105690000420D0ED020A00EE102A444AB8EEC00AF7
:1056A00020EE200ABDEEC00A10EE100A0FFA80FAB2
:1056B000A1F804A098F80E0088B1A069E06100206C
:1056C00002EB4005A5F8F87031F8105023F810509F
:1056D00026F81050401C0328F2D388F80E7060782A
:1056E00070B132F8F80FACEB000008805088A9EBDD
:1056F000000048809088A2F1F802AAEB00008880A0
:10570000E06990B3A569281A2D4DA84218D22848FF
:10571000426982F0010242615FF0000031F910201D
:1057200033F91040A24201DA23F8102036F9104074
:10573000A24201DD26F81020401C0328EED314E01D
:105740000020E76133F9101036F91040214401EBD5
:10575000D17102EB40044910401CA4F8F810032852
:10576000F0D301210846FCF7C4F801205AE710B530
:10577000012001F0B8F80820FCF794FA1149002044
:10578000088010BD0F4801F0F9B800006C0100203E
:1057900000020020600E0020A80000201C01002054
:1057A000000000000201002020010020A4050020CC
:1057B00000100240A086010014010020900C00207F
:1057C00080C3C9012601002070B5F64D0446C0B261
:1057D000E87003F070F8287AE97848402872C4F33A
:1057E0000720E87003F067F8287AE97848402872C3
:1057F000C4F30740E87003F05EF8287AE97848407F
:105800002872200EE87003F056F8287AE9784840AC
:10581000287270BD70B5E34D0446C0B2287103F024
:105820004AF8287A297948402872C4F30720287159
:1058300003F041F8287A29794840287270BD10B5E4
:10584000044603F038F8D748017A6140017210BD70
:10585000D44AD548517A405C491C5172704700B512
:10586000FFF7F6FF0346FFF7F3FF03EB002080B2DC
:1058700000BD00B5FFF7F3FF8446FFF7F0FF0CEB28
:10588000004000BD70B504460D462420FFF7D7FF49
:105890004D20FFF7D4FF0CB1212000E03E20FFF7A0
:1058A000CEFFC04C002020722846FFF7C8FFA07A28
:1058B000BDE87040C3E701460020E3E70146012050
:1058C000E0E7B848007ABAE710B5044603E000BF45
:1058D000FFF7B5FF641C20780028F9D110BD2DE931
:1058E000F047C0B04FF48071684605F0D9FCDFF88E
:1058F000B8A2AC4F0025DFF8AC92AAF1140A0C371D
:1059000005EB4506002407EB86080BE017F8261088
:105910001AF80400814204D16846D8F8041005F052
:10592000CBFC641C99F800008442EFDB6D1C142D45
:10593000E6DB684605F0F9FCC0B2FFF7BCFF6C4639
:1059400003E000BFFFF77BFF641C20780028F9D13B
:1059500040B0BDE8F08770B502F0F3FE9248FF2238
:105960001421143805F095FC8F4D0020143D0124BE
:1059700028702046FCF78EF920B1012068700220C3
:10598000A87003240220FCF785F950B103202855A4
:10599000641C4FF40050FCF792F910B10420285514
:1059A000641C0420FCF776F940B105202855641CDE
:1059B00006202855641C07202855641C2020FCF76D
:1059C0007EF910B108202855641C4FF48070FCF754
:1059D00076F948B11020FCF75DF928B10A20285566
:1059E000641C0B202855641C70484079082801D09D
:1059F0000E2802D10C202855641C0D202855641C4B
:105A00000420FCF75CF910B111202855641C65488E
:105A1000047070BD2DE9F05F624D00242846A97A1C
:105A2000DFF884910078DFF888B1DFF880A1614E5B
:105A3000614FA046A9F11409772973D00FDCA1F1B9
:105A40006401132938D2DFE801F0D9FBF9F8F7F641
:105A5000F5F4F3F2F1F0EFEEEDECEBEAE900564885
:105A60000124CF29407836D014DCCA295BD008DC69
:105A7000A02976D0A42975D0C82923D0C9291BD143
:105A800034E0CB295ED0CC296FD0CD296CD0CE2983
:105A900012D19FE2EF2922D008DCD0297CD0D12975
:105AA0007BD0D2297AD0D32906D1A3E0F02976D0B1
:105AB000FA2975D0FE2974D00020FFF7FFFEBDE85B
:105AC000F05FFEE600243D4DFFF7C9FE25F8140007
:105AD000641C082CF8D30020FFF7EDFEEFE7FFF77A
