:020000040800F2
:10000000481500209D010008A50100085F6C00084C
:10001000A9010008AB010008AD01000800000000C4
:10002000000000000000000000000000AF01000818
:10003000B101000800000000B30100089B2E000879
:10004000B7010008B7010008B7010008B7010008B0
:10005000B7010008B7010008B7010008BB16000887
:10006000B7010008B7010008B7010008B701000890
:10007000B7010008B7010008B7010008B701000880
:10008000B7010008B7010008B7010008B701000870
:10009000B7010008B7010008B7010008BD16000845
:1000A000B7010008B7010008B7010008F9280008E7
:1000B000352A0008852A0008012B0008CB1B000800
:1000C000A9190008CF1B0008CD1B0008B7010008C4
:1000D000B7010008B701000879330008C7330008EA
:1000E00085130008B7010008B7010008B701000830
:1000F000B7010008B701000897290008B7010008F8
:10010000B7010008B7010008972B0008B7010008E5
:10011000B7010008B7010008B7010008B7010008DF
:10012000B7010008B7010008B7010008B7010008CF
:10013000B7010008B7010008B7010008B7010008BF
:10014000B7010008B7010008B7010008B7010008AF
:10015000B7010008B7010008B7010008B70100089F
:10016000B7010008B7010008B7010008B70100088F
:10017000B7010008B7010008B7010008B70100087F
:10018000B7010008B7010008DFF80CD00AF07EF9CB
:1001900000480047B76A0008481500200648804715
:1001A00006480047FEE7FEE7FEE7FEE7FEE7FEE75C
:1001B000FEE7FEE7FEE7FEE7C1010008890100084F
:1001C000514810B5016841F4700101604F48016861
:1001D00041F0010101604D4A0021083211600268BE
:1001E0004B4B1A400260031D4A4A1A60026822F40F
:1001F0008022026045480C30016000F03EF8424920
:100200004FF000608039086010BD30B53F4C0834B5
:100210002068414A10F00C01404804D055100429D0
:1002200003D0082903D002601DE005601BE03749B8
:10023000091D0B68C3F3805C0B68BCF1000F03F071
:100240003F0302D0B5FBF3F201E0B2FBF3F20B681F
:100250000968C3F388135A43C1F30141491C49009B
:10026000B2FBF1F1016021682C4AC1F30311121DA8
:10027000515C0268CA40026030BD244900200A680F
:1002800042F480320A604FF4C0630A6800F1010052
:1002900012F4003F01D19842F7D10868800331D5AC
:1002A0001A484030026842F0805202601C480268DE
:1002B00042F4804202601548083002680260026819
:1002C00042F400420260026842F4A0520260031F3E
:1002D000144A1A600A6842F080720A600A68920141
:1002E000FCD5114A40F205611160016821F003015B
:1002F0000160016841F0020101600168C1F3810100
:100300000229FAD17047000088ED00E00038024071
:10031000FFFFF6FE103000240024F400000000204F
:100320000070004008544007003C0240194908434F
:1003300019490860704770B50F21C478027801230D
:100340004FF0E026E4B1144C246804F4E064C4F5F2
:10035000E064C4F30724C4F10405E1404478AC40F0
:1003600085780D4025430D4C29011155007800F08A
:100370001F018B40400906EB8000C0F8003170BDC2
:1003800002F01F008340500906EB8000C0F8803166
:1003900070BD00000000FA050CED00E000E400E094
:1003A00010B501210C02204600F0E3FB2046BDE819
:1003B0001040002100F0DDBB30B54268424B0C79A3
:1003C0001A400B6842EA04221343436082683F4BA1
:1003D0004D791A40D1E9034323438C6844EA45042C
:1003E000234313438360C26A097D22F47002491ECD
:1003F000C9B242EA0151C16230BD354B10B51A682D
:10040000344902EA0102D0E9001441EA0401D0E9CA
:10041000024044EA000441EA040141EA0201196091
:1004200010BD0029816802D041F0010101E021F0F6
:1004300001018160704770B5072509290AD9C46890
:10044000A1F10A0606EB4606B540AC43B3401C4397
:10045000C46007E0046901EB4106B540AC43B3401A
:100460001C4304611F23072A09D2446B521E02EB6E
:10047000820293409C4391400C43446370BD0D2A1B
:1004800009D2046BD21F02EB820293409C4391403D
:100490000C43046370BDC46A0D3A02EB82029340C0
:1004A0009C4391400C43C46270BD816841F080411F
:1004B000816070470029816802D041F4807101E0B9
:1004C00021F4807181607047FFFEFFFCFDF7FFC0E3
:1004D00004230140E030FCFF2DE9F043016821F0E6
:1004E000010101600021016041608160C160016122
:1004F000212141616149614B3D221039984202D16D
:100500008A60BDE8F0835D4C4FF474631834A042F8
:1005100001D18B60F5E7594D4FF474143035A84282
:1005200001D18C60EDE7554E4FF074654836B0420E
:1005300001D18D60E5E7514F514E6037B84201D18E
:10054000CE60DEE74D4FDFF83CC17837B84202D1CC
:10055000C1F80CC0D5E7494FDFF82C819037B8427D
:1005600002D1C1F80C80CCE7444F4FF03D59A83779
:10057000B84202D1C1F80C90C3E74449434F08394F
:10058000B84201D10A60BCE7404A1832904201D11A
:100590000B60B6E73D4A3032904201D10C60B0E7C3
:1005A0003A4A4832904201D10D60AAE7374A3749AA
:1005B0006032091F904201D10E60A2E7334A7832BF
:1005C000904202D1C1F800C09BE7304A903290427D
:1005D00002D1C1F8008094E72C4AA832904290D111
:1005E000C1F800908DE730B50368294ACC68134004
:1005F0000A682243D1E905452C432243CC692243B2
:100600000C6A22434C6A22438C6A22434C6B22437D
:100610008C6B22431A430260426922F00703D1E93E
:100620000B2422431A4342610A6942604A6882608D
:100630008968C16030BD0029016802D041F0010124
:1006400001E021F0010101607047406880B270470D
:100650000B0607D5436912B143F0800301E023F094
:1006600080034361802908D0002A026801F01E013E
:1006700001D00A4300E08A430260704710600240E4
:100680003D000020400F002000003D20106402408B
:100690003F801CF030B524498379026863B30B684E
:1006A00093430B600A1D13680468A3431360027927
:1006B0000A4413680468234313601B4A0832136812
:1006C0000468A3431360131D1C680568AC431C60D9
:1006D00090F805C0BCF1100F05D061440A680068AD
:1006E00002430A6030BD1168046821431160196833
:1006F00000680143196030BD0079084401689143E6
:10070000016030BD084A014600201268064B0A40CD
:1007100014331B680B4202D0002A00D0012070471E
:100720000149143108607047003C014042480068AC
:10073000002805DA404841490C3801604049016011
:1007400070473D48016841F00041016070473A49F7
:100750000820091F0A68D20301D5012070470A68E2
:10076000D20601D5052070470A6812F0EF0F01D0BC
:100770000620704709688907FBD50720704700B538
:10078000FFF7E5FF0128FBD000BD10B504464FF090
:10079000000C29B1012928D0022929D04FF4407C2E
:1007A000FFF7EDFF08281FD1234B186820F4407095
:1007B0001860186840EA0C001860186820F0F8000B
:1007C0001860186844F0020108431860186840F483
:1007D00080301860FFF7D3FF196821F0020119601B
:1007E000196821F0F801196010BD4FF4807CD7E73B
:1007F0004FF4007CD4E710B584460C46FFF7BFFFEA
:10080000082814D10C4B186820F440701860186840
:1008100040F400701860186840F001001860CCF8CF
:100820000040FFF7ACFF196821F00101196010BD0D
:100830000149091F08607047103C024023016745C9
:10084000AB89EFCDF0B5002201234FF0030C00BFC0
:100850000D6803FA02F42540A5422DD10668540024
:100860000CFA04F5AE4306600E790768A6403E43D5
:1008700006600E79012E01D0022E12D18668AE4399
:1008800086604D798668A54035438560456803FAE2
:1008900002F6B543456045688E799640B6B2354359
:1008A0004560C56856000CFA06F7BD43C560CD79B2
:1008B000A540C4682543C560521C102AC8D3F0BDAA
:1008C0004FF6FF7101600021017141718171C171A9
:1008D00070470246002012690A4200D0012070478A
:1008E00001837047418370474B07DB0E9A40C9086C
:1008F00010B500EB8100016A0F249C40A143016206
:10090000016A1143016210BD5E4910B5884202D1EF
:1009100001214C050AE05C49884202D101218C0585
:1009200004E05A4988420AD10121CC05204600F052
:1009300016F92046BDE81040002100F010B910BDA6
:100940007FB5044680880D4620F03F06684600F0DB
:10095000A3F84F490298B0FBF1F189B20E43A6808B
:10096000228822F0010222804A4B2A689A421BD830
:100970005200B0FBF2F080B2042800D20420491CDF
:100980002184A083208840F00100208021884FF638
:10099000F5300140A8886A89104308432080A8895F
:1009A0002989084320817FBDEB88A3F53F46FF3EA0
:1009B00005D102EB4202B0FBF2F080B208E002EB9C
:1009C000C20303EB0212B0FBF2F080B240F48040AD
:1009D000020501D140F001004FF4967251434FF4EB
:1009E0007A72B1FBF2F140F40040C8E741F288317D
:1009F0000160002181804BF6FF72C280018141813C
:100A00004FF48041818170470029018802D041F074
:100A1000010101E021F001010180704700290188F6
:100A200002D041F4807101E021F4807101807047AF
:100A30000029018802D041F4007101E021F4007125
:100A40000180704712B141F0010101E001F0FE01A7
:100A5000018270470029018802D041F4806101E0E1
:100A600021F480610180704701827047008AC0B222
:100A70007047002A828801D00A4300E08A438280BE
:100A8000704700000054004000580040005C0040E7
:100A900040420F00A086010030B53E4B19683E4A27
:100AA00011F00C0104D05510042903D0082903D0FB
:100AB00002601DE005601BE03649091F0C68C4F3A5
:100AC000805C0C68BCF1000F04F03F0402D0B5FB61
:100AD000F4F201E0B2FBF4F20C680968C4F3881484
:100AE0006243C1F30141491C4900B2FBF1F10160CD
:100AF00019682A4A01F0F0010909545C0168E140D3
:100B000041601C6804F4E054A40A145D21FA04F462
:100B100084601B6803F460435B0BD25CD140C1600E
:100B200030BD1C4A28320029116801D0014300E081
:100B3000814311607047174A38320029116801D08B
:100B4000014300E0814311607047124A3C320029A2
:100B5000116801D0014300E08143116070470D4AE4
:100B600018320029116801D0014300E0814311606F
:100B70007047084A1C320029116801D0014300E087
:100B800081431160704703486C30016841F0807107
:100B900001607047083802400024F400140000206F
:100BA00010B58A0721F003040649130F21440F22D0
:100BB0000C689A4094430C600A68984002430A60AB
:100BC00010BD00000838014030B50288FD4BFE4CD6
:100BD00098420DD0A0420BD0B0F1804F08D0FB4D11
:100BE000A84205D0FA4DA84202D0FA4DA84204D13D
:100BF00022F0700C4A8842EA0C02F74DA84207D056
:100C0000F64DA84204D022F4407C0A8942EA0C0244
:100C100002804A68C2620A880285984201D0A042D6
:100C200001D1897A01860121818230BD4FF0FF31E7
:100C3000416000210180018141808172704700295B
:100C4000018802D041F0010101E021F001010180A1
:100C5000704730B5028C22F001020284028C838836
:100C6000048B22F0020224F073050C882C438D893A
:100C700015434A882A43D34DA84202D0D24DA842F8
:100C80000DD122F00805CA8923F440732A4322F0CB
:100C900004058A882A430D8A1D434B8A2B4383808F
:100CA000048389684163028430BD30B5028C22F030
:100CB00010020284028C8388048B22F0200224F428
:100CC000E6450C88240645EA14448D892D0542EA40
:100CD00015454A88120545EA1242BA4DA84202D08B
:100CE000B94DA84215D122F08005CA8923F440638A
:100CF000120545EA124222F040058A88120545EAAB
:100D000012420D8AAD0443EA15454B8A9B0445EA1D
:100D100013438380048389688163028430BD30B5C6
:100D2000028C22F480720284028C8388848B22F4E9
:100D3000007224F073050C882C438D892D0642EA3D
:100D400015454A88120645EA12429E4DA84202D035
:100D50009D4DA84215D122F40065CA8923F4405361
:100D6000120645EA124222F480658A88120645EA94
:100D700012420D8A2D0543EA15454B8A1B0545EAAB
:100D80001343838084838968C163028430BD30B596
:100D9000028C22F480520284038C8288848B4D88DA
:100DA00024F4E64C0C882D0724064CEA144423F462
:100DB000005C8B891B074CEA134343EA1545814BC2
:100DC000984202D0804B984205D122F480430A8A8F
:100DD000920543EA12428280848389680164058413
:100DE00030BD002101804180818081608181C1818D
:100DF000018241827047028B22F008020A4302837B
:100E00007047028B22F4006242EA0121018370479D
:100E1000828B22F008020A4382837047828B22F47D
:100E2000006242EA012181837047828B22F4406292
:100E30008283828B42EA012282837047828B22F076
:100E40000C028283828B0A4382837047028B22F4D6
:100E500040620283028B42EA01220283704730B56E
:100E6000048C24F010040484B0F818C0058C0C0124
:100E70002CF4734C4CEA033141EA022225F0A00124
:100E8000214341F010010283018430BD028B22F026
:100E90000C020283028B0A430283704770B50C4632
:100EA000054608884988A2882389E0B1042822D011
:100EB0000828288C27D020F480502884AE8B288CDA
:100EC00026F4734646EA022220F4204042EA033325
:100ED00040EA013040F48050AB832884E188284602
:100EE000BDE87040A1E7284600F055F8E1882846A3
:100EF000BDE87040CAE72846FFF7B1FFE188284601
:100F0000BDE87040A2E720F480702884AE8B288C66
:100F100026F0F30642EA031320F42060334340EA4C
:100F2000012040F48070AB832884E1882846BDE826
:100F3000704083E700210180418001228280C180CE
:100F400001817047406B7047806B7047C06B704782
:100F5000006C7047002930F8441F02D041F4004172
:100F600001E0C1F30E0101807047002A828901D09F
:100F70000A4300E08A4382817047038A0022808905
:100F80000B4200EA010001D000B101221046704777
:100F9000C9430182704710B5048C24F00104048415
:100FA000B0F818C0048C42EA03132CF0F30C24F0C0
:100FB0000A0243EA0C030A4342F00101038301845D
:100FC00010BD00000000014000040140000400408A
:100FD00000080040000C00400010004000140040D9
:100FE0007FB50446008A0D4620F44051E888084346
:100FF0002082A08941F20C618843A9882A89114383
:101000006A8902431143A181A08A20F44071A88912
:101010000843A0826846FFF73FFD3948844202D06A
:101020003848844201D1039800E00298A18909045C
:10103000002900EBC00101EB0010296802DA4FEA39
:10104000410101E04FEA8101B0FBF1F06422B0FB05
:10105000F2F14FEA01114FEA11136FF018056B43DB
:1010600000EB8300A3891D044FF0320306D503EB88
:10107000C000B0FBF2F000F0070005E003EB001049
:10108000B0FBF2F000F00F00084320817FBD4FF469
:101090001651016000218180C18001810C224281B2
:1010A000818170470029818902D041F4005101E01B
:1010B00021F40051818170478088C0F30800704797
:1010C000002A828A01D00A4300E08A438282704764
:1010D000C1F3421301F01F0C012101FA0CF1012BA5
:1010E00007D0022B07D01430002A026805D00A432B
:1010F00004E00C30F8E71030F6E78A4302607047EE
:1011000000100140001401402DE9F041054600782F
:101110009CB008B1012400E0002401218805FFF7FC
:1011200000FD01210F023846FFF70FFDDFF8E080D8
:101130004046FFF7D1F937480026CDE90060364830
:10114000CDE902060CB1022000E00120CDE9040641
:101150004FF480600690400007908000CDE90807BA
:101160000AA900010127C1C10D96694640460E96A5
:10117000FFF739FA01214046FFF75DFA1020199078
:1011800003208DF868008DF86B6019A92348FFF7DC
:1011900059FBFFF705F915964FF470601696CDE9E7
:1011A000176015A8FFF729F98DF840400F968DF8C4
:1011B00041701196129613960CB1022000E00120A6
:1011C000144E8DF850004C3E0FA93046FFF7F4F84E
:1011D00001213046FFF76EF9022301220E2130462D
:1011E000FFF729F92CB1022329781A463046FFF778
:1011F00022F901213046FFF714F93046FFF755F97F
:101200001CB0BDE8F081044931F8100070470000BF
:10121000106402404C2001402400002000080240DD
:1012200070472DE9FC47DFF84891054699F8000022
:10123000C0B300263746B0463446641CE4B26B4661
:1012400008223221532000F00DFD9DF800009DF88A
:101250000110202C00EB012000B206449DF8020092
:101260009DF8031000EB012000B207449DF8040034
:101270009DF8051000EB012000B280449DF80700A6
:1012800000F07F0001D20028D7D196FBF4F028802F
:1012900097FBF4F0688098FBF4F0A88089F801408F
:1012A000BDE8FC87FFE76B4606223221532000F0A1
:1012B000D9FC9DF800009DF8011000EB012028806A
:1012C0009DF802009DF8031000EB012068809DF856
:1012D00004009DF8051000EB0120A880E0E72448F9
:1012E00010B500784FF0080200284FF02D014FF0A4
:1012F00053000ED000F0B0FC0A223121532000F040
:10130000ABFC0C222C21532000F0A6FC90223821AB
:1013100008E000F0A1FC0A223121532000F09CFCDF
:101320000B222C21532000F097FC124940F20910A7
:10133000088010BD38B5054600200C468DF8000029
:1013400001466B460122532000F08CFC18B19DF839
:101350000000E52801D0002038BD05492878087034
:1013600005482060054860600548A060012038BD40
:101370002800002008040020DF12000823120008C3
:101380002112000810B54FF480442046FFF7BAF947
:10139000012805D12046FFF7C3F9B14901200870A3
:1013A00010BD30B4AE4AAF4891884389B0F91440BB
:1013B000C91A03895943C913B0F912300C44DB022E
:1013C00093FBF4F31944C161906830BC00F0C9B8D4
:1013D00038B5A34C207810B96088401C60806B46FB
:1013E0000322F621772000F03DFC9DF800009DF8D7
:1013F0000110000440EA01209DF8021008439949B9
:10140000B1F92010C1F10801C840A06038BD95486D
:101410003421008C01EB80109149C2B20020087089
:10142000F421772000F018BC38B58D4C207810B925
:101430006088401C60806B460222F621772000F015
:1014400011FCBDF8000040BAA08038BD84490020DE
:101450002E220870F421772000F0FEBB2DE9F04722
:10146000DFF8FC91044686B099F8010018B101201C
:1014700006B0BDE8F08700268DF809600125DFF889
:10148000E8A14FF400578DF8085001978DF80A60D5
:1014900001A95046FFF7D6F94FF48048CDF80480F3
:1014A0008DF8086001A95046FFF7CCF96E481A3054
:1014B00007800E210220FFF773FB8DF810600820D3
:1014C0008DF81100CDF80C808DF8125003A8FFF7AD
:1014D000E1F828208DF814000F208DF815008DF804
:1014E00016008DF8175005A8FEF725FF142001F00F
:1014F000FFFC6B460122D021772000F0B3FB594E50
:101500009DF800000321F0753184552804D0564819
:10151000183007800020ABE76B460122D1217720ED
:1015200000F0A0FB9DF8000000F00F0131760009EB
:10153000707600F05EF889F8015041F2F8102080D2
:1015400046F29050608041F28830A0804748A06009
:101550004748E06047482061474860614748A061CC
:1015600085E770B53F49CA69B1F90E30A2F57A62D4
:1015700002FB02F634136343DC12B1F90230534329
:1015800004EBE323B1F9004003EB84030C8CA3408C
:101590009B1C9D10B1F90430361353435A13B1F913
:1015A0000C30C988734302EB2342921C921002F55F
:1015B00000425143C90B401B4CF25032E2405043B1
:1015C000B0F1004F03D24000B0FBF1F002E0B0FBFD
:1015D000F1F040000112494340F6DE325143284AFF
:1015E0000914424301EB224101F6CF6100EB2110C7
:1015F00070BD00B587B06B461622AA21772000F097
:1016000031FBBDF8000041BA16480180BDF8021058
:1016100049BA4180BDF8041049BA8180BDF806106E
:1016200049BAC180BDF8081049BA0181BDF80A1055
:1016300049BA4181BDF80C1049BA8181BDF80E103C
:1016400049BAC181BDF8101049BA0182BDF8121023
:1016500049BA4182BDF8141049BA818207B000BD71
:101660002C0000206C040020000802404D140008EB
:10167000291400080F140008D1130008A313000850
:1016800043E3FFFF10B5474C4748A188FFF721F916
:1016900018B101F008FCA0600AE001F004FCA168A8
:1016A000884205D9401A3B2190FBF1F0616908801E
:1016B000E068BDE81040FFF733B8E3E7E2E72DE963
:1016C000FF41384C012510B1012811D109E04FF438
:1016D000807060804000A080E060092020701720AA
:1016E00005E065800220A080E06025700720607022
:1016F00060888DF8045000262B4F00908DF806600E
:101700008DF8056069463846FFF79CF801210220F4
:10171000FFF707FAA08800908DF804606946384604
:10172000FFF790F821780120FFF73AFAE068FEF71A
:10173000F7FFE06802908DF80C6010208DF80D0026
:101740008DF80E5002A8FEF7A5FF94F9010000F0F5
:101750001F018D4040094FF0E02101EB8000C0F8EF
:10176000005101F0B6FB3C382061BDE8FF8170B547
:10177000044601F0AEFB0B4D29693C3188420FD382
:10178000C5E90404084C69882046FFF7A9F80B2036
:1017900001F0A2FB69882046BDE87040FFF7A2B8BF
:1017A00070BD0000380000200004024008B5002091
:1017B0008DF800006B4601220A211E2000F052FA2B
:1017C00018B19DF80000482801D0002008BD012074
:1017D00008BD1CB50220009000208DF805008DF892
:1017E000040069462548FFF72DF8642001F080FBCE
:1017F000782200211E2000F02FFA322001F078FB21
:101800001CBD10B50446792200211E2000F024FAE8
:10181000322001F06DFB224601211E2000F01CFA4F
:1018200001220221BDE810401E2000F015BA10B5BB
:10183000782200211E2000F00FFA202201211E2014
:1018400000F00AFA00220221BDE810401E2000F03C
:1018500003BA1CB504466B46062203211E2000F085
:1018600001FABDF8000040BA2080BDF8020040BA7D
:101870006080BDF8040040BAA0801CBD0004024096
:10188000F0B587B004464FF4406000250590022073
:101890008DF819508DF8180001278DF81A7005A9D8
:1018A000FE4E3046FEF7CEFF04220A213046FFF7F7
:1018B0001BF804220B213046FFF716F8F84EF460AF
:1018C00000F010FAF068FFF71FF86846FFF78EF88F
:1018D00000224FF44071F068FFF7CBF8ADF80450E8
:1018E0004BF6FF70ADF80600B803ADF80C00ED48FC
:1018F00000900121F068FFF787F86946F068FFF76C
:101900001FF84FF4A060FEF711FD22208DF81000A3
:101910008DF811508DF812508DF8137004A8FEF751
:101920000AFD21208DF810008DF8115004A8FEF753
:1019300002FD07B0F0BD70B5D94DE868848A14F493
:10194000706F01D00121297014F4E06F24D0018B55
:1019500000224FF48061FFF78CF8A0051CD4E868E2
:101960000188890518D40188C9050CD50188C905E5
:10197000FCD40121FFF75CF8E86801888905FCD4F4
:10198000FFF77EFF08E00121FFF752F800224FF435
:101990004071E868FFF76DF8E868818A21F47061AA
:1019A00081820020287170BDC5E72DE9F041BC4C53
:1019B000E068818A4FF00105C9B2CA074FF00006FE
:1019C00027D0018821F4006101800121FFF742F84E
:1019D000E670607A20B1607860B9A079FF2809D0FC
:1019E00061790022E068FFF72DF8A079FF280FD079
:1019F000FF20B8E06570E079022804D1E068018832
:101A000041F40061018061790122E068FFF71AF872
:101A1000C9E08A074FF4806734D5BFF35F8FE07960
:101A2000012810D1607A70B1607860B10021E0685F
:101A3000FFF710F8BFF35F8FE068018B0121FEF71D
:101A4000F7FFA5701CE0E068008BBFF35F8FE079C3
:101A500002280DD1607A58B1607848B10021E06861
:101A6000FEF7F8FF93E03946E068FFF702F89AE0E6
:101A7000E079032804D1607A10B16078002874D12D
:101A80000122F0E74A0753D5A570627A8449497864
:101A9000CAB3C9B3E17902291FD90021FEF7DAFFE1
:101AA000E068FEF7E3FF94F9032063699854521C41
:101AB000E2700121E068FEF7BBFFA570E068FEF769
:101AC000D5FF94F9031062695054491CE17001225A
:101AD0003946E068FEF7CDFF25E00121FEF7A8FFBB
:101AE000E068FEF7C3FF94F9031062695054491C83
:101AF000E170E068FEF7BAFF94F903106269505490
:101B0000891CE1700FE000E000E009B9217A31B1F1
:101B10000121FEF78DFFE078401CE07003E0012119
:101B2000FEF77CFF6570E0680188C905FCD43AE0E7
:101B30004A061BD5FEF79AFF94F9031062695054C8
:101B4000491C48B2E070E179C01C814204D10022F6
:101B50003946E068FEF78DFFE17994F90300814290
:101B600021D100F10100E0701DE010E009061AD556
:101B700094F90320511C4BB20BD02569A95CE3708A
:101B8000FEF772FFE07994F9031088420BD100222E
:101B900069E7E370A179FEF767FF607A0028F6D164
:101BA000E0790028F3D094F90310E079401C8142D9
:101BB00009D16670A07828B100224FF44071E06826
:101BC000FEF757FF2671BDE8F081EEE6B3E6ECE6DE
:101BD0007FB5334D400047F230546871A97101213F
:101BE000297200266E72C5F810D0C5F814D0684668
:101BF000EA7129712E70102A02D9002004B070BD3C
:101C0000002103E05E5C4654491CC9B29142F9D3FD
:101C1000E868818889050ED40188C90505D4018842
:101C20008905FCD40121FEF7F9FE01224FF4407131
:101C3000E868FEF71EFF287910B1641EFBD104E0AE
:101C40001CB1287880F00100D8E76889401C6881C1
:101C5000E868FFF715FED0E707B502AB0122FFF7F2
:101C6000B7FF0EBD70B50E4D4FEA400047F230543D
:101C70006871A97100202872012169726B612B6162
:101C8000EA7129712870E8688188890515D401886E
:101C9000C9050CD401888905FCD405E00004024084
:101CA00050000020801A06000121FEF7B7FE012235
:101CB0004FF44071E868FEF7DCFE287910B1641E2D
:101CC000FBD104E01CB1287880F0010070BD688968
:101CD000401C6881E868FFF7D3FD002070BD3248E2
:101CE000408970472DE9FC474FF000094FF44068E8
:101CF0008DF8059001272D4D8DF804704446CDF8E0
:101D000000808DF8067069462846FEF79BFD214647
:101D10002846FEF7E5FD00242E1502E00A2001F01A
:101D2000DBF831462846FEF7D4FD0028F6D03146D0
:101D30002846FEF7D7FD0A2001F0CEF831462846A6
:101D4000FEF7CEFD0A2001F0C7F8641CE4B2082CAF
:101D5000E7D34FF4006421462846FEF7C3FD0A206E
:101D600001F0BAF831462846FEF7BCFD0A2001F022
:101D7000B3F831462846FEF7B3FD0A2001F0ACF86F
:101D800021462846FEF7ACFD8DF8059002208DF81F
:101D90000400CDF800808DF8067069462846FEF7ED
:101DA00051FDBDE8FC870000500000200004024007
:101DB00001884942018081884942818070471CB571
:101DC00004466B460622A8216820FFF74BFFBDF8AA
:101DD000000040BA00B2C11700EB91708010608023
:101DE000BDF8020040BA00B2C11700EB917080103C
:101DF0002080BDF8040040BA00B2C11700EB91701A
:101E00008010A0801CBD10B5642001F071F8F02294
:101E100023216820FFF720FF10B9032001F0D6F836
:101E2000052001F065F81E4820210078BDE810402B
:101E300040F00F026820FFF70FBF38B504461920A5
:101E400001F056F86B4601220F216820FFF70AFFC8
:101E50009DF80000D32801D0002038BD1148206033
:101E6000114860601148A060012038BD0C4920284D
:101E700006D0362806D04E280DD05D2804D10CE0BF
:101E8000002000E0402008700878202140F00F0278
:101E90006820FFF7E1BE8020F5E7C020F3E70000EF
:101EA00068000020071E0008BF1D0008B11D0008C3
:101EB000FEB5384C0125207878B1012822D00228BF
:101EC0001FD164208DF8000033488DF801500026A2
:101ED0004078A0B38DF8025043E07A208DF80000DE
:101EE0002E486B460222B0F90000FF21C0F1B40079
:101EF00000EBD07040108DF801006D20FFF768FEF8
:101F00002570FEBD264979208DF80000B1F900004A
:101F10000A2290FBF2F010F15A0301D5002003E0F1
:101F20005A30B42800DDB4208DF80100B1F9020068
:101F300090FBF2F010F15A0102D5002004E00EE00F
:101F40005A30B42800DDB4208DF802006B4603221D
:101F5000FF216D20FFF73CFE02202070FEBD8DF8B2
:101F600002606B460322FF216D20FFF731FE2670D1
:101F7000FEBD08B56B208DF800000A208DF8010029
:101F80008DF802006B460322FF216D20FFF720FE33
:101F900008BD000069000020C80F00204004002098
:101FA000B0020020018849420180418849424180B5
:101FB00070471CB504466B46062201211C20FFF722
:101FC00051FEBDF8000040BA00B28010C11700EB0E
:101FD000917080102080BDF8020040BA00B28010DD
:101FE000C11700EB917080106080BDF8040040BA0A
:101FF00000B28010C11700EB91708010A0801CBD52
:102000001CB54FF48040009000208DF805008DF83D
:10201000040069462648FEF715FC00222A211C20F0
:10202000FFF71AFE02220E211C20FFF715FE0322E5
:102030000F211C20FFF710FE12222B211C20FFF77E
:102040000BFE02222C211C20FFF706FE01222D216F
:102050001C20FFF701FE00222E211C20FFF7FCFDB3
:1020600005222A211C20FFF7F7FD12494FF480704A
:1020700008801CBD38B5044600208DF800006B4672
:1020800001220D211C20FFF7EDFD28B19DF8000075
:102090002A2803D01A2801D0002038BD0649216023
:1020A000064961600649A16006490870012038BDF3
:1020B000000002400804002001200008B31F0008AF
:1020C000A51F00086A00002038B504466B460222AE
:1020D0001B216820FFF7C6FDBDF8000043F29031D8
:1020E00040BA11FA80F04FF48C71B0FBF1F023305C
:1020F000208038BD81884942818070471CB50446E4
:102100006B4606221D216820FFF7ACFDBDF80000DC
:1021100040BA00B2C11700EB917080102080BDF86A
:10212000020040BA00B2C11700EB917080106080CD
:10213000BDF8040040BA00B2C11700EB91708010E6
:10214000A0801CBD10B5192000F0D2FE0022152180
:102150006820FFF781FD10B9032000F037FF294800
:102160001621007840F018026820FFF775FD002264
:1021700017216820FFF770FD01223D216820FFF73D
:102180006BFD01223E21BDE810406820FFF764BDD1
:1021900010B50446192000F0ABFE0022152168207E
:1021A000FFF75AFD002808D01748206017486060E4
:1021B0001748A0601748E060012010BD114962284F
:1021C00017D006DC0A281AD0142816D02A2809D1DC
:1021D00011E0BC2804D0B0F5807F03D1002000E0DE
:1021E000012008700878162140F018026820FFF7D7
:1021F00033BD0220F5E70320F3E70420F1E70520D3
:10220000EFE700006B00002045210008FD200008DA
:10221000F5200008C9200008818849428180704764
:102220001CB504466B46062243216820FFF71AFDC1
:10223000BDF8000040BA00B2C11700EB91708010E9
:102240002080BDF8020040BA00B2C11700EB9170C7
:1022500080106080BDF8040040BA00B2C11700EBE6
:1022600091708010A0801CBD1CB501200090002042
:102270008DF805008DF8040069465E48FEF7E2FA25
:1022800080226B216820FFF7E7FC052000F030FE7C
:10229000002219216820FFF7DFFC03226B21682050
:1022A000FFF7DAFC022237216820FFF7D5FC002275
:1022B0001A216820FFF7D0FC18221B216820FFF7A5
:1022C000CBFC10221C216820FFF7C6FC1CBD018836
:1022D000428802804942418070471CB504466B46E3
:1022E00006223B216820FFF7BDFCBDF8000040BA84
:1022F00000B2C11700EB5170C0102080BDF8020081
:1023000040BA00B2C11700EB5170C0106080BDF838
:10231000040040BA00B2C11700EB5170C010A08099
:102320001CBD35480178354809B1FF2101E04FF463
:102330000071018070472DE9FE4304460D461646A4
:10234000232000F0D5FD6B46012275216820FFF7A0
:1023500089FC002804D09DF80000682802D00020E5
:10236000BDE8FE83062201AB11466820FFF77AFC28
:102370009DF809009DF80710C007400F01F001010A
:1023800040EA41009DF805101B4F01F00101084390
:102390004FF001084FF0000904D0012826D0022890
:1023A0000DD01FE06B4601220C216820FFF75AFC7C
:1023B0009DF8000010F00F0014D0042816D087F804
:1023C00000900F4820600F4860600F48A0600F48E1
:1023D00028600F4868600F48A8600EB138783070E8
:1023E0000120BDE7052000F0F1FDEAE787F8008055
:1023F000E7E70000000402406C0000200804002011
:1024000023230008DB220008CF22000869220008ED
:1024100021220008192200082DE9F04FDFF880B2D0
:10242000DFF880E20023BBF80A10DEF804009846CB
:10243000A0EB0122BBF80400D5174FEA004CBBF813
:102440000800A0FB026703FB027400FB0540F409CF
:1024500044EA40641CEB040ABBF8064043EBE0117D
:10246000A4FB027CBBF802004FEAE2764FEAC039D7
:10247000184600FB02C504FB06554FEA172444EA40
:10248000056419EB0409BBF80C4040EB2520A4FBC4
:10249000027C1D464FEAE27605FB02C204FB0622DF
:1024A0004FEAD75444EA42244FF4FA62A218B2F534
:1024B000FA6F16DAA2F5FA635B4303EB8304631049
:1024C0004FEAA408784CA2420BDA02F2DC525243E3
:1024D000C2EBC204234402EB420404EBC20208EB49
:1024E0006208DA17BAEB030361EB0201B9EB0802E9
:1024F000DEF808404FF00005A4FB026705FB0272FE
:1025000060EBE87004FB00204FEA565242EAC0221A
:102510004FEA6050D21A60EB0100410441EAD23028
:10252000BDE8F08F10B500F073F85E49886010BD0B
:102530005C48012200784030C1B27720FFF78CBBA5
:1025400010B500F065F85749486010BD55480122A4
:1025500000785030C1B27720FFF77EBB2DE9FF41F4
:10256000054600268DF8056001208DF804004FF423
:10257000005400948DF8066069464C48FEF762F9F5
:102580004A48183004800A2000F0B2FC03AB012254
:10259000A0217720FFF766FB002823D001221E210F
:1025A0007720FFF759FB4FF42F6000F095FC0024D3
:1025B000DFF8EC80A02700BF07EB4400C1B202ABFC
:1025C000022277200296FFF74DFBBDF8080040BAC3
:1025D00028F81400641C082CEEDB314800F02AF8BF
:1025E00018B1002004B0BDE8F08142F210702880DC
:1025F00068804FF47A60A8802D48A8602D48E86074
:102600002D4828612D4868612D48A8610120E9E71F
:1026100008B56B46032200217720FFF723FB9DF8C6
:1026200000009DF80110000440EA01209DF802100E
:10263000084308BDF0B5C289002102F47F4502F0CD
:102640000F040123C5810A4630F8126006B1002349
:10265000521C082AF8DB4FF0FF36F3B90022D307EB
:1026600022F00103C35A02D0DBB2594001E081EAF3
:10267000132108230F0401D581F4C05149005B1ECA
:10268000002BF7DC521C102AE9DB2543C581C1F37E
:102690000330844201D10020F0BD3046F0BD00007F
:1026A000900400207000002024FAFFFF0008024080
:1026B0004D25000841250008312500082525000882
:1026C000192400083EB505460C466846FEF7AEFAEA
:1026D000FA48641E01940068F949B0FBF1F0401E0D
:1026E000ADF800000020ADF80800ADF80200694622
:1026F0002846FEF769FA3EBD7CB506460C461546EF
:102700006846FEF7DDF80220002100948DF80400F1
:102710000DB98DF806108DF8051069463046FEF7A4
:1027200091F8E84C022200212046FEF7DDF8022253
:1027300001212046FEF7D8F8022211462046FEF776
:10274000D3F8022203212046FEF7CEF801220F2102
:102750002046FEF7C9F8DC4C012203212046FEF793
:10276000C3F8022204212046FEF7BEF8022205210A
:102770002046FEF7B9F8022206212046FEF7B4F8FB
:10278000022207212046FEF7AFF802220821204648
:10279000FEF7AAF8022209212046FEF7A5F8CB4C45
:1027A000032206212046FEF79FF803220721204638
:1027B000FEF79AF8032208212046FEF795F8032237
:1027C00009212046FEF790F8C14C0122092120463C
:1027D000FEF78AF801220B212046FEF785F8012238
:1027E0000D212046FEF780F801220E212046FEF73B
:1027F0007BF87CBD70B51646B64B00EB800203EB50
:102800008205B54A02EB00142068FFF75BFFD4E9AC
:1028100001010022FFF770FF217B3246206800F0A3
:10282000C1FAA07B18B101212068FEF793FB0121BA
:102830002068FEF704FA207B30B1042807D008286E
:102840000AD00C2806D10AE02068343001E0206864
:1028500038306860284670BD20683C30F9E7206851
:102860004030F6E7F8B517460E469A4A00EB80016D
:1028700002EB8105984901EB00144FF6FF712068C7
:10288000FFF720FFD4E901010122FFF735FF217B8B
:102890000022206800F0CAFA01212068FEF7CFF973
:1028A000607B8DF8000000208DF8010001208DF87C
:1028B00002008DF803006846FDF73DFD2E60AF7203
:1028C000207B30B1042808D008280DD00C2809D16D
:1028D0000EE001220221206802E00122042120688A
:1028E000FEF743FB2846F8BD012208212068F7E7E0
:1028F000012210212068F3E770B5784E022130469E
:10290000FEF73BFB734D012820D004213046FEF733
:1029100034FB012826D008213046FEF72EFB012883
:102920002CD010213046FEF728FB012832D1082494
:1029300010213046FEF72CFB3046FEF709FBD5F898
:10294000A02081B22046BDE8704010470B24022130
:102950003046FEF71DFB3046FEF7F4FA81B2D5F89B
:10296000DC20EFE70A2404213046FEF711FB304655
:10297000FEF7EEFA81B2D5F8C820E3E70924082172
:102980003046FEF705FB3046FEF7E2FA81B2D5F895
:10299000B420D7E770BD70B5514E02213046FEF726
:1029A000ECFA4C4D012820D004213046FEF7E5FA20
:1029B000012826D008213046FEF7DFFA01282CD066
:1029C00010213046FEF7D9FA012832D11324102104
:1029D0003046FEF7DDFA3046FEF7BAFAD5F87C212C
:1029E00081B22046BDE870401047102402213046D5
:1029F000FEF7CEFA3046FEF7A5FA81B2D5F84021AF
:102A0000EFE7112404213046FEF7C2FA3046FEF704
:102A10009FFA81B2D5F85421E3E712240821304609
:102A2000FEF7B6FA3046FEF793FA81B2D5F8682180
:102A3000D7E770BD70B502214C072046FEF79DFA1E
:102A4000244D012812D004212046FEF796FA0128D1
:102A500017D104212046FEF79BFA2046FEF774FAB0
:102A600081B26A690120BDE870401047022120460A
:102A7000FEF78EFA2046FEF765FA81B200202A683A
:102A8000F1E770BD70B5174C02212046FEF775FACC
:102A9000104D012828D004212046FEF76EFA0128A7
:102AA0002DD104212046FEF773FA2046FEF74CFA9A
:102AB00081B2EA6B0320BDE870401047000000209F
:102AC00040420F00000002400004024000080240A3
:102AD00000100240A00400208400002000000140FB
:102AE000000401400004004002212046FEF750FA95
:102AF0002046FEF727FA81B20220AA6ADBE770BD02
:102B000070B5D64C02212046FEF737FAD44D012885
:102B10001FD004212046FEF730FA012824D00821D6
:102B20002046FEF72AFA012829D010212046FEF778
:102B300024FA01282ED110212046FEF729FA20463A
:102B4000FEF706FA81B2D5F88C200720BDE8704068
:102B5000104702212046FEF71BFA2046FEF7F2F945
:102B600081B204202A6DF1E704212046FEF710FA15
:102B70002046FEF7E9F981B205206A6EE6E70821F2
:102B80002046FEF705FA2046FEF7E0F981B206205E
:102B9000AA6FDBE770BD70B5B24C02212046FEF78C
:102BA000ECF9AF4D01281FD004212046FEF7E5F9CE
:102BB000012825D008212046FEF7DFF901282BD077
:102BC00010212046FEF7D9F9012831D110212046E5
:102BD000FEF7DEF92046FEF7BBF981B2D5F8F0200A
:102BE0000C20BDE87040104702212046FEF7D0F9C6
:102BF0002046FEF7A7F981B20F20D5F82C21F0E787
:102C000004212046FEF7C4F92046FEF79DF981B263
:102C10000E20D5F81821E4E708212046FEF7B8F980
:102C20002046FEF793F981B20D20D5F80421D8E7AC
:102C300070BD30B58C4A00239088D0809180081AEE
:102C400081B240F68C20814201D9D37030BD8648D4
:102C5000A1F2EF2440F2DB55C078AC4204D2082840
:102C600002D2824C24F81010401CD070804803809F
:102C700030BD7B4A00EB800302EB830270B57A4BD8
:102C8000D47A083303EB001318681B7B84B1D1811D
:102C90009489764D091B1182947A25F8141000242A
:102CA000D4722246194600F0C1F87148048070BD04
:102CB00091810121D172BDE870400222194600F0D5
:102CC000B5B82DE9F04706460020717901B1022020
:102CD000717801B1401C6749634FDFF89C8151F85E
:102CE000205000244FF47A792A5D02F00F0002F0A0
:102CF000F001FF2A39D0CA0605D500225F49FFF747
:102D0000B1FD082008E08A0608D5BA785C49FFF7CB
:102D1000A9FDB87800F10100B87023E04A0610D58B
:102D20003289B8FBF2F189B24A46FFF763FD0146EA
:102D30004E4A3878103242F8201000F10100387005
:102D400010E009060ED57289B8FBF2F189B24A4645
:102D5000FFF750FD0146454A7878403242F820108E
:102D6000401C7870641C142CBEDB0020BDE8F0878A
:102D70003D4A1278904205D23C4A103252F8200067
:102D8000406801607047384A5278904205D2374A0D
:102D9000403252F82000406801607047334931F8F2
:102DA0001000704770B586B006460C46154668465A
:102DB000FEF717F87020ADF800000120ADF8020012
:102DC0000020ADF804000220ADF80C00C00102950F
:102DD000ADF810007CB1042C16D0082C1DD00C2CA2
:102DE00007D169463046FDF7D2FF08213046FEF78D
:102DF00015F806B070BD69463046FDF72AFF082178
:102E00003046FDF7F8FFF4E769463046FDF74DFF21
:102E100008213046FDF7F5FFEBE769463046FDF740
:102E20007EFF08213046FDF7F3FFE2E7FEB50646D8
:102E30000C4615466846FEF77DF80120ADF8040003
:102E40000020ADF80040ADF80600ADF80800ADF880
:102E5000025069463046FEF721F8FEBD00080040EA
:102E6000A0040020000C00407C0000203006002060
:102E700044030020C401002040420F00332C00080E
:102E8000732C00081FB56846FDF706FE67490098D9
:102E9000B0FBF1F0664908601FBD66480068401C41
:102EA00064490860704700BF624801684FF0E02045
:102EB0008269604800688142F6D15F48801AA82381
:102EC000B0FBF3F001EB4103C3EBC11300EBC30014
:102ED000704758480068704730B50446FFF7E3FF75
:102EE000054600BFFFF7DFFF401BA042FAD330BD0D
:102EF00010B5044603E04FF47A70FFF7EDFF2000B1
:102F0000A4F10104F7D110BD7CB501211020FDF71B
:102F100008FE0F20009000208DF8050001208DF89C
:102F2000040000208DF806008DF80700694643482C
:102F3000FDF788FCFDF769F901214148FDF7FBFD2C
:102F4000012141F21310FDF700FE01213D48FDF77C
:102F5000E8FDFDF718FE01203849088302200883A8
:102F600008834883800238490880FFF78BFF374881
:102F700000684FF47A72B0FBF2F1B1F1807F00D3B8
:102F80001DE021F07F40401E4FF0E02250615017BD
:102F90000F22002807DA13071D0E2D4B00F00F0437
:102FA000241F1D5503E013071C0E2A4B1C5400BFA1
:102FB00000204FF0E02290610720106100BF2648FA
:102FC000FEF75EFC6420FFF793FF7CBD0446022001
:102FD0001A494883012008831DE01848406980F0A1
:102FE0000200164948610846406980F001004861C6
:102FF00040F2DB1114FB01F1881EFFF779FF4FF45B
:1030000000601149891C08801920FFF771FF4FF4F7
:1030100000600D490880E0E710B11049104A1160C6
:1030200010490B4A0C3A11607047000040420F00F3
:10303000D4010020D801002040900200001002407E
:103040000F4046001F002000180C02400000002026
:1030500018ED00E000E400E000580040EFBEADDEF7
:10306000F04F00200400FA05EC48EB4A8168531841
:10307000EB4AC2F8C430C3688B4204D9591AC2F86B
:10308000BC10836005E0C1F58071C2F8BC1000215E
:103090008160E3480121B830FDF7CDBA2DE9F04356
:1030A00097B0002480468DF8414002274FF400700D
:1030B0008DF84070DFF86C930F908DF84240012539
:1030C0008DF843500FA94846FDF7BCFB8DF84070C2
:1030D000AE028DF842400F968DF843400FA9484646
:1030E000FDF7B0FB072209214846FDF7FDFB07224B
:1030F0000A214846FDF7F8FB46208DF854008DF86C
:1031000055508DF856508DF8575015A8FDF713F906
:10311000ADF84C400C20DFF81093ADF84840ADF806
:103120004E00CDF84480ADF84A40ADF8504011A9AA
:103130004846FDF755FFDFF8F4824046FDF7CCF92D
:10314000ED06E8120095CDE90A04B94809F1040733
:10315000CDE901704020039080000490CDE9084043
:10316000CDE90664059469464046FDF73CFA012125
:103170004046FDF760FA012240214846FDF7A0FFD6
:103180004046FDF762FAA549DFF8A08208F1300851
:1031900048604046FDF7A0F9CDE906640594CDE905
:1031A000005703940894694640460994FDF71BFABA
:1031B000012210214046FDF74BFA9E4804604FF073
:1031C00001024FF080014846FDF77AFF0121484691
:1031D000FDF768FF17B0BDE8F083964810B5001FF3
:1031E000FDF733FA8D494968884201D0012010BDAE
:1031F000002010BD8948D0E90210814201D1012090
:103200007047002070478549894B4A68C2F5807035
:10321000185C521E4A6002D14FF480724A607047B7
:103220007E4A7D4BD1685854491CC8B2D0607F4853
:1032300030300068C00700D116E7704710B504466B
:1032400002E0641CFFF7ECFF20780028F9D110BDE4
:103250001FB504466846FDF71AFF00206F49ADF818
:1032600004000094ADF80600ADF80800097809B133
:10327000002100E0082141F004016F4CADF80A1074
:10328000ADF80C0069462046FDF7AAFE0121204654
:10329000FDF708FF1FBD2DE9FE4F8846814601213D
:1032A00014464804FDF747FC5C4F262002253C707D
:1032B0008DF8080001208DF809008DF80A508DF86E
:1032C0000B0002A8FDF737F8202000268DF80560D6
:1032D0008DF80450DFF864A100908DF806601CB9E9
:1032E00069465046FDF7AEFA8DF8045040208DF83F
:1032F000066000908DF80750694655465046FDF728
:10330000A1FA072205212846FDF7EEFA0722062139
:103310002846FDF7E9FA4846FFF79AFF464D012295
:1033200040F225512846FDF7D3FE2CB9012240F288
:1033300027712846FDF7CCFEC7F81080BDE8FE8F48
:1033400086E736490A78002A0CD13D4B8A699854A1
:10335000521C02F07F008861012240F2277136483A
:10336000FDF7B6BE70472D48D0E90510814201D166
:10337000012070470020704770B52F4E348840F20E
:103380002550264D044206D0286920B13046FDF76D
:1033900093FE2969884720060CD5D5E905018842A6
:1033A00009D02749095C244A121D1180401C00F0F5
:1033B0007F00686170BD3046BDE87040002240F279
:1033C0002771FDF785BE70B51E4E348840F225503A
:1033D000124D044206D0E86920B13046FDF76CFE7C
:1033E000E969884720060DD5D5E9080188420AD049
:1033F00013498031095C134A121D1180401C00F0F2
:103400007F00286270BD3046BDE87040002240F267
:103410002771FDF75DBE000090070020DC01002051
:103420000060024000000240001001408864024039
:10343000900600208C60024000440040000C0240D6
:1034400090080020004800402DE9F0417E4D0446E0
:1034500001262878F70280B9FFF73BFDA9683231D1
:10346000884207D379482E700780FFF732FDA860A5
:10347000BDE8F08128780028FAD0FFF72AFDA96876
:1034800021448842F4D3002028707048801E0780B1
:10349000FFF71FFDA8606E48017809B1491E017051
:1034A0006E70E5E7F8B5684D8DF800008DF80110F5
:1034B0008DF802208DF80330A8791DF800104429FA
:1034C0002FD04C292BD04D2927D04E292CD0322457
:1034D0000026032806D274B12046FFF7B5FFA8796D
:1034E000032808D3FFF7F5FCA968001B884202D91E
:1034F0005748AE7106706878012801D0002C0BD1B6
:10350000A879032801D2401CA87150496E70891E09
:103510002E704FF400600880F8BD6424D8E7C824FA
:10352000D6E74FF4FA64D3E70024D1E72DE9F0475A
:10353000DFF820A10446444D9AF80B004FF0010932
:10354000002610B185F8029000E0AE704FF40070D4
:1035500001F013FC404F18B3404941484FF00208B6
:1035600091F89F30B0F9000003EB830282420FDA3A
:1035700097F801C0BCF1000F0AD085F8049091F8CB
:10358000A010194401EB8101814201DA85F8048021
:10359000824203DA797809B985F8048000B92E717E
:1035A000102001F0D5FB40B19AF8071011B99AF834
:1035B000080008B1F87AA8B1EE702879022814D072
:1035C000012817D0E878012817D0A878012817D04B
:1035D000042C19D0022C1ED0012C1ED06879012891
:1035E0001ED022E085F80390E7E74E2244231146DF
:1035F0004C200DE04D234C2208E04D234E2201E0EB
:103600004D235322532102E044234D224D215320C8
:10361000BDE8F04746E7442305E044234E22F5E7A2
:10362000787810B14E234D22ECE70948007818B1A4
:10363000BDE8F047322007E704492E70891E4FF499
:1036400000600880BDE8F087040200201A0C0240E8
:1036500038030020FA0F0020C80F0020C009002006
:103660004403002070B51546B0FBF5F60446A842A9
:1036700003D33046FFF7F6FF014605FB1640FEA2D6
:10368000105C0870481C70BD70B50C46911E232953
:1036900000D30A220025002804DA2D212170611CA4
:1036A000404200E02146FFF7DDFF0570204670BD77
:1036B00070B504462DED0C8B00E0641C20782028AA
:1036C000FBD00928F9D09FEDF6ABC1B22D29B0EEA1
:1036D0004ABAF0EE6ABA02D02B2802D002E09FED7F
:1036E000F2BB641C9FEDF28B9FEDF3CB11E000BFAA
:1036F00006F02EFD41EC190B53EC1C2B51EC180B72
:1037000006F047FC53EC192B06F09DFB41EC180B1F
:10371000641C207830380928EAD920782E2822D154
:10372000B0EE4C9AF0EE6C9A641CB0EE4CDAF0EE0F
:103730006CDA14E006F00CFD53EC192B06F099FC42
:1037400053EC182B06F07FFB41EC180B53EC1D2BB0
:1037500051EC190B06F01DFC41EC190B641C207890
:1037600030380928E6D92078652801D045284CD181
:1037700014F8010F00262D2802D02B2801D001E0DB
:103780000126641C00256FF02F0105E005EB850282
:1037900001EB42028518641C22781046303A092A4F
:1037A000F4D94FF49A7085420BD905469FEDC40BAE
:1037B00051EC1A0B53EC102B06F0EBFB41EC1A0BFF
:1037C000323D322DF2D29FEDC09B082D13D353EC26
:1037D000192B51EC1A0B06F0DCFB41EC1A0B083DDF
:1037E000F3E700BF53EC1C2B51EC1A0B06F0D1FB96
:1037F00041EC1A0B6D1E002DF4D136B153EC1A2B8F
:1038000051EC180B06F035FC05E053EC1A2B51EC8B
:10381000180B06F0BEFB53EC1B2B06F0BAFB06F0B0
:10382000EAFCBDEC0C8B00EE100A70BDF0B587B061
:103830000026074600960196A5A5DFEDA60AB5EE7F
:10384000C00A0296F1EE10FA02DD30EE200A01E025
:1038500030EE600ADFEDA00A20EE200ABDEEC00ABD
:1038600010EE104A002C01DD204600E060420A22E2
:1038700003A9FFF709FF002C01DB202000E02D2029
:103880008DF8000003A806F0B0FA302401280AD011
:1038900003A806F0AAFA02280CD003A806F0A5FA9D
:1038A00003280CD00DE08DF801408DF802408DF812
:1038B000034006E08DF801408DF8024001E08DF8EC
:1038C000014003A9684606F057FA684606F08DFAEB
:1038D000C01EC4B222466946384606F071FA3E550B
:1038E0002946384606F048FA0DEB0401384606F042
:1038F00043FA384607B0F0BD70B505460C46086877
:1039000006F073FA024621682868BDE8704006F0A8
:1039100074BA70B5054606F068FA704E10F0FF0FE5
:1039200010D0284606F082FA04460F2818DA202123
:10393000284606F051FA06F079FA06EB4401A1F8A0
:103940006A0070BD5FF0000406EB44002146B0F849
:103950006A2063A004F03CFE641C0F2CF4DB70BDF5
:10396000BDE870400F2161A004F032BEF0B587B011
:1039700000240546264600940194029406F035FA88
:10398000564F10F0FF0F4ED0042262A1284606F0D9
:1039900034FA00286BD02E46284606F047FA451E1A
:1039A0000C2D65DA2021304606F016FA060008D004
:1039B000701C0646FFF77CFE07EB0510012480ED26
:1039C000460A2021304606F007FA060008D0461CB9
:1039D0003046FFF76DFE07EB0510641C80ED470ACB
:1039E0002021304606F0F8F9060008D0701C064683
:1039F000FFF75EFE07EB0510641C80ED480A2021EE
:103A0000304606F0E9F938B1401CFFF751FE07EBEC
:103A10000510641C80ED490A042C2AD03FA000BF89
:103A2000FFF70CFC66E74CA0FFF708FC5FF0000412
:103A300007EB041595ED460AB5EEC00AF1EE10FA53
:103A400018D0761C611C4FA004F0C2FD95ED460A0B
:103A500003A8FFF7EBFE01464CA004F0B9FD95ED7D
:103A6000470A03A8FFF7E2FE014648A090E0E4E021
:103A70000AE105E1A5E00000303132333435363754
:103A800038394142434445464748494A4B4C4D4EDC
:103A90004F505152535455565758595A0000000030
:103AA000000000000000F03F000000000000F0BF38
:103AB00000000000000000000000000000002440A2
:103AC0009A647EC50E1B514A0000000084D79741BE
:103AD0002E0000006F12033A00007A44C009002053
:103AE0006175782025752025750D0A00496E76616F
:103AF0006C6964204665617475726520696E6465E1
:103B0000783A206D757374206265203C2025750D10
:103B10000A0000006C6F61640000000057726F6E55
:103B200067206E756D626572206F662061726775C1
:103B30006D656E74732C206E65656473206964789E
:103B40002074687220726F6C6C20706974636820D6
:103B50007961770D0A000000437573746F6D206DF5
:103B6000697865723A200D0A4D6F746F7209546856
:103B70007209526F6C6C09506974636809596177F6
:103B80000D0A00002325643A09000000257309008E
:103B900004F01EFD95ED480A03A8FFF747FE014615
:103BA000AFF2180004F014FD95ED490A03A8FFF7E1
:103BB0003DFE0146F7A004F00BFD641C0C2CFFF643
:103BC00037AF00201BE000BF07EB00119DED000A9E
:103BD000D1ED470A401C30EE200A8DED000A9DED24
:103BE000010AD1ED480A30EE200A8DED010A9DED63
:103BF000020AD1ED490A30EE200A8DED020AB042E8
:103C0000E2DBE6A0FFF71AFBE84E00246D4600BF9A
:103C100005EB840090ED000AB0EEC00A10EE100A29
:103C2000B04201DDE2A000E0E2A0FFF707FB641C68
:103C3000032CEDDBAFF2B800F2E62021284606F0B7
:103C4000CBF800283FF4EEAE401C054606F0CDF858
:103C5000D94FC6B2002400BF57F8241031B1324604
:103C6000284606F0CAF818B1641CF5E7D3A0D7E6D9
:103C7000204603F053F857F82410D6A004F0A8FC0F
:103C8000C5A0FFF773FE35E60C21D7A004F0A0FC19
:103C900030E610B5DEA0FFF7D1FA012001F01AF8E6
:103CA000E2A0FFF7CBFA0A20FFF722F9BDE81040A7
:103CB0000020FFF7B1B97CB504460D46007900211C
:103CC000062814D2DFE800F003060A0D111EA068D2
:103CD00001780CE0A06890F9001008E0A068018865
:103CE00005E0A068B0F9001001E0A0680168D3A069
:103CF00004F06EFC002D04D0D4E90312D0A004F02F
:103D000067FC7CBDA06890ED000A6846FFF78EFD59
:103D10000146CDA004F05CFC002DF2D094ED030A26
:103D20006846B8EEC00AFFF781FD0146C7A004F05F
:103D30004FFC94ED040A6846B8EEC00AFFF776FD22
:103D40000146C2A004F044FC7CBD2DE9F041C0A0B6
:103D50002DED048B84B004F03BFC8FA0FFF7D9FD60
:103D6000C74D9549687901EB800050F8041CC5A047
:103D700004F02EFC95ED460AB5EEC00AF1EE10FAFD
:103D80005CD0002405EB041090ED468AB5EEC08AA5
:103D9000F1EE10FA4ED000F58E70611CD0EC038A63
:103DA000BBA004F015FCB5EEC08AF1EE10FA02D209
:103DB000B9A004F00DFC6846B0EE480AFFF736FDE6
:103DC0000146A1A004F004FCF5EEC08AF1EE10FA61
:103DD00002D2B1A004F0FCFB6846B0EE680AFFF71F
:103DE00025FD014698A004F0F3FBB5EEC09AF1EE74
:103DF00010FA02D2A8A004F0EBFB6846B0EE490A24
:103E0000FFF714FD014690A004F0E2FBF5EEC09A26
:103E1000F1EE10FA02D2A0A004F0DAFB6846B0EE90
:103E2000690AFFF703FD01465AA004F0D1FB641CA8
:103E30000C2CA7DB611C99A004F0CAFB00F0AAFFC0
:103E40005D4F00240646503757F8241021B198A042
:103E500004F0BEFB641CF7E700244FF0010800BF2C
:103E600057F8241041B108FA04F0304202D094A06F
:103E700004F0AEFB641CF3E7954A002069462C1859
:103E8000135C94F88C40401C08280B55F7DB00228B
:103E90000A5490A004F09CFB914E002404EB840093
:103EA00006EB800556F820108EA004F091FB00214F
:103EB0002846FFF700FF4BA0FFF7C0F9641C702CE9
:103EC000ECD304B0BDEC048BBDE8F08110B588A044
:103ED000FFF7B4F9002000F0ABFD88A0FFF7AEF9C2
:103EE0000A20FFF705F8BDE810400020FFF794B85E
:103EF00010B5044685A0FFF7A1F93021894805F0E7
:103F00002FFF894900200860884908702046BDE8D5
:103F10001040DBE72DE9F047064605F066FF054651
:103F200000F038FFDFF8909007464FF0010809F1E4
:103F3000500955B12A467EA1304605F05EFFC8B152
:103F4000307800272D2824D011E17BA0FFF776F9E7
:103F5000002445464FEA090656F8241041B105FAF7
:103F600004F0384202D079A004F032FB641CF3E77D
:103F70001CA008E176A0FFF761F900244FEA0905CB
:103F800055F824100029F3D070A004F021FB641C24
:103F9000F6E7E9E025730D0A0000000053616E6941
:103FA000747920636865636B3A0900000AD7233C83
:103FB0004E4709004F4B09009CBD0008496E7661D1
:103FC0006C6964206D6978657220747970652E2E35
:103FD0002E0D0A004C6F61646564202573206D69A5
:103FE000782E2E2E0D0A00004D6F746F72206E75A4
:103FF0006D626572206D75737420626520626574F0
:104000007765656E203120616E642025640D0A009D
:10401000526573657474696E6720746F2064656699
:1040200061756C74732E2E2E0D0A00005265626F3E
:104030006F74696E672E2E2E00000000256400004C
:1040400020256420256400002573000020257300CE
:1040500043757272656E7420436F6E6669673A20AD
:10406000436F70792065766572797468696E672030
:1040700062656C6F7720686572652E2E2E0D0A00C2
:10408000C00900206D697865722025730D0A000053
:10409000636D69782025640020000000636D6978F5
:1040A00020256420302030203020300D0A00000010
:1040B00066656174757265202D25730D0A00000018
:1040C000666561747572652025730D0A0000000035
:1040D000A8C700086D61702025730D0A000000005C
:1040E000E8BE0008736574202573203D20000000A1
:1040F000536176696E672E2E2E0000000D0A526500
:10410000626F6F74696E672E2E2E00000D0A4C656B
:104110006176696E6720434C49206D6F64652E2E71
:104120002E0D0A00900900201002002045040020F6
:104130006C69737400000000456E61626C656420F8
:1041400066656174757265733A20000025732000FE
:10415000417661696C61626C652066656174757237
:1041600065733A20000000000127761C6D1E0024B4
:1041700059F8241031B12A46304605F03EFE30B1E0
:10418000641CF5E7F3A0BDE8F047FFF757B808FA5D
:1041900004F01FB100F0F9FDF5A002E000F08AFC88
:1041A000F6A0FFF74BF859F82410AFF21820BDE83D
:1041B000F04704F00DBA70B50024F3A0FFF73EF805
:1041C000F74D00BF04EB440005EB80014A6855F849
:1041D0002010F4A004F0FCF9641C0D2CF2D370BD87
:1041E0003EB5054605F001FE08281DD10024285DD6
:1041F00005F074FD2855641C082CF8D30024EB4806
:10420000295D05F0E9FD28B12819295D401C05F05C
:10421000E3FD18B1E6A0FFF711F83EBD641C082CC1
:10422000EDD3284600F07EFBE9A0FFF707F8DF4B4F
:10423000ED4A0020694615181C5C95F88C50401C0E
:1042400008284C55F7D300220A54AFF2B82004F0E6
:10425000BFF93EBD2DE9F041804605F0C6FDD04EC8
:10426000E14F10F0FF05A6F1B00612D02A46AFF2DA
:104270004011404605F0C1FD90B1002456F82410CD
:10428000F9B12A46404605F0B8FD00B3641CE4B21B
:10429000F4E7787906EB800050F8041CD3A01BE00B
:1042A000D7A0FEF7CBFF002456F8241031B1AFF2AF
:1042B000641004F08DF9641CE4B2F5E7AFF2DC2081
:1042C00001E0AFF20830BDE8F041FEF7B7BF601C77
:1042D000787156F82410CFA0BDE8F04104F078B909
:1042E0002DE9F04180462DED028B05F07EFDAC4FAF
:1042F000060007F19C072BD0012E03D198F800008F
:104300002A2825D0C8A1404605F044FD002838D011
:10431000401C044605F08AFD08EE900A2046FFF78F
:10432000C7F9B0EE408A002404EB840607EB86054B
:1043300057F8260005F059FD024657F8261040466A
:1043400005F05BFD00B3641C702CEDD3B7A057E003
:10435000BEA0FEF773FF002404EB840007EB80058A
:1043600057F82010AFF2802004F032F93146284689
:10437000FFF7A1FCAFF29430FEF760FF641C702CD5
:10438000EAD3BDEC028B9FE504EB840007EB8001D0
:1043900091ED030AB8EEC00AB4EEC80AF1EE10FAC5
:1043A0002DD891ED040AB8EEC00AB4EEC80AF1EEB9
:1043B00010FA24DB0979052901D0B0EE688A0629B4
:1043C00011D2DFE801F0030308080D0DAA6818EE0A
:1043D000101A117007E0AA6818EE101A118002E096
:1043E000A96881ED008A57F820109EA004F0F0F82B
:1043F000BDEC028B2846BDE8F04100215BE49CA0A7
:10440000BDEC028BBDE8F041FEF718BF2DE9F0418D
:10441000FEF75FFD4FF47A71B0FBF1F19E4803782F
:104420009E4802789EA004F0D3F800F0A3FC054655
:10443000AB48AC490068B0FBF1F1ABA004F0C8F8A0
:10444000574F002401262C3F57F8241051B106FA8B
:1044500004F0284203D0AFF20C3004F0B9F8641C29
:10446000E4B2F1E7012000F073FCA8B1A64C4C487F
:104470002178143850F82110A4A004F0A9F820786D
:10448000022809D1584890F85C0008B16F2100E07B
:104490006E21A1A004F09CF8AFF2B840FEF7CEFE6A
:1044A000FDF71DFC02469D480188BDE8F0419CA037
:1044B00004F08EB8A3A0FEF7C1BE2DE9FF5FDFF8C0
:1044C000B49299F8000038B9012189F80010AAA027
:1044D000FEF7B4FE00F0FAF9DFF8D4A2DFF8D4B2A8
:1044E000FEF77BFE002833D0FEF78DFE092806D0AC
:1044F0003F2804D0DAF80010554631B384E1284D46
:1045000000273E4605F19C08DAF800400CE000BFA9
:10451000DAF8002022B1A748296805F06EFC10B92E
:1045200007B92F462E460C354545F1D377B1504695
:104530005D4601683A683368525C5B5C9A4205D11B
:104540002AB16A54491C0160F3E75BE13AE133E1C7
:10455000BAE10000496E76616C6964206665617439
:10456000757265206E616D652E2E2E0D0A0000009D
:1045700044697361626C656420000000456E61628D
:104580006C65642000000000417661696C61626CBA
:104590006520636F6D6D616E64733A0D0A000000F3
:1045A0004CBE000825730925730D0A00A8C7000832
:1045B0004D75737420626520616E79206F72646539
:1045C00072206F662041455452313233340D0A0057
:1045D00043757272656E742061737369676E6D6581
:1045E0006E743A2000000000C0090020437572720A
:1045F000656E74206D697865723A2025730D0A0026
:10460000417661696C61626C65206D697865727371
:104610003A2000004D697865722073657420746FCC
:104620002025730D0A0000003D0000004552523A5B
:1046300020556E6B6E6F776E207661726961626C69
:1046400065206E616D650D0A000000004375727291
:10465000656E742073657474696E67733A200D0A11
:104660000000000025732073657420746F20000023
:104670004552523A2056616C7565206173736967C3
:104680006E6D656E74206F7574206F662072616E3A
:1046900067650D0A00000000E703002040030020CA
:1046A00053797374656D20557074696D653A202572
:1046B00064207365636F6E64732C20566F6C746135
:1046C00067653A202564202A20302E31562028257F
:1046D00064532062617474657279290D0A000000C8
:1046E0000000002040420F004350552025644D48F3
:1046F0007A2C2064657465637465642073656E73D9
:104700006F72733A200000000004002041434348C8
:10471000573A2025730000002E2563004203002035
:104720004379636C652054696D653A2025642C20BB
:10473000493243204572726F72733A2025640D0A24
:10474000000000004166726F333220434C492076EE
:10475000657273696F6E20322E3120417072203184
:10476000302032303133202F2031393A30343A344E
:1047700033000000450400200D0A456E746572691F
:104780006E6720434C49204D6F64652C207479700E
:10479000652027657869742720746F2072657475A9
:1047A000726E2C206F72202768656C70270D0A00CE
:1047B000100200209009002020220BF80120491C43
:1047C000CAF80010DAF80000554608B1B7420FD019
:1047D00040A0FEF733FD06E03868FEF72FFD092004
:1047E000FEF71EFD0C37B742F6D900F06FF8002433
:1047F0005E4628688442BFF473AE305DFEF710FD5C
:10480000641CF6E7042812D00C2816D019B10A2827
:1048100017D00D2815D07F2840D03029EBD2202882
:10482000FFF45EAE7E283FF65BAEB1B344E004B069
:104830002A48BDE8F05FFFF75BBB29A0FEF7FEFC4E
:1048400028E0AFF66000FEF7F9FC286800265F4616
:104850000BF800602548CDE9000B0C230D222449FC
:10486000029601A805F040FA040007D0206805F080
:10487000BCFA3844A168401C884702E01DA0FEF73E
:10488000DDFC3021154805F06BFA2E6099F8000028
:10489000002819D000F01AF822E60BE00029FBD01E
:1048A000491E0020CAF800100BF801001AA0FEF7FC
:1048B000C5FC15E62028EFD00BF80100491CCAF80A
:1048C0000010FEF7ADFC0BE6BDE8FF9F13A0FEF75E
:1048D000B5BC00000D1B5B4B0000000090090020E0
:1048E0001B5B324A1B5B313B31480000F938000842
:1048F0004CBE00084552523A20556E6B6E6F776E73
:1049000020636F6D6D616E642C207472792027684E
:10491000656C702700000000082008000D0A2320A5
:10492000000000002DE9F04105460446FA4EFB4F19
:1049300009E0F94805F050FA20B1611B801B3844AA
:1049400080F88C10641C21780029F2D1BDE8F08138
:104950002DE9F05F4FF4EE72F149F04805F0E7F908
:10496000EE48F04E002190F82D2090F82C3040F6C3
:10497000C41400BF11FB01F5193D554305F6C415DC
:104980004D435D4395FBF4F526F81150491CC9B21F
:104990000629EFD390F82E2090F82FA0B0F8A6307B
:1049A000B0F8A490DFF880B300214FF00A0ECAF1EE
:1049B000640C02EB8206A3EB090800BF01EB810344
:1049C000C2EB43040123002C03DDC2F16403DBB21C
:1049D00001E000DA134614FB04F70AFB07F513FBAA
:1049E00003F395FBF3F3634403FB04F393FBFEF340
:1049F00003EB46031BB208FB03F34FF47A7593FBFA
:104A0000F5F34B442BF8113001F10101C9B20B2928
:104A1000D4D3B0F8C810B0F8CA20914203D3B0F88C
:104A2000CC20914200D91146A0F8C810BDE8F09FF3
:104A30002DE9F041BD49B94D4FF4EE760978297062
:104A400080466E80BE2100202971EF2185F8D811A3
:104A5000294685F8D90101F5EE7202E011F8013B13
:104A600058409142FAD385F8D901FBF75FFEF32055
:104A7000FBF7DEFE02213820FBF787FE08280AD16B
:104A8000A74F0024E0192959FBF7B5FE082802D1E9
:104A9000241DB442F6D3FBF754FEFFF759FFB8F1DB
:104AA000000F06D0BDE8F041012214210F2002F0D2
:104AB00087BC4BE799498A6802438A6070472DE9B1
:104AC000F05F95484FF4EE710C30B0E80007934862
:104AD00005F046F99548914C002500782070032098
:104AE00060710220A560FFF7E5FF2820A0731E205B
:104AF0002076172084F822002821E1730C341E212F
:104B00006173E075372020712D22A2730B20607134
:104B10000F21E17307216176A0711426E671082048
:104B20006074E2760E202072A67450202077462012
:104B300060720A27E77466772820A072632084F8E1
:104B4000200084F821604FF0320B84F822B0A4F1E9
:104B50000C044FF00400C4F84680C4F84A9004F8EE
:104B60004EAF6570A070E770A4F8C6B04FF4C8707F
:104B7000E0804FF02A00A0804FF00100A0734FF0BA
:104B80001500E073A4F14E049FED690A84ED180A44
:104B90009FED680A4FF0200084ED190A04F17804B3
:104BA00004F8100C644844F8200C4FF06E00207498
:104BB0004FF02B0060744FF02100A0745FA0FFF74E
:104BC000B1FEA67740F2DC50208440F24C41618473
:104BD00004F14C0440F26C7124F8281CA4F1260462
:104BE0004FF0C808677084F802804FF49661A18086
:104BF00040F27E41E18040F23A7121814FF47A71B6
:104C0000618104F126044FF4F57124F81A1C24F88C
:104C100018BC4FF00101A170A0804FF47F71E180BA
:104C20004FF4FA6CA4F808C06181A08140F2BC7214
:104C3000E28121826082A282A575E57525764FF01A
:104C400001036376A3764FF0FF03E3764FF0010391
:104C50002377E18320846284A184E08422856377C2
:104C600084F82A7084F82B7084F82C30E185A4F83D
:104C700030C06086A186A4F836C0208784F83A50F8
:104C80004FF4E130E063A4F8408004F8426F4FF045
:104C90001E0161704FF00101A1704FF06401A1800D
:104CA000A4F142044FF49671A4F84810E0649FED1B
:104CB000260AA4F1C4044FF0000000BF04EB001169
:104CC00000F1010081ED460A0C28F7DBBDE8F05F3A
:104CD0000020ADE630B41249144C00220B78257840
:104CE0001446AB4213D14B88B3F5EE7F0FD10B794D
:104CF000BE2B0CD191F8D831EF2B08D101F5EE7312
:104D000011F8015B6A409942FAD302B90124401EAE
:104D100004421BD130BCD2E6A8C70008C00900205D
:104D200000000608D80F0020E40F00201402002025
:104D30009A99193FF6287C3F0314140041455452B8
:104D400031323334000000000000000030BC7047F6
:104D500012494968014201D0012070470020704784
:104D60000E494A6802434A6070470C494A688243C8
:104D70004A6070470948406870470949896801429C
:104D800001D0012070470020704705498A6882439E
:104D90008A60704702488068704700001402002053
:104DA000C009002070B50446FE4D09E0FEF7C9FABF
:104DB00095F8FE00012802D10420FEF799F8641C42
:104DC00020780028F2D100BFFEF7CDFA0028FBD0F2
:104DD000BDE870401E20FEF78BB844F25061884257
:104DE00001DDA0EB4100F049884202DA48F6A0411B
:104DF0000844704710B5546891ED001A041B00EE8A
:104E0000104AE84CB8EEC00AC0EE010AC2ED040A2E
:104E100094F8064100EE104AB8EE400A9FEDE31AFE
:104E2000F7EE001A20EE010A81EE801A91ED000AD9
:104E300071EE001A80EE211A92ED020A70EEC00A9D
:104E400001EE200A82ED040A506082ED020AD3EDE1
:104E5000020A20EE800ABDEEC00A10EE100A10BD54
:104E600000EE900A93ED011A92ED000AF8EEE00AC6
:104E700061EE200A91ED001A00EE810A82ED000A2F
:104E8000D3ED030AB1EE601AB4EEC10AF1EE10FAE6
:104E900002D2B0EE410A06E0B4EEE00AF1EE10FAFA
:104EA00001DDB0EE600A82ED000ABDEEC00A10EE30
:104EB000100A704710B5BE4CD4E90D01401AFFF737
:104EC0008CFF0028D4E90D01A0EB010002DDFFF703
:104ED00084FF02E0FFF781FF404241F294118842D3
:104EE0002CDAD4E90D01401A00EE100AB8EEC00A1F
:104EF000DFEDB00A20EE200A06F0A2FCD4ED0F0A86
:104F0000AD49F8EE600A20EE200ABDEEC00A10EEB0
:104F1000100A00B22082884202DB4942884200DD4A
:104F20000846616B084448F6A0416064884200DD91
:104F3000401A002800DA0844606410BD606BFBE78B
:104F40002DE9F04F81462DED028B83B0FFF7B2FFC4
:104F5000974842F22831406C081A00EE100AB8EE69
:104F6000C00ADFED940A20EE208AB0EE480A05F070
:104F700061FD8DED010AB0EE480A06F061FC8C4E31
:104F80000024DFF838B2DFF838A28DED000A3036A1
:104F900087488C491A3030F9140000EE100A684630
:104FA00000EB8400F8EEC00A00EE109A90ED001AB3
:104FB000B8EEC00A51EE000ABDEEE00A10EE100A8B
:104FC00000B226F81400884202DB4942884200DD24
:104FD00008467A4926F81400603900F0EFFD04EB2A
:104FE0008408764B724907460BEB880536F91400A6
:104FF000603B2A462831FFF733FF704B6C4907446A
:1050000036F91400603B2A462831FFF7F3FE384496
:1050100000B269492AF81400884203DB49428842F9
:1050200000DC01462AF81410644829682838641CFA
:1050300040F82810022CABDB03B0BDEC028BBDE8BE
:10504000F08F2DE9F05F5A4E00245036DFF870A142
:10505000A6F1200BA6F13609584956F824008039EC
:1050600000F0ACFD39F814105D46401A534900B207
:105070002BF81400703900F0A1FD074635F9140033
:1050800056F8241004EB840808444C49283901EBF5
:105090008805A1F1480346492A462831FFF7E0FE7A
:1050A0003844464B42492AF81400574656F8240023
:1050B000703B2A462831FFF79DFE4349884202DBB8
:1050C0004942884200DD084639F91410313162291D
:1050D00000D8002037F81410084400B2364927F8E9
:1050E0001400884202DB4942884200DD084627F866
:1050F000140032482968641C40F82810022CABDBED
:10510000BDE8F09F09681B68C91A00EE101A28490B
:10511000B8EEC00AD1ED0B0A503120EE200ABDEEE8
:10512000C00A81ED010A00681268801A08607047A1
:1051300070B52DED028B126800680968101A00EE38
:10514000100A1868DDE90654F8EEC08A401A00EE2D
:10515000100A1748B8EEC00AD0ED0B0A20EE208ADC
:1051600028EEA80A08EE080A06F026FCDFED170A6A
:1051700020EE200AF0EE480ABCEEC00A85ED000AD7
:10518000B1EE680A05F032FB9FED111ADFED110A4E
:1051900040EE010ABDEEE00A10EE100A2060002881
:1051A0001EDA19E0C0090020B0B9FFFFDB0FC940CB
:1051B0001C020020D302373948F4FFFF2C0C0020DA
:1051C0008803002018FCFFFF30F8FFFF2C7D8E3F86
:1051D000A00CB34500A00C4648F6A041084420604E
:1051E000BDEC028B70BDF0B5FA49F948D1E9003247
:1051F000447800F1480CCCB3D0ED0A0AB7EE001A9F
:10520000DCF8041081EE200A511A00EE901A90ED9D
:105210000B1A00F11A06F8EEE00A60EE810A60EE61
:10522000800AFDEEE00A10EE901A0CB2DCF80010D5
:10523000591A00EE901AF8EEE00A20EE800ABDEE50
:10524000C00A10EE101A0DB200F12401B1F902707B
:105250003C4404EBD47464107480B1F900703D4494
:1052600005EBD5756D1035804C800D8001214170A6
:10527000CCE90032F0BD00EE100A10B5B8EEC00A5D
:10528000002801DCB1EE400A9FEDD31AC0EE010AFE
:105290009FEDD20A20EE800A05F0CCFBCC4880EDD1
:1052A0000B0A10BD10B5CE4CE07A002811D0CD48C5
:1052B000007805280DD3C749CB4A086810604968B3
:1052C0005160FFF7D8FFC948C14900888882012092
:1052D000207310BD30B5BE49C14B01248D7AC4483E
:1052E0000022022D07D0032D19D0062D25D0122D16
:1052F00035D0002030BDB74DD0F804C0C5F804C08B
:10530000D0F808C0C5F800C000694FF47A7590FB6A
:10531000F5F0B84D2880C87AD8724C732AE04479E9
:10532000E40702D00079032803D00020C87210B12E
:1053300020E00120FAE7DA721CE0C47AE40702D028
:10534000847A032C03D00024CC7214B102E001242F
:10535000FAE7DA72A34B90F82F0018700AE0A64D16
:1053600043692B80806942F2107390FBF3F0A34BEA
:1053700018808C73487B8B7B1840BBD04A738A7330
:10538000012030BD2DE9F04791494FF000080A4651
:105390004E7AD579137A2C18B2F816C04FF001095D
:1053A000E4B24246092E56D2DFE806F00805101690
:1053B0001D2434444A00622803D04A72B52802D022
:1053C00049E0022034E081F8099044E003224A7267
:1053D0000873C87108723EE004224A72CC71E21868
:1053E0000A72887237E005224A72CC71E2180A729A
:1053F000C88230E006254D720CEB0020CC712344AE
:1054000080B20B72C882B0F5007F01D9CA824A729D
:105410000A8320E0CC71E2180A720A8B402A01D27A
:10542000734B9854521C90B20883604513D10720E7
:10543000487210E008234B7285420CD04A720AE091
:105440004A72834207D16E4880F80090FFF742FF0E
:1054500008B14FF001084046BDE8F08770B503463B
:1054600000200246054611E02E2C04D1521C0029D2
:105470000FD054181D559C5C00EB80004000A4F137
:105480003006092E01D830382044521C9C5C002C78
:10549000EAD170BD2DE9F0410026804637463546F9
:1054A000044604F017FC006800E0641C2178415CAD
:1054B0002029FAD009E01EB106EB860149060E0E3E
:1054C00018F8011B303E3144CEB2A4EB080102298A
:1054D000F1DC09E01FB107EB870149060F0E18F850
:1054E000011B303F3944CFB24445F3D821782E29EF
:1054F0000FD1641C5FF0000105EB85025500227896
:10550000835C202B02D1303D1544641C491C0429C6
:10551000F2DB3C480621474305EBC50000EB0510D4
:1055200007EB8000B0FBF1F037494E4300EBC610AB
:10553000BDE8F0812DE9F0470025254E04462F46B1
:105540004FF00109242815D029483146E038C978A0
:105550002C2C13D02A2C11D032460D2C527970D01D
:105560000A2C6ED00F2902D24454491CF170002A33
:1055700068D0ACE0B770F7703771A8E04754B178E5
:10558000B8463A4629B1B279012A3FD0022A7CD0E6
:1055900093E0B2710178472907D14178502904D1AD
:1055A0008178472902D0522909D086E0C17847295D
:1055B00004D10079412801D186F806907DE0C178B8
:1055C0004D297AD10079432877D10220B07174E057
:1055D0001C020020B80300208096184B35FA8E3C40
:1055E000C80F002041030020C00300204004002019
:1055F0007C0C0020F4030020F6030020E4030020CC
:10560000E603002040420F002D310100F84F02292F
:105610000CD003290ED0042915D0052917D006294E
:105620001CD0072924D0092929D046E0F148FFF7EA
:1056300031FF04E0007853283FD138684042386099
:105640003BE051E040E0EB48FFF724FF04E0007846
:10565000572832D17868404278602EE000783028B0
:1056600001D9012000E00020E349C87225E00CE0E8
:105670000021E048FFF7F2FEE04908701DE000213C
:10568000DC48FFF7EBFEDE4916E0072902D00829C7
:105690000DD012E00121D748FFF7E0FE41F218419A
:1056A00048434FF47A71B0FBF1F0D64904E0012190
:1056B000D048FFF7D3FED4490880B078401CB070C2
:1056C00086F803802A2C0CD0307960403071B07994
:1056D00010B1CE4A82F800900DB1012800D0002010
:1056E000BAE686F80590F2E772B18046007800F0DD
:1056F00098FA040198F8010000F093FA20443179F7
:10570000C0B2884200D101257771E0E72DE9FF5F43
:10571000BF49C0B291F8FE1019B1012904D0022985
:105720007ED1FFF707FF01E0FFF72CFE002877D0BE
:10573000B8484FF0000B0178012910D00121017009
:10574000AD48C17A00296BD0AC490978052967D3E7
:105750008246407830B19AF80C1031B108E080F8F8
:1057600000B0EDE78AF80CB002E008B1FFF79AFD4F
:10577000A9490523DFF8788208789E46401CB0FBD3
:10578000F3F203FB12020A70A449002091F9009081
:10579000A14958F8203068319F4C41F82030A04989
:1057A000783493FBF1F144F820109E4C00EB800517
:1057B0004C4303EBC41342F2107493FBF4F41FFA4E
:1057C00084FC954C403424F810C08A4CB83404EB67
:1057D0008505914C55F82260603454F8207045F8E6
:1057E0002230BE1B334444F8203093FBFEF38D4C33
:1057F0006442614303EBC111874B7033B9F1010F70
:1058000043F8201006D1ACF1020CBCF5797F01D829
:1058100048F82010401C0228BADBFDF75AFB00E0D4
:1058200081E07D4C216A401A00EE100AB8EE400A71
:10583000DFED7D0A80EE201A84ED0A1AFDF749FBA0
:105840002062A06AB0F17E5F02DA00EE100A01E089
:10585000B7EE000A84ED0A0A03A902A8734BCDE94A
:10586000000146461A1F311D6148FFF761FC02998D
:105870004FF06408B1FBF8F26D4955460A80039A6F
:1058800092FBF8F06B4A10809AF80C0018B9A1F856
:1058900000B0A2F800B0FFF7A6FC287A10B9E879AA
:1058A000002840D05C493546343101F1080000F150
:1058B0001C07CDE900013B1D3A46311D4C48FFF75E
:1058C00037FC2B1D4A4A391D3846FFF71BFC534D48
:1058D00095F90000012828D0022824D14C4E01213E
:1058E000B6F90C0100F077F9FFF72AFB96F80801EA
:1058F000514A18B1616C91FBF8F01080B6F80401C0
:10590000E16B88420BD2D4E90D01401AFFF765FA2A
:10591000002800DC404242F21071884203DD012081
:105920002870A08A1080BDE8FF9FFFF78AFBFAE786
:1059300037481230017800EE101A2E49F8EE400A6E
:105940009FED3E0A103180EE801A81ED001A827AB6
:1059500000EE902AF8EE600A80EE801ADFED380A39
:1059600081ED011AC1ED030A417801EE101A2149B7
:10597000F8EE411AB2EE041A203181EE812A81ED4F
:10598000002AC27A01EE902AF8EE611A81EE802A8E
:1059900081ED012A427D01EE902AB8EE612ADFED09
:1059A000221AC2EE212AC1ED022AC1ED030A817832
:1059B00002EE101A0F49B8EE422A3031C2EE012A27
:1059C000C1ED002A027B01EE102AB8EE411A81EEE9
:1059D000002A81ED012A807D00EE100AB8EE400A0F
:1059E00080EE211A81ED021AC1ED030A7047000012
:1059F000B80300209C0B0020C80F002041030020AA
:105A0000F4030020F6030020E4030020E603002056
:105A1000C0090020E20300201C02002039030020FE
:105A200080969800D3CEFEFF00007A44C403002085
:105A3000F0030020F2030020420400200000C842CE
:105A40000000FA442DE9F04706460025FFF770FFF5
:105A500000227D493046FDF71EFC7C4F97F8FE0082
:105A6000012802D0022817D030B3DFF8E4810024E7
:105A70004FF4964A08F1140958F82400FDF760FC29
:105A800056450BD0B6F5164F0BD0B6F5614F1DD06D
:105A9000B6F5E13F0AD11DE00425E6E759F82500F7
:105AA00002E009EB85004068FFF77CF90A20FDF76A
:105AB0001FFA641C052CDFDB3046FDF741FC97F82C
:105AC000FE0001280AD0022815D01AE009EB850053
:105AD0008068E9E709EB8500C068E5E75C4D0024D4
