:020000040800F2
:1000000020150020ED110008F51100080B6E000806
:10001000F9110008FB110008FD11000800000000A4
:10002000000000000000000000000000FF110008B8
:10003000011200080000000003120008BF2A000897
:10004000071200080712000807120008071200082C
:10005000071200080712000807120008E71400083A
:10006000071200080712000807120008071200080C
:1000700007120008071200080712000807120008FC
:1000800007120008071200080712000807120008EC
:10009000071200080712000807120008E9140008F8
:1000A0000712000807120008071200081D250008A3
:1000B00059260008A9260008252700080D1A00085F
:1000C000EB170008111A00080F1A000807120008A1
:1000D0000712000807120008F72F0008A7310008D0
:1000E0008D14000807120008071200080712000804
:1000F0000712000807120008BB25000807120008B5
:100100000712000807120008BB27000807120008A2
:10011000071200080712000807120008071200085B
:10012000071200080712000807120008071200084B
:10013000071200080712000807120008071200083B
:10014000071200080712000807120008071200082B
:100150000712000807120008DB2C0008071200082D
:10016000071200080712000807120008071200080B
:1001700007120008071200080712000807120008FB
:100180000712000807120008DFF80CD00AF052FA34
:1001900000480047136C0008201500205748002134
:1001A000026842F4803202604FF4C063026801F1D9
:1001B000010112F4003F01D19942F7D101688A038D
:1001C0004F492FD54E4A3832136843F0805313609D
:1001D0004C4A136843F4804313600A680A600A6853
:1001E00042F400420A600A6842F4A0520A600B1FFF
:1001F000454A1A60026842F0807202600268920109
:10020000FCD5424B40F205621A600A6822F00302F4
:100210000A600A6842F002020A600A68C2F38102B8
:10022000022AFAD10A6822F400020A60344A3849E4
:100230007C321160016841F0806101600168090150
:10024000FCD57047334810B5016841F47001016076
:100250002A48016841F001010160294A002111602A
:1002600002682D4B1A400260031D2C4A1A60026876
:1002700022F4802202602248001D0160FFF78EFFF9
:1002800024494FF000608039086010BD30B51C4C27
:100290002068234A10F00C01224804D0551004298C
:1002A00003D0082903D002601DE005601BE013495C
:1002B000091D0B68C3F3805C0B68BCF1000F03F0F1
:1002C0003F0302D0B5FBF3F201E0B2FBF3F20B689F
:1002D0000968C3F388135A43C1F30141491C49001B
:1002E000B2FBF1F1016021680E4AC1F30311121D46
:1002F000515C0268CA40026030BD00000038024014
:10030000083802400070004008544007003C02409A
:100310000040005088ED00E0FFFFF6FE10300024A2
:100320000024F4000000002019490843194908601E
:10033000704770B50F21C478027801234FF0E02692
:10034000E4B1144C246804F4E064C4F5E064C4F33C
:100350000724C4F10405E1404478AC4085780D40A1
:1003600025430D4C29011155007800F01F018B40E9
:10037000400906EB8000C0F8003170BD02F01F009C
:100380008340500906EB8000C0F8803170BD00004A
:100390000000FA050CED00E000E400E010B50121DA
:1003A0000C02204600F025FC2046BDE8104000214C
:1003B00000F01FBC30B54268424B0C791A400B6804
:1003C00042EA04221343436082683F4B4D791A404E
:1003D000D1E9034323438C6844EA45042343134390
:1003E0008360C26A097D22F47002491EC9B242EAE2
:1003F0000151C16230BD354B10B51A68344902EA6B
:100400000102D0E9001441EA0401D0E9024044EAC3
:10041000000441EA040141EA0201196010BD00290B
:10042000816802D041F0010101E021F00101816009
:10043000704770B5072509290AD9C468A1F10A06D1
:1004400006EB4606B540AC43B3401C43C46007E02E
:10045000046901EB4106B540AC43B3401C43046161
:100460001F23072A09D2446B521E02EB82029340DB
:100470009C4391400C43446370BD0D2A09D2046B28
:10048000D21F02EB820293409C4391400C430463D1
:1004900070BDC46A0D3A02EB820293409C439140C6
:1004A0000C43C46270BD816841F080418160704737
:1004B0000029816802D041F4807101E021F480714B
:1004C00081607047FFFEFFFCFDF7FFC00423014081
:1004D000E030FCFF2DE9F043016821F001010160EB
:1004E0000021016041608160C160016121214161A1
:1004F0008049804B3D221039984202D18A60BDE884
:10050000F0837C4C4FF474631834A04201D18B60AB
:10051000F5E7784D4FF474143035A84201D18C6062
:10052000EDE7744E4FF074654836B04201D18D60EE
:10053000E5E7704F704E6037B84201D1CE60DEE71C
:100540006C4FDFF8B8C17837B84202D1C1F80CC09F
:10055000D5E7684FDFF8A8819037B84202D1C1F8DB
:100560000C80CCE7634F4FF03D59A837B84202D119
:10057000C1F80C90C3E76349624F0839B84201D112
:100580000A60BCE75F4A1832904201D10B60B6E7BF
:100590005C4A3032904201D10C60B0E7594A48328F
:1005A000904201D10D60AAE7564A56496032091FB0
:1005B000904201D10E60A2E7524A7832904202D1B5
:1005C000C1F800C09BE74F4A9032904202D1C1F877
:1005D000008094E74B4AA832904290D1C1F8009035
:1005E0008DE730B50368484ACC6813400A68224357
:1005F000D1E905452C432243CC6922430C6A2243AE
:100600004C6A22438C6A22434C6B22438C6B2243FC
:100610001A430260426922F00703D1E90B24224306
:100620001A4342610A6942604A6882608968C1600F
:1006300030BD0029016802D041F0010101E021F044
:1006400001010160704741607047406880B27047A7
:10065000014600200968C90700D0012070470B0639
:1006600007D5436912B143F0800301E023F0800312
:100670004361802908D0002A026801F01E0101D0E0
:100680000A4300E08A430260704710B51D4A002407
:10069000904202D2174A103A01E01A4A103A1B4B14
:1006A000194206D01E2303EAD12C036803EA0C0387
:1006B00002E0406900F08003880001D5506800E046
:1006C0001068134A1040084201D003B101242046AB
:1006D00010BD0C4A904202D20648103801E0094889
:1006E00010380B4A8B0001EA020101D5C160704746
:1006F00081607047106002403D000020400F0020E4
:1007000000003D20106402403F801CF03C0F3C0F75
:100710007D0F7D0F30B524498379026863B30B6880
:1007200093430B600A1D13680468A34313600279A6
:100730000A4413680468234313601B4A0832136891
:100740000468A3431360131D1C680568AC431C6058
:1007500090F805C0BCF1100F05D061440A6800682C
:1007600002430A6030BD11680468214311601968B2
:1007700000680143196030BD007908440168914365
:10078000016030BD084A014600201268064B0A404D
:1007900014331B680B4202D0002A00D0012070479E
:1007A0000149143108607047003C0140424800682C
:1007B000002805DA404841490C3801604049016091
:1007C00070473D48016841F00041016070473A4977
:1007D0000820091F0A68D20301D5012070470A6862
:1007E000D20601D5052070470A6812F0EF0F01D03C
:1007F0000620704709688907FBD50720704700B5B8
:10080000FFF7E5FF0128FBD000BD10B504464FF00F
:10081000000C29B1012928D0022929D04FF4407CAD
:10082000FFF7EDFF08281FD1234B186820F4407014
:100830001860186840EA0C001860186820F0F8008A
:100840001860186844F0020108431860186840F402
:1008500080301860FFF7D3FF196821F0020119609A
:10086000196821F0F801196010BD4FF4807CD7E7BA
:100870004FF4007CD4E710B584460C46FFF7BFFF69
:10088000082814D10C4B186820F4407018601868C0
:1008900040F400701860186840F001001860CCF84F
:1008A0000040FFF7ACFF196821F00101196010BD8D
:1008B0000149091F08607047103C02402301674549
:1008C000AB89EFCDF0B5002201234FF0030C00BF40
:1008D0000D6803FA02F42540A5422DD106685400A4
:1008E0000CFA04F5AE4306600E790768A6403E4355
:1008F00006600E79012E01D0022E12D18668AE4319
:1009000086604D798668A54035438560456803FA61
:1009100002F6B543456045688E799640B6B23543D8
:100920004560C56856000CFA06F7BD43C560CD7931
:10093000A540C4682543C560521C102AC8D3F0BD29
:100940004FF6FF7101600021017141718171C17128
:1009500070470246002012690A4200D00120704709
:1009600001837047418370474B07DB0E9A40C908EB
:1009700010B500EB8100016A0F249C40A143016285
:10098000016A1143016210BD5E4910B5884202D16F
:1009900001214C050AE05C49884202D101218C0505
:1009A00004E05A4988420AD10121CC05204600F0D2
:1009B00016F92046BDE81040002100F010B910BD26
:1009C0007FB5044680880D4620F03F06684600F05B
:1009D000A3F84F490298B0FBF1F189B20E43A6800B
:1009E000228822F0010222804A4B2A689A421BD8B0
:1009F0005200B0FBF2F080B2042800D20420491C5F
:100A00002184A083208840F00100208021884FF6B7
:100A1000F5300140A8886A89104308432080A889DE
:100A20002989084320817FBDEB88A3F53F46FF3E1F
:100A300005D102EB4202B0FBF2F080B208E002EB1B
:100A4000C20303EB0212B0FBF2F080B240F480402C
:100A5000020501D140F001004FF4967251434FF46A
:100A60007A72B1FBF2F140F40040C8E741F28831FC
:100A70000160002181804BF6FF72C28001814181BB
:100A80004FF48041818170470029018802D041F0F4
:100A9000010101E021F00101018070470029018876
:100AA00002D041F4807101E021F48071018070472F
:100AB0000029018802D041F4007101E021F40071A5
:100AC0000180704712B141F0010101E001F0FE0127
:100AD000018270470029018802D041F4806101E061
:100AE00021F480610180704701827047008AC0B2A2
:100AF0007047002A828801D00A4300E08A4382803E
:100B0000704700000054004000580040005C004066
:100B100040420F00A086010030B53E4B19683E4AA6
:100B200011F00C0104D05510042903D0082903D07A
:100B300002601DE005601BE03649091F0C68C4F324
:100B4000805C0C68BCF1000F04F03F0402D0B5FBE0
:100B5000F4F201E0B2FBF4F20C680968C4F3881403
:100B60006243C1F30141491C4900B2FBF1F101604C
:100B700019682A4A01F0F0010909545C0168E14052
:100B800041601C6804F4E054A40A145D21FA04F4E2
:100B900084601B6803F460435B0BD25CD140C1608E
:100BA00030BD1C4A28320029116801D0014300E001
:100BB000814311607047174A38320029116801D00B
:100BC000014300E0814311607047124A3C32002922
:100BD000116801D0014300E08143116070470D4A64
:100BE00018320029116801D0014300E081431160EF
:100BF0007047084A1C320029116801D0014300E007
:100C000081431160704703486C30016841F0807186
:100C100001607047083802400024F40014000020EE
:100C200030B502884C8802F441530A88CD882243AB
:100C30008C882C4322430C8922434C8922438C8983
:100C40002243CC8922431A430280828B22F4006221
:100C50008283098A018230BD0029018802D041F0D7
:100C6000400101E021F04001018070478089704718
:100C7000818170470246002012890A4200D001207B
:100C80007047000010B58A0721F003040649130FCE
:100C900021440F220C689A4094430C600A689840E3
:100CA00002430A6010BD00000838014030B50288D8
:100CB000FD4BFE4C98420DD0A0420BD0B0F1804FBE
:100CC00008D0FB4DA84205D0FA4DA84202D0FA4DFB
:100CD000A84204D122F0700C4A8842EA0C02F74D77
:100CE000A84207D0F64DA84204D022F4407C0A89DD
:100CF00042EA0C0202804A68C2620A88028598426F
:100D000001D0A04201D1897A01860121818230BDC2
:100D10004FF0FF31416000210180018141808172EB
:100D200070470029018802D041F0010101E021F063
:100D300001010180704730B5028C22F0010202846B
:100D4000028C8388048B22F0020224F073050C8845
:100D50002C438D8915434A882A43D34DA84202D09B
:100D6000D24DA8420DD122F00805CA8923F4407360
:100D70002A4322F004058A882A430D8A1D434B8AA0
:100D80002B438380048389684163028430BD30B57E
:100D9000028C22F010020284028C8388048B22F0E1
:100DA000200224F4E6450C88240645EA14448D8983
:100DB0002D0542EA15454A88120545EA1242BA4D08
:100DC000A84202D0B94DA84215D122F08005CA89A7
:100DD00023F44063120545EA124222F040058A8856
:100DE000120545EA12420D8AAD0443EA15454B8AC5
:100DF0009B0445EA134383800483896881630284EA
:100E000030BD30B5028C22F480720284028C83885B
:100E1000848B22F4007224F073050C882C438D8996
:100E20002D0642EA15454A88120645EA12429E4DB1
:100E3000A84202D09D4DA84215D122F40065CA896E
:100E400023F44053120645EA124222F480658A8850
:100E5000120645EA12420D8A2D0543EA15454B8AD2
:100E60001B0545EA1343838084838968C163028438
:100E700030BD30B5028C22F480520284038C82880B
:100E8000848B4D8824F4E64C0C882D0724064CEA0C
:100E9000144423F4005C8B891B074CEA134343EA98
:100EA0001545814B984202D0804B984205D122F4DF
:100EB00080430A8A920543EA1242828084838968C9
:100EC0000164058430BD0021018041808180816002
:100ED0008181C181018241827047028B22F0080228
:100EE0000A4302837047028B22F4006242EA012126
:100EF00001837047828B22F008020A438283704785
:100F0000828B22F4006242EA012181837047828B46
:100F100022F440628283828B42EA012282837047FC
:100F2000828B22F00C028283828B0A438283704779
:100F3000028B22F440620283028B42EA0122028386
:100F4000704730B5048C24F010040484B0F818C045
:100F5000058C0C012CF4734C4CEA033141EA02225B
:100F600025F0A001214341F010010283018430BD2E
:100F7000028B22F00C020283028B0A430283704729
:100F800070B50C46054608884988A2882389E0B1D7
:100F9000042822D00828288C27D020F480502884C8
:100FA000AE8B288C26F4734646EA022220F42040B9
:100FB00042EA033340EA013040F48050AB83288496
:100FC000E1882846BDE87040A1E7284600F055F8C2
:100FD000E1882846BDE87040CAE72846FFF7B1FF20
:100FE000E1882846BDE87040A2E720F4807028849C
:100FF000AE8B288C26F0F30642EA031320F420601F
:10100000334340EA012040F48070AB832884E188B8
:101010002846BDE8704083E700210180418001221D
:101020008280C18001817047406B7047806B704740
:10103000C06B7047006C7047002930F8441F02D025
:1010400041F4004101E0C1F30E0101807047002A24
:10105000828901D00A4300E08A4382817047038A73
:10106000002280890B4200EA010001D000B1012278
:1010700010467047C9430182704710B5048C24F0B4
:1010800001040484B0F818C0048C42EA03132CF065
:10109000F30C24F00A0243EA0C030A4342F0010174
:1010A0000383018410BD00000000014000040140E2
:1010B0000004004000080040000C00400010004008
:1010C000001400407FB50446008A0D4620F44051CC
:1010D000E88808432082A08941F20C618843A988EE
:1010E0002A8911436A8902431143A181A08A20F40D
:1010F0004071A8890843A0826846FFF70DFD394872
:10110000844202D03848844201D1039800E002981A
:10111000A1890904002900EBC00101EB0010296836
:1011200002DA4FEA410101E04FEA8101B0FBF1F040
:101130006422B0FBF2F14FEA01114FEA11136FF094
:1011400018056B4300EB8300A3891D044FF03203A5
:1011500006D503EBC000B0FBF2F000F0070005E09D
:1011600003EB0010B0FBF2F000F00F000843208109
:101170007FBD4FF41651016000218180C180018143
:101180000C224281818170470029818902D041F47B
:10119000005101E021F40051818170478088C0F343
:1011A00008007047002A828A01D00A4300E08A437F
:1011B00082827047C1F3421301F01F0C012101FA32
:1011C0000CF1012B07D0022B07D01430002A026843
:1011D00005D00A4304E00C30F8E71030F6E78A4304
:1011E000026070470010014000140140064880472B
:1011F00006480047FEE7FEE7FEE7FEE7FEE7FEE7FC
:10120000FEE7FEE7FEE7FEE7450200088901000869
:101210002DE9F041054600789CB008B1012400E0BA
:10122000002401218805FFF7BCFC01210F0238468C
:10123000FFF7CBFCDFF8E0804046FFF74BF937487B
:101240000026CDE900603648CDE902060CB1022047
:1012500000E00120CDE904064FF4806006904000D4
:1012600007908000CDE908070AA900010127C1C144
:101270000D96694640460E96FFF7B3F901214046A8
:10128000FFF7D7F91020199003208DF868008DF82A
:101290006B6019A92348FFF715FBFFF77FF8159638
:1012A0004FF470601696CDE9176015A8FFF7A3F804
:1012B0008DF840400F968DF8417011961296139656
:1012C0000CB1022000E00120144E8DF850004C3E7D
:1012D0000FA93046FFF76EF801213046FFF7E8F816
:1012E000022301220E213046FFF7A3F82CB102237E
:1012F00029781A463046FFF79CF801213046FFF75F
:101300008EF83046FFF7CFF81CB0BDE8F0810449F5
:1013100031F8100070470000106402404C2001407A
:10132000240000200008024070472DE9FC47DFF848
:101330004891054699F80000C0B300263746B046EC
:101340003446641CE4B26B4608223221532000F07C
:10135000AAFB9DF800009DF80110202C00EB012055
:1013600000B206449DF802009DF8031000EB012036
:1013700000B207449DF804009DF8051000EB012021
:1013800000B280449DF8070000F07F0001D20028E1
:10139000D7D196FBF4F0288097FBF4F0688098FB97
:1013A000F4F0A88089F80140BDE8FC87FFE76B46B0
:1013B00006223221532000F076FB9DF800009DF8B4
:1013C000011000EB012028809DF802009DF8031019
:1013D00000EB012068809DF804009DF8051000EBEB
:1013E0000120A880E0E7244810B500784FF00802FB
:1013F00000284FF02D014FF053000ED000F04DFBB0
:101400000A223121532000F048FB0C222C215320CA
:1014100000F043FB9022382108E000F03EFB0A2256
:101420003121532000F039FB0B222C21532000F0F6
:1014300034FB124940F20910088010BD38B505464A
:1014400000200C468DF8000001466B460122532017
:1014500000F029FB18B19DF80000E52801D000201C
:1014600038BD054928780870054820600548606047
:101470000548A060012038BD280000200404002099
:10148000E71300082B1300082913000810B54FF4C8
:1014900080442046FFF776F9012805D12046FFF762
:1014A0007FF902490120087010BD00002C000020C7
:1014B00010B5474C4748A188FFF74BFA18B101F027
:1014C00004FBA0600AE001F000FBA168884205D996
:1014D000401A3B2190FBF1F061690880E068BDE8AB
:1014E0001040FFF75DB9E3E7E2E72DE9FF41384C33
:1014F000012510B1012811D109E04FF480706080FE
:101500004000A080E06009202070172005E0658081
:101510000220A080E06025700720607060888DF850
:10152000045000262B4F00908DF806608DF8056062
:1015300069463846FFF7C6F901210220FFF731FB63
:10154000A08800908DF8046069463846FFF7BAF924
:1015500021780120FFF796FBE068FFF721F9E068AA
:1015600002908DF80C6010208DF80D008DF80E5053
:1015700002A8FFF7CFF894F9010000F01F018D4099
:1015800040094FF0E02101EB8000C0F8005101F06C
:10159000B2FA3C382061BDE8FF8170B5044601F025
:1015A000AAFA0B4D29693C3188420FD3C5E90404DE
:1015B000084C69882046FFF7D3F90B2001F09EFA0A
:1015C00069882046BDE87040FFF7CCB970BD0000C7
:1015D000380000200004024008B500208DF800000B
:1015E0006B4601220A211E2000F05DFA18B19DF819
:1015F0000000482801D0002008BD012008BD1CB50E
:101600000220009000208DF805008DF80400694646
:101610002548FFF757F9642001F07CFA7822002171
:101620001E2000F03AFA322001F074FA1CBD10B509
:101630000446792200211E2000F02FFA322001F00A
:1016400069FA224601211E2000F027FA0122022118
:10165000BDE810401E2000F020BA10B5782200210D
:101660001E2000F01AFA202201211E2000F015FA97
:1016700000220221BDE810401E2000F00EBA1CB569
:1016800004466B46062203211E2000F00CFABDF82A
:10169000000040BA2080BDF8020040BA6080BDF86A
:1016A000040040BAA0801CBD00040240F0B587B021
:1016B00004464FF440600025059002208DF8195033
:1016C0008DF8180001278DF81A708DF81B7005A988
:1016D000FE4E3046FFF7F6F804220A213046FFF7A7
:1016E00043F904220B213046FFF73EF9F84EF4602F
:1016F00000F019FAF068FFF747F96846FFF7B6F906
:1017000000224FF44071F068FFF7F3F9ADF8045090
:101710004BF6FF70ADF80600ADF80850B802ADF812
:101720000A000001ADF80C00EA4800906946F06834
:10173000FFF746F90121F068FFF7A6F94FF4C06002
:10174000FEF7F2FD22208DF810008DF811508DF873
:1017500012508DF8137004A8FEF7EBFD21208DF8D0
:1017600010008DF811508DF812508DF8137004A8E8
:10177000FEF7DFFD07B0F0BD70B5D54DE868848A8F
:1017800014F4706F01D00121297014F4E06F24D09B
:10179000018B00224FF48061FFF7ABF9A0051CD448
:1017A000E8680188890518D40188C9050CD5018825
:1017B000C905FCD40121FFF77BF9E8680188890598
:1017C000FCD4FFF773FF08E00121FFF771F9002255
:1017D0004FF44071E868FFF78CF9E868818A21F4DA
:1017E000706181820020287170BDC5E72DE9F0414C
:1017F000B74CE068818A4FF00105C9B2CA074FF0C3
:10180000000627D0018821F4006101800121FFF743
:1018100061F9E670607A20B1607860B9A079FF283C
:1018200009D061790022E068FFF74CF9A079FF2820
:101830000FD0FF20B8E06570E079022804D1E0689D
:10184000018841F40061018061790122E068FFF7BD
:1018500039F9C9E08A074FF4806734D5BFF35F8F49
:10186000E079012810D1607A70B1607860B1002110
:10187000E068FFF72FF9BFF35F8FE068018B01216C
:10188000FFF716F9A5701CE0E068008BBFF35F8FCF
:10189000E07902280DD1607A58B1607848B1002112
:1018A000E068FFF717F993E03946E068FFF721F9A0
:1018B0009AE0E079032804D1607A10B160780028BA
:1018C00074D10122F0E74A0753D5A570627A8049A6
:1018D0004978CAB3C9B3E17902291FD90021FFF7BA
:1018E000F9F8E068FFF702F994F903206369985466
:1018F000521CE2700121E068FFF7DAF8A570E06899
:10190000FFF7F4F894F9031062695054491CE17030
:1019100001223946E068FFF7ECF825E00121FFF7E6
:10192000C7F8E068FFF7E2F894F9031062695054D1
:10193000491CE170E068FFF7D9F894F90310626977
:101940005054891CE1700FE000E000E009B9217AF1
:1019500031B10121FFF7ACF8E078401CE07003E002
:101960000121FFF79BF86570E0680188C905FCD488
:101970003AE04A061BD5FFF7B9F894F903106269FB
:101980005054491C48B2E070E179C01C814204D136
:1019900000223946E068FFF7ACF8E17994F90300DA
:1019A000814221D100F10100E0701DE010E0090644
:1019B0001AD594F90320511C4BB20BD02569A95CB0
:1019C000E370FFF791F8E07994F9031088420BD1A6
:1019D000002269E7E370A179FFF786F8607A0028B2
:1019E000F6D1E0790028F3D094F90310E079401C97
:1019F000814209D16670A07828B100224FF440716D
:101A0000E068FFF776F82671BDE8F081EEE6B3E610
:101A1000ECE67FB52E4D400047F230546871A97155
:101A20000121297200266E72C5F810D0C5F814D0B5
:101A30006846EA7129712E70102A02D9002004B07C
:101A400070BD002103E05E5C4654491CC9B291425E
:101A5000F9D3E868818889050ED40188C90505D4C1
:101A600001888905FCD40121FFF718F801224FF401
:101A70004071E868FFF73DF8287910B1641EFBD18A
:101A800004E01CB1287880F00100D8E76889401C88
:101A90006881E868FFF70AFED0E707B502AB0122CC
:101AA000FFF7B7FF0EBD70B5094D4FEA400047F292
:101AB00030546871A97100202872012169726B612C
:101AC0002B61EA7129712870E86805E00004024082
:101AD00050000020801A0600818889050ED40188F4
:101AE000C90505D401888905FCD40121FEF7D6FF7C
:101AF00001224FF44071E868FEF7FBFF287910B12E
:101B0000641EFBD104E01CB1287880F0010070BD98
:101B10006889401C6881E868FFF7C8FD002070BD37
:101B20003448408970472DE9FC474FF000098DF893
:101B300005904FF0020A4FF440688DF804A0012789
:101B40002D4D8DF806704446CDF800808DF8077055
:101B500069462846FEF7B6FE21462846FEF700FFF6
:101B600000242E1502E00A2000F0C8FF3146284666
:101B7000FEF7EFFE0028F6D031462846FEF7F2FECB
:101B80000A2000F0BBFF31462846FEF7E9FE0A2096
:101B900000F0B4FF641CE4B2082CE7D34FF40064F7
:101BA00021462846FEF7DEFE0A2000F0A7FF314658
:101BB0002846FEF7D7FE0A2000F0A0FF314628464F
:101BC000FEF7CEFE0A2000F099FF21462846FEF7D8
:101BD000C7FE8DF805908DF804A08DF80670CDF83D
:101BE00000808DF8077069462846FEF76BFEBDE859
:101BF000FC87000050000020000402400188494298
:101C0000018081884942818070471CB504466B463B
:101C10000622A8216820FFF746FFBDF8000040BA61
:101C200000B2C11700EB917080106080BDF8020017
:101C300040BA00B2C11700EB917080102080BDF84F
:101C4000040040BA00B2C11700EB91708010A08070
:101C50001CBD10B5642000F05DFFF0222321682038
:101C6000FFF71BFF10B9032000F0C8FF052000F0AC
:101C700051FF1E4820210078BDE8104040F00F02BF
:101C80006820FFF70ABF38B50446192000F042FF6C
:101C90006B4601220F216820FFF705FF9DF8000029
:101CA000D32801D0002038BD114820601148606061
:101CB0001148A060012038BD0C49202806D03628E4
:101CC00006D04E280DD05D2804D10CE0002000E0A5
:101CD000402008700878202140F00F026820FFF7AC
:101CE000DCBE8020F5E7C020F3E70000680000209C
:101CF000531C00080B1C0008FD1B0008FEB5384CE7
:101D00000125207878B1012822D002281FD1642033
:101D10008DF8000033488DF8015000264078A0B3BC
:101D20008DF8025043E07A208DF800002E486B4673
:101D30000222B0F90000FF21C0F1B40000EBD07026
:101D400040108DF801006D20FFF763FE2570FEBD89
:101D5000264979208DF80000B1F900000A2290FB95
:101D6000F2F010F15A0301D5002003E05A30B428F4
:101D700000DDB4208DF80100B1F9020090FBF2F013
:101D800010F15A0102D5002004E00EE05A30B428C8
:101D900000DDB4208DF802006B460322FF216D2088
:101DA000FFF737FE02202070FEBD8DF802606B4603
:101DB0000322FF216D20FFF72CFE2670FEBD08B523
:101DC0006B208DF800000A208DF801008DF80200CC
:101DD0006B460322FF216D20FFF71BFE08BD0000AC
:101DE00069000020A00F00203C040020AC0200206D
:101DF00001884942018041884942418070471CB5B1
:101E000004466B46062201211C20FFF74CFEBDF85C
:101E1000000040BA00B28010C11700EB9170801032
:101E20002080BDF8020040BA00B28010C11700EB5C
:101E3000917080106080BDF8040040BA00B280103C
:101E4000C11700EB91708010A0801CBD1CB54FF431
:101E50008040009000208DF805008DF80400694650
:101E60002648FEF72FFD00222A211C20FFF715FE31
:101E700002220E211C20FFF710FE03220F211C203E
:101E8000FFF70BFE12222B211C20FFF706FE022279
:101E90002C211C20FFF701FE01222D211C20FFF721
:101EA000FCFD00222E211C20FFF7F7FD05222A2130
:101EB0001C20FFF7F2FD12494FF4807008801CBD12
:101EC00038B5044600208DF800006B4601220D2134
:101ED0001C20FFF7E8FD28B19DF800002A2803D058
:101EE0001A2801D0002038BD0649216006496160EA
:101EF0000649A16006490870012038BD0000024073
:101F0000040400204D1E0008FF1D0008F11D0008FC
:101F10006A00002038B504466B4602221B21682067
:101F2000FFF7C1FDBDF8000043F2903140BA11FA4D
:101F300080F04FF48C71B0FBF1F02330208038BD7D
:101F400081884942818070471CB504466B46062251
:101F50001D216820FFF7A7FDBDF8000040BA00B2C0
:101F6000C11700EB917080102080BDF8020040BACC
:101F700000B2C11700EB917080106080BDF80400C2
:101F800040BA00B2C11700EB91708010A0801CBD58
:101F900010B5192000F0BEFD002215216820FFF7C2
:101FA0007CFD10B9032000F029FE29481621007895
:101FB00040F018026820FFF770FD0022172168200A
:101FC000FFF76BFD01223D216820FFF766FD01222E
:101FD0003E21BDE810406820FFF75FBD10B5044604
:101FE000192000F097FD002215216820FFF755FD0C
:101FF000002808D017482060174860601748A06084
:102000001748E060012010BD1149622817D006DC96
:102010000A281AD0142816D02A2809D111E0BC2881
:1020200004D0B0F5807F03D1002000E001200870CB
:102030000878162140F018026820FFF72EBD022014
:10204000F5E70320F3E70420F1E70520EFE70000C0
:102050006B000020911F0008491F0008411F000865
:10206000151F00082DE9F04FDFF85CB2DFF85CE2E5
:102070000023BBF80A10DEF804009846A0EB01220A
:10208000BBF80400D5174FEA004CBBF80800A0FBD2
:10209000026703FB027400FB0540F40944EA406454
:1020A0001CEB040ABBF8064043EBE011A4FB027CE6
:1020B000BBF802004FEAE2764FEAC039184600FB4F
:1020C00002C504FB06554FEA172444EA056419EBE0
:1020D0000409BBF80C4040EB2520A4FB027C1D4604
:1020E0004FEAE27605FB02C204FB06224FEAD75410
:1020F00044EA42244FF4FA62A218B2F5FA6F16DAF3
:10210000A2F5FA635B4303EB830463104FEAA40870
:102110006F4CA2420BDA02F2DC525243C2EBC20411
:10212000234402EB420404EBC20208EB6208DA1714
:10213000BAEB030361EB0201B9EB0802DEF80840D9
:102140004FF00005A4FB026705FB027260EBE8702C
:1021500004FB00204FEA565242EAC0224FEA605088
:10216000D21A60EB0100410441EAD230BDE8F08FA1
:1021700010B500F060F85549886010BD5348012241
:1021800000784030C1B27720FFF787BC10B500F06F
:1021900052F84E49486010BD4C480122007850303A
:1021A000C1B27720FFF779BC2DE9FC4105460A2032
:1021B00000F0B0FC01AB0122A0217720FFF773FCF7
:1021C000002823D001221E217720FFF766FC4FF460
:1021D0002F6000F093FC0024DFF8EC802646A02757
:1021E00007EB4400C1B26B46022277200096FFF74E
:1021F0005AFCBDF8000040BA28F81400641C082CF2
:10220000EEDB314800F029F810B10020BDE8FC8178
:1022100042F21070288068804FF47A60A8802D48C0
:10222000A8602D48E8602D4828612D4868612D4838
:10223000A8610120EAE708B56B4603220021772058
:10224000FFF731FC9DF800009DF80110000440EA02
:1022500001209DF80210084308BDF0B5C289002195
:1022600002F47F4502F00F040123C5814FEA010209
:1022700030F8126006B10023521C082AF8DB4FF038
:10228000FF36F3B90022D30722F00103C35A02D06C
:10229000DBB2594001E081EA132108230F0401D584
:1022A00081F4C05149005B1E002BF7DC521C102A40
:1022B000E9DB2543C581C1F30330844201D100200D
:1022C000F0BD3046F0BD0000680400206C00002026
:1022D00024FAFFFF992100088D2100087D210008C4
:1022E00071210008652000083EB505460C46684689
:1022F000FEF70EFDFA48641E01940068F949B0FB30
:10230000F1F0401EADF800000020ADF80800ADF877
:10231000020069462846FEF7C9FC3EBD7CB506466C
:102320000C4615466846FEF70BFB02200021009480
:102330008DF804000DB98DF806108DF8051069466A
:102340003046FEF7BFFAE84C022200212046FEF795
:102350000BFB022201212046FEF706FB022211465A
:102360002046FEF701FB022203212046FEF7FCFA7D
:1023700001220F212046FEF7F7FADC4C012203214F
:102380002046FEF7F1FA022204212046FEF7ECFA7D
:10239000022205212046FEF7E7FA02220621204606
:1023A000FEF7E2FA022207212046FEF7DDFA0222BA
:1023B00008212046FEF7D8FA022209212046FEF71E
:1023C000D3FACB4C032206212046FEF7CDFA032296
:1023D00007212046FEF7C8FA032208212046FEF70F
:1023E000C3FA032209212046FEF7BEFAC14C01229E
:1023F00009212046FEF7B8FA01220B212046FEF7FC
:10240000B3FA01220D212046FEF7AEFA01220E2179
:102410002046FEF7A9FA7CBD70B51646B64B00EB18
:10242000800203EB8205B54A02EB00142068FFF737
:102430005BFFD4E901010022FFF770FF217B3246E8
:10244000206800F0C1FAA07B18B101212068FEF7D6
:10245000F3FD01212068FEF764FC207B30B10428E5
:1024600007D008280AD00C2806D10AE020683430AA
:1024700001E0206838306860284670BD20683C3034
:10248000F9E720684030F6E7F8B517460E469A4A55
:1024900000EB800102EB8105984901EB00144FF637
:1024A000FF712068FFF720FFD4E901010122FFF747
:1024B00035FF217B0022206800F0CAFA0121206844
:1024C000FEF72FFC607B8DF8000000208DF80100E6
:1024D00001208DF802008DF803006846FDF729FF02
:1024E0002E60AF72207B30B1042808D008280DD0B0
:1024F0000C2809D10EE001220221206802E001220D
:1025000004212068FEF7A3FD2846F8BD012208211A
:102510002068F7E7012210212068F3E770B5784EB4
:1025200002213046FEF79BFD734D012820D0042187
:102530003046FEF794FD012826D008213046FEF7EC
:102540008EFD01282CD010213046FEF788FD012891
:1025500032D1082410213046FEF78CFD3046FEF7BC
:1025600069FDD5F8A02081B22046BDE87040104733
:102570000B2402213046FEF77DFD3046FEF754FD68
:1025800081B2D5F8DC20EFE70A2404213046FEF7BB
:1025900071FD3046FEF74EFD81B2D5F8C820E3E765
:1025A000092408213046FEF765FD3046FEF742FD5E
:1025B00081B2D5F8B420D7E770BD70B5514E022175
:1025C0003046FEF74CFD4C4D012820D0042130460A
:1025D000FEF745FD012826D008213046FEF73FFDD5
:1025E00001282CD010213046FEF739FD012832D1C8
:1025F000132410213046FEF73DFD3046FEF71AFD4C
:10260000D5F87C2181B22046BDE8704010471024E7
:1026100002213046FEF72EFD3046FEF705FD81B261
:10262000D5F84021EFE7112404213046FEF722FDC2
:102630003046FEF7FFFC81B2D5F85421E3E71224BF
:1026400008213046FEF716FD3046FEF7F3FC81B256
:10265000D5F86821D7E770BD70B502214C07204638
:10266000FEF7FDFC244D012812D004212046FEF780
:10267000F6FC012817D104212046FEF7FBFC20467A
:10268000FEF7D4FC81B26A690120BDE870401047B2
:1026900002212046FEF7EEFC2046FEF7C5FC81B283
:1026A00000202A68F1E770BD70B5174C0221204662
:1026B000FEF7D5FC104D012828D004212046FEF756
:1026C000CEFC01282DD104212046FEF7D3FC204664
:1026D000FEF7ACFC81B2EA6B0320BDE87040104706
:1026E0000000002040420F000000024000040240B1
:1026F0000008024000100240780400208000002002
:102700000000014000040140000400400221204676
:10271000FEF7B0FC2046FEF787FC81B20220AA6AD1
:10272000DBE770BD70B5D64C02212046FEF797FC62
:10273000D44D01281FD004212046FEF790FC01282B
:1027400024D008212046FEF78AFC012829D0102138
:102750002046FEF784FC01282ED110212046FEF7EA
:1027600089FC2046FEF766FC81B2D5F88C20072054
:10277000BDE87040104702212046FEF77BFC204652
:10278000FEF752FC81B204202A6DF1E704212046B5
:10279000FEF770FC2046FEF749FC81B205206A6E08
:1027A000E6E708212046FEF765FC2046FEF740FCE0
:1027B00081B20620AA6FDBE770BD70B5B24C022172
:1027C0002046FEF74CFCAF4D01281FD004212046C7
:1027D000FEF745FC012825D008212046FEF73FFCE6
:1027E00001282BD010212046FEF739FC012831D1D9
:1027F00010212046FEF73EFC2046FEF71BFC81B26E
:10280000D5F8F0200C20BDE870401047022120468A
:10281000FEF730FC2046FEF707FC81B20F20D5F80A
:102820002C21F0E704212046FEF724FC2046FEF789
:10283000FDFB81B20E20D5F81821E4E708212046DF
:10284000FEF718FC2046FEF7F3FB81B20D20D5F809
:102850000421D8E770BD30B58C4A00239088D08021
:102860009180081A81B240F68C20814201D9D37040
:1028700030BD8648A1F2EF2440F2DB55C078AC426F
:1028800004D2082802D2824C24F81010401CD070C8
:102890008048038030BD7B4A00EB800302EB83025B
:1028A00070B57A4BD47A083303EB001318681B7B9E
:1028B00084B1D1819489764D091B1182947A25F8CF
:1028C00014100024D4722246194600F0C1F8714851
:1028D000048070BD91810121D172BDE87040022257
:1028E000194600F0B5B82DE9F04706460020717989
:1028F00001B10220717801B1401C6749634FDFF8D4
:102900009C8151F8205000244FF47A792A5D02F01E
:102910000F0002F0F001FF2A39D0CA0605D50022C7
:102920005F49FFF7B1FD082008E08A0608D5BA78AC
:102930005C49FFF7A9FDB87800F10100B87023E009
:102940004A0610D53289B8FBF2F189B24A46FFF740
:1029500063FD01464E4A3878103242F8201000F1EB
:102960000100387010E009060ED57289B8FBF2F14B
:1029700089B24A46FFF750FD0146454A7878403211
:1029800042F82010401C7870641C142CBEDB002020
:10299000BDE8F0873D4A1278904205D23C4A103299
:1029A00052F82000406801607047384A52789042DF
:1029B00005D2374A403252F8200040680160704723
:1029C000334931F81000704770B586B006460C46A2
:1029D00015466846FEF777FA7020ADF80000012032
:1029E000ADF802000020ADF804000220ADF80C00A4
:1029F000C0010295ADF810007CB1042C16D0082C53
:102A00001DD00C2C07D169463046FEF732FA08215A
:102A10003046FEF775FA06B070BD69463046FEF7DF
:102A20008AF908213046FEF758FAF4E7694630463D
:102A3000FEF7ADF908213046FEF755FAEBE7694697
:102A40003046FEF7DEF908213046FEF753FAE2E79A
:102A5000FEB506460C4615466846FEF7DDFA01202F
:102A6000ADF804000020ADF80040ADF80600ADF868
:102A70000800ADF8025069463046FEF781FAFEBD07
:102A80000008004078040020000C0040780000207E
:102A90000806002040030020C001002040420F0033
:102AA00057280008972800081FB56846FEF734F835
:102AB0006A490098B0FBF1F0694908601FBD694898
:102AC0000068401C67490860704700BF654801689E
:102AD0004FF0E0208269634800688142F6D1624885
:102AE000801AA823B0FBF3F001EB4103C3EBC11341
:102AF00000EBC30070475B480068704730B5044680
:102B0000FFF7E3FF054600BFFFF7DFFF401BA042D2
:102B1000FAD330BD10B5044603E04FF47A70FFF7E6
:102B2000EDFF2000A4F10104F7D110BD7CB5012117
:102B30001020FEF736F80F20009000208DF80500D9
:102B400001208DF8040000208DF806008DF80700A4
:102B500069464648FDF7B6FEFDF798FB012144485B
:102B6000FEF729F8012141F21310FEF72EF801219A
:102B70004048FEF716F8FEF746F801203B49488327
:102B800002204883042048830820488300023A49F1
:102B90000880FFF789FF394800684FF47A72B0FB6C
:102BA000F2F1B1F1807F00D31DE021F07F40401EA3
:102BB0004FF0E022506150170F22002807DA130768
:102BC0001D0E2F4B00F00F04241F1D5503E01307AB
:102BD0001C0E2C4B1C5400BF00204FF0E0229061D3
:102BE0000720106100BF2848FEF760FD00F00AFBD7
:102BF00000F091FB6420FFF78DFF7CBD04460220AE
:102C00001A490883012048831DE01848406980F074
:102C10000200164948610846406980F00100486199
:102C200040F2DB1114FB01F1881EFFF773FF4FF434
:102C300000601149891E08801920FFF76BFF4FF4CF
:102C400000600D490880E0E710B11049104A11609A
:102C500010490B4A0C3A11607047000040420F00C7
:102C6000D0010020D401002040900200001002405A
:102C70000F4046001F0040001A0C024000000020D8
:102C800018ED00E000E400E000580040EFBEADDECB
:102C9000F04F00200400FA0570B5FD4CFB48FD4ADA
:102CA000A16808441060FB4DE0680C3D884206D9DD
:102CB000401A81B22846FDF7C6FCE06806E0C1F57F
:102CC000807081B22846FDF7BEFC0020A060284637
:102CD000BDE870400121FDF7ACBC70B5ED4CEE4D88
:102CE0000C3C29462046FDF7D0FC38B12946204649
:102CF000FDF7EFFC00212046FDF79BFCE44808307F
:102D000003C8814202D0BDE87040C5E770BD2DE91F
:102D1000F0438046012197B00846FDF742FF0225A7
:102D20008DF841504FF400708DF840500024DFF8CA
:102D30006C930F908DF8424001268DF843600FA9E7
:102D40004846FDF7BFFD072209214846FDF70CFE66
:102D50008DF841508DF840506F028DF842400F972A
:102D60008DF843400FA94846FDF7ACFD07220A2124
:102D70004846FDF7F9FD4FF4C060FDF7D5FA46204F
:102D80008DF854008DF855608DF856608DF85760B9
:102D900015A8FDF7CEFA01211020FDF716FFADF8BA
:102DA0004C400C20DFF8F892ADF84840ADF84E00EA
:102DB000CDF84480ADF84A40ADF8504011A94846DE
:102DC000FEF780F901218805FDF7EBFEDFF8C482EC
:102DD000A8F13C084046FDF77DFBAD06E8120A90DD
:102DE000B048CDE90204CDE90674E814049009F175
:102DF00004060594CDE90840CDE9005669464046F1
:102E0000FDF7EFFB01214046FDF713FC01224021B5
:102E10004846FEF7C7F94046FDF717FC9C49DFF826
:102E20007482A8F10C0848604046FDF753FB40202F
:102E30000390CDE906740594089403200994CDE924
:102E40000B40CDE900560D94694640460E94FDF7BF
:102E5000C8FB012210214046FDF701FC002140463D
:102E6000FDF7F1FB012280214846FEF79BF9012185
:102E70004846FEF789F917B0BDE8F083854810B5DC
:102E80003C38FDF7E2FB82494968884201D00120C5
:102E900010BD002010BD7E48D0E90210814201D152
:102EA000012070470020704779497E4B4A68C2F57F
:102EB0008070185C521E4A6002D14FF480724A60E2
:102EC0007047734A10B5714BD1685854491CC8B249
:102ED000D06070480C38FDF7BBFB002802D1BDE87C
:102EE0001040D9E610BD10B5044602E0641CFFF79F
:102EF000E8FF20780028F9D110BD1FB504466846C8
:102F0000FEF737F900206249ADF804000094ADF8EF
:102F10000600ADF80800097809B1002100E0082199
:102F200041F00401604CADF80A10ADF80C006946A0
:102F30002046FEF7C7F801212046FEF725F91FBD00
:102F40002DE9FE4F88468146012114464804FDF7CD
:102F500032FEDFF83CA1262001258AF800408DF8DA
:102F600008008DF8095002268DF80A608DF80B5084
:102F700002A8FDF7DEF9202000278DF805708DF8F6
:102F80000460DFF828B100908DF806701CB969461E
:102F90005846FDF797FC8DF8046040208DF80670C8
:102FA00000908DF8075069465D465846FDF78AFC4B
:102FB000072205212846FDF7D7FC072206212846CF
:102FC000FDF7D2FC4846FFF798FF374D012240F24B
:102FD00025512846FEF7EEF82CB9012240F2277160
:102FE0002846FEF7E7F801212846FEF7CDF8CAF893
:102FF0001080BDE8FE8F70B52B4E348840F225500E
:10300000234D044206D0286920B13046FEF7C6F8A9
:103010002969884720060CD5D5E90501884209D0E1
:103020002349095C204A121D1180401C00F07F00DA
:10303000686170BD3046BDE87040002240F22771E3
:10304000FEF7B8B81FB504466846FEF792F80020B0
:103050000F49ADF804000094ADF80600ADF8080083
:10306000497809B1002100E0082141F00401114C28
:10307000ADF80A10ADF80C0069462046FEF722F8BC
:1030800001212046FEF780F81FBD000068070020E0
:10309000D8010020C46402400080002800000240E3
:1030A000001001406806002000440040000C02406F
:1030B00068080020004800402DE9FE4F8846814600
:1030C000012114468804FDF776FDDFF828A12720AA
:1030D00001258AF801408DF808008DF80950022674
:1030E0008DF80A608DF80B5002A8FDF722F928022E
:1030F00000278DF805708DF80460DFF8FCB00090B3
:103100008DF806701CB969465846FDF7DBFB8DF853
:1031100004604FF400708DF8067000908DF8075031
:1031200069465D465846FDF7CDFB07220821284633
:10313000FDF71AFC072209212846FDF715FC484631
:10314000FFF780FF2D4D012240F225512846FEF762
:1031500031F82CB9012240F227712846FEF72AF8EF
:1031600001212846FEF710F8CAF81C8041E769E7FC
:1031700020494A78002A0CD1214B4A6A9854521CA3
:1031800002F07F004862012240F227711B48FEF7DF
:1031900011B870471748D0E90810814201D10120C9
:1031A00070470020704770B5144E348840F22550A7
:1031B000104D044206D0E86920B13046FDF7EEFF1D
:1031C000E969884720060CD5D5E90801884209D06D
:1031D0000B49095C094A121D1180401C00F07F0058
:1031E000286270BD3046BDE87040002240F2277171
:1031F000FDF7E0BFD8010020000C0240004800406D
:10320000E808002070B588B002258DF8045000242D
:10321000E0208DF806406B4E00908DF805508DF83B
:10322000074069463046FDF74DFB05221146304602
:10323000FDF79AFB052206213046FDF795FB052296
:1032400007213046FDF790FB1020009001208DF8FB
:1032500004008DF806408DF805508DF8070069468A
:103260003046FDF72FFB308B40F0100030830121FA
:103270000803FDF7AAFCADF808404FF48270ADF8E2
:103280000A00ADF810404FF44070ADF8120008206D
:10329000ADF80C40ADF81400ADF80E40ADF8164096
:1032A000494C02A92046FDF7BBFC01212046FDF751
:1032B000D3FC08B070BD70B5434D0446802128464C
:1032C000FDF7D8FC0128F9D021462C462846FDF709
:1032D000CFFC80212046FDF7CDFC0128F9D0204607
:1032E000FDF7C4FCC0B270BD10B5374C802120463C
:1032F000FDF7C0FC0128F9D0FF212046FDF7B8FCFE
:1033000080212046FDF7B6FC0128F9D02046FDF7C4
:10331000ADFCC0B210BD70B588B002258DF8045068
:1033200000244FF460408DF80640284E00908DF840
:1033300005508DF8074069463046FDF7C3FA05226F
:103340000D213046FDF710FB05220E213046FDF71A
:103350000BFB05220F213046FDF706FB28030090EA
:1033600001208DF804008DF806408DF805508DF889
:10337000070069461648FDF7A5FA15481830018878
:1033800041F400510180ADF808404FF48270ADF86F
:103390000A00ADF810404FF44070ADF8120008205C
:1033A000ADF80C40ADF81400ADF80E40ADF8164085
:1033B000084C02A92046FDF733FC01212046FDF709
:1033C0004BFC76E700000240003001400004024060
:1033D000000C0240003800408188494281807047DB
:1033E0002DE9FC41664F102605467E83C320FFF77A
:1033F00062FF00244FEA0D08FFF776FF08F804008B
:10340000641CE4B2062CF7D33E83BDF8000040BA3A
:1034100000B2C11700EB917080102880BDF8020047
:1034200040BA00B2C11700EB917080106880BDF8FF
:10343000040040BA00B2C11700EB91708010A88060
:10344000BDE8FC811CB50120009000208DF805002E
:103450008DF804008DF8070069464A48FDF732FAF6
:1034600080216B2000F07BF80520FFF753FB002143
:10347000192000F074F803216B2000F070F802218D
:10348000372000F06CF800211A2000F068F81821AD
:103490001B2000F064F810211C2000F060F81CBD17
:1034A0000188428802804942418070472DE9FC41F1
:1034B000334F102605467E83BB20FFF7FCFE002419
:1034C0004FEA0D08FFF710FF08F80400641CE4B28F
:1034D000062CF7D33E83BDF8000040BA00B2C117F6
:1034E00000EB5170C0102880BDF8020040BA00B255
:1034F000C11700EB5170C0106880BDF8040040BADD
:1035000000B2C11700EB5170C010A88098E71E49A7
:103510004FF40070088070472DE9F04104460D46D5
:103520002320FFF7F7FA164F10267E83F520FFF7CA
:10353000C2FEFFF7D9FE3E83682802D00020BDE816
:10354000F08112482060124860601248A060124862
:103550002860124868601248A8600120EFE770B543
:10356000074E10250C467583FFF7A5FE2046FFF792
:10357000A2FE3583BDE870400120FFF7CBBA000002
:103580000000024000040240040400200F3500083F
:10359000AD340008A134000845340008E1330008C8
:1035A000D93300082DE9F0417E4D044601262878E4
:1035B000F70280B9FFF79FFAA9683231884207D332
:1035C00079482E700780FFF796FAA860BDE8F08171
:1035D00028780028FAD0FFF78EFAA968214488429B
:1035E000F4D3002028707048801C0780FFF783FA0E
:1035F000A8606E48017809B1491E01706E70E5E758
:10360000F8B5684D8DF800008DF801108DF8022096
:103610008DF80330A8791DF8001044292FD04C29CB
:103620002BD04D2927D04E292CD032240026032818
:1036300006D274B12046FFF7B5FFA879032808D356
:10364000FFF759FAA968001B884202D95748AE71A2
:1036500006706878012801D0002C0BD1A8790328C6
:1036600001D2401CA87150496E70891C2E704FF415
:1036700000600880F8BD6424D8E7C824D6E74FF47A
:10368000FA64D3E70024D1E72DE9F047DFF820A161
:103690000446444D9AF80B004FF00109002610B182
:1036A00085F8029000E0AE704FF4007001F013FC5A
:1036B000404F18B3404941484FF0020891F89F30FD
:1036C000B0F9000003EB830282420FDA97F801C0E1
:1036D000BCF1000F0AD085F8049091F8A0101944AD
:1036E00001EB8101814201DA85F80480824203DA2C
:1036F000797809B985F8048000B92E71102001F09D
:10370000D5FB40B19AF8071011B99AF8080008B132
:10371000F87AA8B1EE702879022814D0012817D0C1
:10372000E878012817D0A878012817D0042C19D0E0
:10373000022C1ED0012C1ED0687901281ED022E058
:1037400085F80390E7E74E22442311464C200DE014
:103750004D234C2208E04D234E2201E04D235322FD
:10376000532102E044234D224D215320BDE8F04770
:1037700046E7442305E044234E22F5E7787810B16C
:103780004E234D22ECE70948007818B1BDE8F04718
:10379000322007E704492E70891C4FF4006008802E
:1037A000BDE8F08700020020180C0240340300201E
:1037B000D20F0020A00F0020980900204003002015
:1037C00070B51546B0FBF5F60446A84203D3304663
:1037D000FFF7F6FF014605FB1640FEA2105C0870DD
:1037E000481C70BD70B50C46911E232900D30A22D7
:1037F0000025002804DA2D212170611C404200E0E0
:103800002146FFF7DDFF0570204670BD70B5044608
:103810002DED0C8B00E0641C20782028FBD00928BB
:10382000F9D09FEDF6ABC1B22D29B0EE4ABAF0EE59
:103830006ABA02D02B2802D002E09FEDF2BB641CD2
:103840009FEDF28B9FEDF3CB11E000BF06F054FD2E
:1038500041EC190B53EC1C2B51EC180B06F06DFCD2
:1038600053EC192B06F0C3FB41EC180B641C2078B9
:1038700030380928EAD920782E2822D1B0EE4C9A87
:10388000F0EE6C9A641CB0EE4CDAF0EE6CDA14E0F8
:1038900006F032FD53EC192B06F0BFFC53EC182B4D
:1038A00006F0A5FB41EC180B53EC1D2B51EC190B4A
:1038B00006F043FC41EC190B641C207830380928D1
:1038C000E6D92078652801D045284CD114F8010F9D
:1038D00000262D2802D02B2801D001E00126641CEF
:1038E00000256FF02F0105E005EB850201EB420298
:1038F0008518641C22781046303A092AF4D94FF40E
:103900009A7085420BD905469FEDC40B51EC1A0BFA
:1039100053EC102B06F011FC41EC1A0B323D322D0A
:10392000F2D29FEDC09B082D13D353EC192B51EC11
:103930001A0B06F002FC41EC1A0B083DF3E700BF3E
:1039400053EC1C2B51EC1A0B06F0F7FB41EC1A0B55
:103950006D1E002DF4D136B153EC1A2B51EC180B1F
:1039600006F05BFC05E053EC1A2B51EC180B06F04B
:10397000E4FB53EC1B2B06F0E0FB06F010FDBDEC66
:103980000C8B00EE100A70BDF0B587B0002607461C
:1039900000960196A5A5DFEDA60AB5EEC00A02962F
:1039A000F1EE10FA02DD30EE200A01E030EE600A9E
:1039B000DFEDA00A20EE200ABDEEC00A10EE104A8C
:1039C000002C01DD204600E060420A2203A9FFF737
:1039D00009FF002C01DB202000E02D208DF80000E5
:1039E00003A806F0D6FA302401280AD003A806F06E
:1039F000D0FA02280CD003A806F0CBFA03280CD08A
:103A00000DE08DF801408DF802408DF8034006E08E
:103A10008DF801408DF8024001E08DF8014003A9C6
:103A2000684606F07DFA684606F0B3FAC01EC4B2D6
:103A300022466946384606F097FA3E5529463846EA
:103A400006F06EFA0DEB0401384606F069FA3846C6
:103A500007B0F0BD70B505460C46086806F099FA47
:103A6000024621682868BDE8704006F09ABA70B531
:103A7000054606F08EFA704E10F0FF0F10D0284663
:103A800006F0A8FA04460F2818DA2021284606F086
:103A900077FA06F09FFA06EB4401A1F86A0070BDC0
:103AA0005FF0000406EB44002146B0F86A2063A0F2
:103AB00004F066FE641C0F2CF4DB70BDBDE87040A2
:103AC0000F2161A004F05CBEF0B587B0002405466C
:103AD000264600940194029406F05BFA564F10F0CB
:103AE000FF0F4ED0042262A1284606F05AFA0028A1
:103AF0006BD02E46284606F06DFA451E0C2D65DA71
:103B00002021304606F03CFA060008D0701C06461C
:103B1000FFF77CFE07EB0510012480ED460A20210B
:103B2000304606F02DFA060008D0461C3046FFF756
:103B30006DFE07EB0510641C80ED470A202130461E
:103B400006F01EFA060008D0701C0646FFF75EFE5F
:103B500007EB0510641C80ED480A2021304606F072
:103B60000FFA38B1401CFFF751FE07EB0510641C3B
:103B700080ED490A042C2AD03FA000BFFFF7B3F91B
:103B800066E74CA0FFF7AFF95FF0000407EB041500
:103B900095ED460AB5EEC00AF1EE10FA18D0761C83
:103BA000611C4FA004F0ECFD95ED460A03A8FFF759
:103BB000EBFE01464CA004F0E3FD95ED470A03A897
:103BC000FFF7E2FE014648A090E0E4E00AE105E1EB
:103BD000A5E00000303132333435363738394142D0
:103BE000434445464748494A4B4C4D4E4F5051522D
:103BF000535455565758595A000000000000000011
:103C00000000F03F000000000000F0BF00000000D6
:103C10000000000000000000000024409A647EC5FF
:103C20000E1B514A0000000084D797412E0000006F
:103C30006F12033A00007A449809002061757820D9
:103C400025752025750D0A00496E76616C69642022
:103C50004665617475726520696E6465783A206D99
:103C6000757374206265203C2025750D0A000000E4
:103C70006C6F61640000000057726F6E67206E7594
:103C80006D626572206F6620617267756D656E7416
:103C9000732C206E65656473206964782074687283
:103CA00020726F6C6C207069746368207961770D85
:103CB0000A000000437573746F6D206D697865723A
:103CC0003A200D0A4D6F746F720954687209526F71
:103CD0006C6C095069746368095961770D0A0000BA
:103CE0002325643A090000002573090004F048FD0B
:103CF00095ED480A03A8FFF747FE0146AFF218000A
:103D000004F03EFD95ED490A03A8FFF73DFE01468C
:103D1000F7A004F035FD641C0C2CFFF637AF002033
:103D20001BE000BF07EB00119DED000AD1ED470A33
:103D3000401C30EE200A8DED000A9DED010AD1ED08
:103D4000480A30EE200A8DED010A9DED020AD1ED00
:103D5000490A30EE200A8DED020AB042E2DBE6A00D
:103D6000FFF7C1F8E84E00246D4600BF05EB840064
:103D700090ED000AB0EEC00A10EE100AB04201DD6C
:103D8000E2A000E0E2A0FFF7AEF8641C032CEDDB3C
:103D9000AFF2B800F2E62021284606F0F1F800283C
:103DA0003FF4EEAE401C054606F0F3F8D94FC6B21C
:103DB000002400BF57F8241031B13246284606F0DF
:103DC000F0F818B1641CF5E7D3A0D7E6204603F05D
:103DD0007DF857F82410D6A004F0D2FCC5A0FFF758
:103DE00073FE35E60C21D7A004F0CAFC30E610B50E
:103DF000DEA0FFF778F8012001F01AF8E2A0FFF743
:103E000072F80A20FEF786FEBDE810400020FEF79B
:103E10001BBF7CB504460D4600790021062814D24C
:103E2000DFE800F003060A0D111EA06801780CE01F
:103E3000A06890F9001008E0A068018805E0A0687B
:103E4000B0F9001001E0A0680168D3A004F098FC6C
:103E5000002D04D0D4E90312D0A004F091FC7CBD65
:103E6000A06890ED000A6846FFF78EFD0146CDA0E0
:103E700004F086FC002DF2D094ED030A6846B8EEFB
:103E8000C00AFFF781FD0146C7A004F079FC94ED5C
:103E9000040A6846B8EEC00AFFF776FD0146C2A0E4
:103EA00004F06EFC7CBD2DE9F041C0A02DED048B2B
:103EB00084B004F065FC8FA0FFF7D9FDC74D95498C
:103EC000687901EB800050F8041CC5A004F058FC90
:103ED00095ED460AB5EEC00AF1EE10FA5CD000246A
:103EE00005EB041090ED468AB5EEC08AF1EE10FAAB
:103EF0004ED000F58E70611CD0EC038ABBA004F09C
:103F00003FFCB5EEC08AF1EE10FA02D2B9A004F07F
:103F100037FC6846B0EE480AFFF736FD0146A1A01F
:103F200004F02EFCF5EEC08AF1EE10FA02D2B1A038
:103F300004F026FC6846B0EE680AFFF725FD01464E
:103F400098A004F01DFCB5EEC09AF1EE10FA02D272
:103F5000A8A004F015FC6846B0EE490AFFF714FD6E
:103F6000014690A004F00CFCF5EEC09AF1EE10FAB8
:103F700002D2A0A004F004FC6846B0EE690AFFF784
:103F800003FD01465AA004F0FBFB641C0C2CA7DBCC
:103F9000611C99A004F0F4FB00F0AAFF5D4F00241F
:103FA0000646503757F8241021B198A004F0E8FBDA
:103FB000641CF7E700244FF0010800BF57F82410F5
:103FC00041B108FA04F0304202D094A004F0D8FBCA
:103FD000641CF3E7954A002069462C18135C94F89A
:103FE0008C40401C08280B55F7DB00220A5490A097
:103FF00004F0C6FB914E002404EB840006EB800520
:1040000056F820108EA004F0BBFB00212846FFF7D5
:1040100000FF4BA0FEF767FF641C702CECD304B0CC
:10402000BDEC048BBDE8F08110B588A0FEF75BFF06
:10403000002000F0ABFD88A0FEF755FF0A20FEF738
:1040400069FDBDE810400020FEF7FEBD10B5044636
:1040500085A0FEF748FF3021894805F055FF8949C2
:1040600000200860884908702046BDE81040DBE762
:104070002DE9F047064605F08CFF054600F038FFB5
:10408000DFF8909007464FF0010809F1500955B14B
:104090002A467EA1304605F084FFC8B1307800275B
:1040A0002D2824D011E17BA0FEF71DFF00244546FA
:1040B0004FEA090656F8241041B105FA04F03842D7
:1040C00002D079A004F05CFB641CF3E71CA008E1BB
:1040D00076A0FEF708FF00244FEA090555F82410E2
:1040E0000029F3D070A004F04BFB641CF6E7E9E074
:1040F00025730D0A0000000053616E697479206316
:104100006865636B3A0900000AD7233C4E470900F3
:104110004F4B090044BF0008496E76616C6964200A
:104120006D6978657220747970652E2E2E0D0A00E7
:104130004C6F61646564202573206D69782E2E2E86
:104140000D0A00004D6F746F72206E756D6265729E
:10415000206D757374206265206265747765656E85
:10416000203120616E642025640D0A00526573655C
:104170007474696E6720746F2064656661756C7411
:10418000732E2E2E0D0A00005265626F6F74696ED9
:10419000672E2E2E000000002564000020256420DC
:1041A000256400002573000020257300437572729A
:1041B000656E7420436F6E6669673A20436F70794D
:1041C0002065766572797468696E672062656C6FC8
:1041D0007720686572652E2E2E0D0A009809002042
:1041E0006D697865722025730D0A0000636D69782A
:1041F0002025640020000000636D6978202564207C
:10420000302030203020300D0A00000066656174D7
:10421000757265202D25730D0A00000066656174B6
:104220007572652025730D0A0000000050C9000852
:104230006D61702025730D0A0000000090C0000819
:10424000736574202573203D20000000536176695A
:104250006E672E2E2E0000000D0A5265626F6F747D
:10426000696E672E2E2E00000D0A4C656176696E10
:104270006720434C49206D6F64652E2E2E0D0A0079
:10428000680900200C020020410400206C6973744E
:1042900000000000456E61626C65642066656174B3
:1042A000757265733A2000002573200041766169BC
:1042B0006C61626C652066656174757265733A2025
:1042C000000000000127761C6D1E002459F8241000
:1042D00031B12A46304605F064FE30B1641CF5E782
:1042E000F3A0BDE8F047FEF7FEBD08FA04F01FB1E9
:1042F00000F0F9FDF5A002E000F08AFCF6A0FEF760
:10430000F2FD59F82410AFF21820BDE8F04704F090
:1043100037BA70B50024F3A0FEF7E5FDF74D00BFF6
:1043200004EB440005EB80014A6855F82010F4A026
:1043300004F026FA641C0D2CF2D370BD3EB5054680
:1043400005F027FE08281DD10024285D05F09AFD00
:104350002855641C082CF8D30024EB48295D05F08F
:104360000FFE28B12819295D401C05F009FE18B17F
:10437000E6A0FEF7B8FD3EBD641C082CEDD3284630
:1043800000F07EFBE9A0FEF7AEFDDF4BED4A00201A
:10439000694615181C5C95F88C50401C08284C5533
:1043A000F7D300220A54AFF2B82004F0E9F93EBD79
:1043B0002DE9F041804605F0ECFDD04EE14F10F0C4
:1043C000FF05A6F1B00612D02A46AFF240114046D2
:1043D00005F0E7FD90B1002456F82410F9B12A4603
:1043E000404605F0DEFD00B3641CE4B2F4E77879E2
:1043F00006EB800050F8041CD3A01BE0D7A0FEF70A
:1044000072FD002456F8241031B1AFF2641004F0AC
:10441000B7F9641CE4B2F5E7AFF2DC2001E0AFF2DB
:104420000830BDE8F041FEF75EBD601C787156F8BB
:104430002410CFA0BDE8F04104F0A2B92DE9F0416D
:1044400080462DED028B05F0A4FDAC4F060007F170
:104450009C072BD0012E03D198F800002A2825D0E4
:10446000C8A1404605F06AFD002838D0401C04462B
:1044700005F0B0FD08EE900A2046FFF7C7F9B0EE50
:10448000408A002404EB840607EB860557F82600D3
:1044900005F07FFD024657F82610404605F081FDE5
:1044A00000B3641C702CEDD3B7A057E0BEA0FEF79C
:1044B0001AFD002404EB840007EB800557F8201058
:1044C000AFF2802004F05CF931462846FFF7A1FCEA
:1044D000AFF29430FEF707FD641C702CEAD3BDECFC
:1044E000028B9FE504EB840007EB800191ED030A4A
:1044F000B8EEC00AB4EEC80AF1EE10FA2DD891ED6C
:10450000040AB8EEC00AB4EEC80AF1EE10FA24DBD1
:104510000979052901D0B0EE688A062911D2DFE8B1
:1045200001F0030308080D0DAA6818EE101A1170A7
:1045300007E0AA6818EE101A118002E0A96881ED60
:10454000008A57F820109EA004F01AF9BDEC028BE7
:104550002846BDE8F04100215BE49CA0BDEC028B45
:10456000BDE8F041FEF7BFBC2DE9F041FEF7C3FA0C
:104570004FF47A71B0FBF1F19E4803789E480278BF
:104580009EA004F0FDF800F0A3FC0546AB48AC4942
:104590000068B0FBF1F1ABA004F0F2F8574F002433
:1045A00001262C3F57F8241051B106FA04F0284296
:1045B00003D0AFF20C3004F0E3F8641CE4B2F1E78E
:1045C000012000F073FCA8B1A64C4C4821781438A7
:1045D00050F82110A4A004F0D3F82078022809D1C3
:1045E000584890F85C0008B16F2100E06E21A1A04E
:1045F00004F0C6F8AFF2B840FEF775FCFDF790FA8C
:1046000002469D480188BDE8F0419CA004F0B8B87E
:10461000A3A0FEF768BC2DE9FF5FDFF8B49299F81C
:10462000000038B9012189F80010AAA0FEF75BFC50
:1046300000F0FAF9DFF8D4A2DFF8D4B2FEF71EFCDE
:10464000002833D0FEF730FC092806D03F2804D0DC
:10465000DAF80010554631B384E1284D00273E4674
:1046600005F19C08DAF800400CE000BFDAF8002001
:1046700022B1A748296805F094FC10B907B92F4664
:104680002E460C354545F1D377B150465D4601685D
:104690003A683368525C5B5C9A4205D12AB16A542D
:1046A000491C0160F3E75BE13AE133E1BAE1000064
:1046B000496E76616C696420666561747572652007
:1046C0006E616D652E2E2E0D0A0000004469736127
:1046D000626C656420000000456E61626C65642058
:1046E00000000000417661696C61626C6520636F57
:1046F0006D6D616E64733A0D0A000000F4BF00082E
:1047000025730925730D0A0050C900084D7573748F
:1047100020626520616E79206F72646572206F6619
:104720002041455452313233340D0A0043757272C0
:10473000656E742061737369676E6D656E743A207F
:10474000000000009809002043757272656E7420A5
:104750006D697865723A2025730D0A0041766169AA
:104760006C61626C65206D69786572733A20000037
:104770004D697865722073657420746F2025730D00
:104780000A0000003D0000004552523A20556E6B71
:104790006E6F776E207661726961626C65206E6102
:1047A0006D650D0A0000000043757272656E74201D
:1047B00073657474696E67733A200D0A0000000017
:1047C00025732073657420746F2000004552523A9F
:1047D0002056616C75652061737369676E6D656ED7
:1047E00074206F7574206F662072616E67650D0AA4
:1047F00000000000E30300203C03002053797374A1
:10480000656D20557074696D653A20256420736567
:10481000636F6E64732C20566F6C746167653A2009
:104820002564202A20302E3156202825645320620A
:10483000617474657279290D0A000000000000207F
:1048400040420F004350552025644D487A2C206487
:10485000657465637465642073656E736F72733A13
:1048600020000000FC03002041434348573A202524
:10487000730000002E2563003E0300204379636C23
:10488000652054696D653A2025642C204932432007
:104890004572726F72733A2025640D0A00000000A1
:1048A0004166726F333220434C49207665727369DA
:1048B0006F6E20322E31204170722032382032301B
:1048C0003133202F2031313A34303A34390000006E
:1048D000410400200D0A456E746572696E672043BD
:1048E0004C49204D6F64652C2074797065202765D4
:1048F0007869742720746F2072657475726E2C202D
:104900006F72202768656C70270D0A000C0200206A
:104910006809002020220BF80120491CCAF8001069
:10492000DAF80000554608B1B7420FD040A0FEF7B4
:10493000DAFA06E03868FEF7D6FA0920FEF7C1FA7F
:104940000C37B742F6D900F06FF800245E462868AD
:104950008442BFF473AE305DFEF7B3FA641CF6E731
:10496000042812D00C2816D019B10A2817D00D2807
:1049700015D07F2840D03029EBD22028FFF45EAE3E
:104980007E283FF65BAEB1B344E004B02A48BDE8F0
:10499000F05FFFF75BBB29A0FEF7A5FA28E0AFF6B2
:1049A0006000FEF7A0FA286800265F460BF800605A
:1049B0002548CDE9000B0C230D222449029601A8BD
:1049C00005F066FA040007D0206805F0E2FA3844E2
:1049D000A168401C884702E01DA0FEF784FA302140
:1049E000154805F091FA2E6099F80000002819D0BA
:1049F00000F01AF822E60BE00029FBD0491E002047
:104A0000CAF800100BF801001AA0FEF76CFA15E6C0
:104A10002028EFD00BF80100491CCAF80010FEF75F
:104A200050FA0BE6BDE8FF9F13A0FEF75CBA00004A
:104A30000D1B5B4B00000000680900201B5B324A25
:104A40001B5B313B31480000553A0008F4BF0008B9
:104A50004552523A20556E6B6E6F776E20636F6DC4
:104A60006D616E642C20747279202768656C7027E4
:104A700000000000082008000D0A232000000000AC
:104A80002DE9F04105460446FA4EFB4F09E0F9488E
:104A900005F076FA20B1611B801B384480F88C1039
:104AA000641C21780029F2D1BDE8F0812DE9F05F86
:104AB0004FF4EE72F149F04805F00DFAEE48F04E71
:104AC000002190F82D2090F82C3040F6C41400BF3F
:104AD00011FB01F5193D554305F6C4154D435D43E2
:104AE00095FBF4F526F81150491CC9B20629EFD3FD
:104AF00090F82E2090F82FA0B0F8A630B0F8A4902F
:104B0000DFF880B300214FF00A0ECAF1640C02EB0B
:104B10008206A3EB090800BF01EB8103C2EB43044B
:104B20000123002C03DDC2F16403DBB201E000DAF3
:104B3000134614FB04F70AFB07F513FB03F395FB7D
:104B4000F3F3634403FB04F393FBFEF303EB46032D
:104B50001BB208FB03F34FF47A7593FBF5F34B4458
:104B60002BF8113001F10101C9B20B29D4D3B0F8EF
:104B7000C810B0F8CA20914203D3B0F8CC209142BB
:104B800000D91146A0F8C810BDE8F09F2DE9F0410A
:104B9000BD49B94D4FF4EE760978297080466E8094
:104BA000BE2100202971EF2185F8D811294685F80A
:104BB000D90101F5EE7202E011F8013B5840914233
:104BC000FAD385F8D901FBF7F1FDF320FBF770FE6E
:104BD00002213820FBF719FE08280AD1A74F00242C
:104BE000E0192959FBF747FE082802D1241DB442D9
:104BF000F6D3FBF7E6FDFFF759FFB8F1000F06D03B
:104C0000BDE8F041012214210F2002F0B1BC4BE7B6
:104C100099498A6802438A6070472DE9F05F954898
:104C20004FF4EE710C30B0E80007934805F06CF9D2
:104C30009548914C00250078207003206071022077
:104C4000A560FFF7E5FF2820A0731E20207617201F
:104C500084F822002821E1730C341E216173E07571
:104C6000372020712D22A2730B2060710F21E17378
:104C700007216176A0711426E67108206074E2763F
:104C80000E202072A67450202077462060720A27DA
:104C9000E77466772820A072632084F8200084F8E7
:104CA00021604FF0320B84F822B0A4F10C044FF0D5
:104CB0000400C4F84680C4F84A9004F84EAF65700A
:104CC000A070E770A4F8C6B04FF4C870E0804FF051
:104CD0002A00A0804FF00100A0734FF01500E07390
:104CE000A4F14E049FED690A84ED180A9FED680A4D
:104CF0004FF0200084ED190A04F1780404F8100C38
:104D0000644844F8200C4FF06E0020744FF02B00E4
:104D100060744FF02100A0745FA0FFF7B1FEA6778A
:104D200040F2DC50208440F24C41618404F14C0498
:104D300040F26C7124F8281CA4F126044FF0C80836
:104D4000677084F802804FF49661A18040F27E4142
:104D5000E18040F23A7121814FF47A71618104F16E
:104D600026044FF4F57124F81A1C24F818BC4FF0EF
:104D70000101A170A0804FF47F71E1804FF4FA6CC3
:104D8000A4F808C06181A08140F2BC72E281218256
:104D90006082A282A575E57525764FF001036376E2
:104DA000A3764FF0FF03E3764FF001032377E1830F
:104DB00020846284A184E0842285637784F82A7049
:104DC00084F82B7084F82C30E185A4F830C060861C
:104DD000A186A4F836C0208784F83A504FF4E13019
:104DE000E063A4F8408004F8426F4FF01E01617048
:104DF0004FF00101A1704FF06401A180A4F14204C1
:104E00004FF49671A4F84810E0649FED260AA4F1CF
:104E1000C4044FF0000000BF04EB001100F10100DA
:104E200081ED460A0C28F7DBBDE8F05F0020ADE617
:104E300030B41249144C00220B7825781446AB424A
:104E400013D14B88B3F5EE7F0FD10B79BE2B0CD16C
:104E500091F8D831EF2B08D101F5EE7311F8015B11
:104E60006A409942FAD302B90124401E04421BD180
:104E700030BCD2E650C9000898090020000006089E
:104E8000B00F0020BC0F0020100200209A99193F9B
:104E9000F6287C3F03141400414554523132333418
:104EA000000000000000000030BC70471249496853
:104EB000014201D001207047002070470E494A6826
:104EC00002434A6070470C494A6882434A6070470F
:104ED00009484068704709498968014201D00120AA
:104EE00070470020704705498A6882438A6070478E
:104EF00002488068704700001002002098090020D6
:104F000070B50446FE4D09E0FEF732F995F8FE0053
:104F1000012802D10420FDF7FDFD641C2078002843
:104F2000F2D100BFFEF736F90028FBD0BDE8704093
:104F30001E20FDF7EFBD44F25061884201DDA0EB79
:104F40004100F049884202DA48F6A041084470471F
:104F500010B5546891ED001A041B00EE104AE84C9D
:104F6000B8EEC00AC0EE010AC2ED040A94F8064188
:104F700000EE104AB8EE400A9FEDE31AF7EE001A71
:104F800020EE010A81EE801A91ED000A71EE001AFE
:104F900080EE211A92ED020A70EEC00A01EE200A9C
:104FA00082ED040A506082ED020AD3ED020A20EE7F
:104FB000800ABDEEC00A10EE100A10BD00EE900A85
:104FC00093ED011A92ED000AF8EEE00A61EE200A74
:104FD00091ED001A00EE810A82ED000AD3ED030A7A
:104FE000B1EE601AB4EEC10AF1EE10FA02D2B0EEE0
:104FF000410A06E0B4EEE00AF1EE10FA01DDB0EE8F
:10500000600A82ED000ABDEEC00A10EE100A704779
:1050100010B5BE4CD4E90D01401AFFF78CFF0028F3
:10502000D4E90D01A0EB010002DDFFF784FF02E0EF
:10503000FFF781FF404241F2941188422CDAD4E913
:105040000D01401A00EE100AB8EEC00ADFEDB00AFA
:1050500020EE200A06F0C8FCD4ED0F0AAD49F8EEA8
:10506000600A20EE200ABDEEC00A10EE100A00B25F
:105070002082884202DB4942884200DD0846616B9B
:10508000084448F6A0416064884200DD401A0028C8
:1050900000DA0844606410BD606BFBE72DE9F04F57
:1050A00081462DED028B83B0FFF7B2FF974842F2A5
:1050B0002831406C081A00EE100AB8EEC00ADFED85
:1050C000940A20EE208AB0EE480A05F087FD8DEDA7
:1050D000010AB0EE480A06F087FC8C4E0024DFF887
:1050E00038B2DFF838A28DED000A303687488C4997
:1050F0001A3030F9140000EE100A684600EB840004
:10510000F8EEC00A00EE109A90ED001AB8EEC00A50
:1051100051EE000ABDEEE00A10EE100A00B226F8C9
:105120001400884202DB4942884200DD08467A4981
:1051300026F81400603900F0EFFD04EB8408764B8C
:10514000724907460BEB880536F91400603B2A4686
:105150002831FFF733FF704B6C49074436F91400D0
:10516000603B2A462831FFF7F3FE384400B2694914
:105170002AF81400884203DB4942884200DC0146D9
:105180002AF81410644829682838641C40F828104C
:10519000022CABDB03B0BDEC028BBDE8F08F2DE938
:1051A000F05F5A4E00245036DFF870A1A6F1200BB4
:1051B000A6F13609584956F82400803900F0ACFDB4
:1051C00039F814105D46401A534900B22BF8140008
:1051D000703900F0A1FD074635F9140056F8241087
:1051E00004EB840808444C49283901EB8805A1F1F7
:1051F000480346492A462831FFF7E0FE3844464B2B
:1052000042492AF81400574656F82400703B2A46B3
:105210002831FFF79DFE4349884202DB494288421C
:1052200000DD084639F914103131622900D8002018
:1052300037F81410084400B2364927F814008842A1
:1052400002DB4942884200DD084627F81400324854
:105250002968641C40F82810022CABDBBDE8F09FE5
:1052600009681B68C91A00EE101A2849B8EEC00A6E
:10527000D1ED0B0A503120EE200ABDEEC00A81EDBF
:10528000010A00681268801A0860704770B52DED39
:10529000028B126800680968101A00EE100A18687C
:1052A000DDE90654F8EEC08A401A00EE100A1748ED
:1052B000B8EEC00AD0ED0B0A20EE208A28EEA80A2C
:1052C00008EE080A06F04CFCDFED170A20EE200A73
:1052D000F0EE480ABCEEC00A85ED000AB1EE680A9D
:1052E00005F058FB9FED111ADFED110A40EE010A9F
:1052F000BDEEE00A10EE100A206000281EDA19E068
:1053000098090020B0B9FFFFDB0FC9401802002048
:10531000D302373948F4FFFF040C00208403002037
:1053200018FCFFFF30F8FFFF2C7D8E3FA00CB3452B
:1053300000A00C4648F6A04108442060BDEC028B5A
:1053400070BDF0B5FA49F948D1E90032447800F16E
:10535000480CCCB3D0ED0A0AB7EE001ADCF8041002
:1053600081EE200A511A00EE901A90ED0B1A00F10E
:105370001A06F8EEE00A60EE810A60EE800AFDEEA1
:10538000E00A10EE901A0CB2DCF80010591A00EE88
:10539000901AF8EEE00A20EE800ABDEEC00A10EE88
:1053A000101A0DB200F12401B1F902703C4404EB73
:1053B000D47464107480B1F900703D4405EBD57568
:1053C0006D1035804C800D8001214170CCE9003298
:1053D000F0BD00EE100A10B5B8EEC00A002801DCDE
:1053E000B1EE400A9FEDD31AC0EE010A9FEDD20A3A
:1053F00020EE800A05F0F2FBCC4880ED0B0A10BDD0
:1054000010B5CE4CE07A002811D0CD4800780528A0
:105410000DD3C749CB4A0868106049685160FFF74F
:10542000D8FFC948C149008888820120207310BD77
:1054300030B5BE49C14B01248D7AC4480022022DEB
:1054400007D0032D19D0062D25D0122D35D00020E0
:1054500030BDB74DD0F804C0C5F804C0D0F808C0BE
:10546000C5F800C000694FF47A7590FBF5F0B84DAF
:105470002880C87AD8724C732AE04479E40702D0B5
:105480000079032803D00020C87210B120E0012069
:10549000FAE7DA721CE0C47AE40702D0847A032CBB
:1054A00003D00024CC7214B102E00124FAE7DA72CE
:1054B000A34B90F82F0018700AE0A64D43692B808B
:1054C000806942F2107390FBF3F0A34B18808C7349
:1054D000487B8B7B1840BBD04A738A73012030BD58
:1054E0002DE9F04791494FF000080A464E7AD579E8
:1054F000137A2C18B2F816C04FF00109E4B24246F4
:10550000092E56D2DFE806F0080510161D24344493
:105510004A00622803D04A72B52802D049E002202E
:1055200034E081F8099044E003224A720873C8719C
:1055300008723EE004224A72CC71E2180A72887244
:1055400037E005224A72CC71E2180A72C88230E054
:1055500006254D720CEB0020CC71234480B20B72F7
:10556000C882B0F5007F01D9CA824A720A8320E05E
:10557000CC71E2180A720A8B402A01D2734B9854FC
:10558000521C90B20883604513D10720487210E086
:1055900008234B7285420CD04A720AE04A72834259
:1055A00007D16E4880F80090FFF742FF08B14FF036
:1055B00001084046BDE8F08770B50346002002466A
:1055C000054611E02E2C04D1521C00290FD054188E
:1055D0001D559C5C00EB80004000A4F13006092EB4
:1055E00001D830382044521C9C5C002CEAD170BD9C
:1055F0002DE9F0410026804637463546044604F042
:105600003DFC006800E0641C2178415C2029FAD050
:1056100009E01EB106EB860149060E0E18F8011BC3
:10562000303E3144CEB2A4EB08010229F1DC09E09E
:105630001FB107EB870149060F0E18F8011B303F19
:105640003944CFB24445F3D821782E290FD1641CB8
:105650005FF0000105EB850255002278835C202B6A
:1056600002D1303D1544641C491C0429F2DB3C483E
:105670000621474305EBC50000EB051007EB800052
:10568000B0FBF1F037494E4300EBC610BDE8F081A6
:105690002DE9F0470025254E04462F464FF001091D
:1056A000242815D029483146E038C9782C2C13D04D
:1056B0002A2C11D032460D2C527970D00A2C6ED083
:1056C0000F2902D24454491CF170002A68D0ACE082
:1056D000B770F7703771A8E04754B178B8463A46CA
:1056E00029B1B279012A3FD0022A7CD093E0B2716D
:1056F0000178472907D14178502904D18178472979
:1057000002D0522909D086E0C178472904D1007916
:10571000412801D186F806907DE0C1784D297AD1E3
:105720000079432877D10220B07174E0180200207C
:10573000B40300208096184B35FA8E3CA00F002051
:105740003D030020BC0300203C040020540C00203A
:10575000F0030020F2030020E0030020E203002019
:1057600040420F002D310100F84F02290CD00329CF
:105770000ED0042915D0052917D006291CD00729D9
:1057800024D0092929D046E0F148FFF731FF04E091
:10579000007853283FD13868404238603BE051E000
:1057A00040E0EB48FFF724FF04E00078572832D1AF
:1057B0007868404278602EE00078302801D90120D6
:1057C00000E00020E349C87225E00CE00021E04839
:1057D000FFF7F2FEE04908701DE00021DC48FFF70A
:1057E000EBFEDE4916E0072902D008290DD012E0B1
:1057F0000121D748FFF7E0FE41F2184148434FF43A
:105800007A71B0FBF1F0D64904E00121D048FFF7EE
:10581000D3FED4490880B078401CB07086F803806D
:105820002A2C0CD0307960403071B07910B1CE4A5A
:1058300082F800900DB1012800D00020BAE686F869
:105840000590F2E772B18046007800F098FA040102
:1058500098F8010000F093FA20443179C0B28842F0
:1058600000D101257771E0E72DE9FF5FBF49C0B2A4
:1058700091F8FE1019B1012904D002297ED1FFF759
:1058800007FF01E0FFF72CFE002877D0B8484FF063
:10589000000B0178012910D001210170AD48C17AB7
:1058A00000296BD0AC490978052967D38246407836
:1058B00030B19AF80C1031B108E080F800B0EDE793
:1058C0008AF80CB002E008B1FFF79AFDA949052358
:1058D000DFF8788208789E46401CB0FBF3F203FBA9
:1058E00012020A70A449002091F90090A14958F8C9
:1058F000203068319F4C41F82030A049783493FB28
:10590000F1F144F820109E4C00EB80054C4303EB72
:10591000C41342F2107493FBF4F41FFA84FC954C08
:10592000403424F810C08A4CB83404EB8505914CFF
:1059300055F82260603454F8207045F82230BE1BC0
:10594000334444F8203093FBFEF38D4C64426143B2
:1059500003EBC111874B7033B9F1010F43F82010ED
:1059600006D1ACF1020CBCF5797F01D848F82010C3
:10597000401C0228BADBFDF7BEF800E081E07D4C58
:10598000216A401A00EE100AB8EE400ADFED7D0AE7
:1059900080EE201A84ED0A1AFDF7ADF82062A06AA5
:1059A000B0F17E5F02DA00EE100A01E0B7EE000A05
:1059B00084ED0A0A03A902A8734BCDE9000146460B
:1059C0001A1F311D6148FFF761FC02994FF064080E
:1059D000B1FBF8F26D4955460A80039A92FBF8F044
:1059E0006B4A10809AF80C0018B9A1F800B0A2F820
:1059F00000B0FFF7A6FC287A10B9E879002840D05B
:105A00005C493546343101F1080000F11C07CDE94D
:105A100000013B1D3A46311D4C48FFF737FC2B1D5A
:105A20004A4A391D3846FFF71BFC534D95F90000D3
:105A3000012828D0022824D14C4E0121B6F90C01AE
:105A400000F077F9FFF72AFB96F80801514A18B1E0
:105A5000616C91FBF8F01080B6F80401E16B8842AC
:105A60000BD2D4E90D01401AFFF765FA002800DCDB
:105A7000404242F21071884203DD01202870A08A62
:105A80001080BDE8FF9FFFF78AFBFAE73748123026
:105A9000017800EE101A2E49F8EE400A9FED3E0AFA
:105AA000103180EE801A81ED001A827A00EE902A81
:105AB000F8EE600A80EE801ADFED380A81ED011AF7
:105AC000C1ED030A417801EE101A2149F8EE411A9E
:105AD000B2EE041A203181EE812A81ED002AC27AC9
