:020000040800F2
:10000000B01900209D010008A50100080F37000865
:10001000A9010008AB010008AD01000800000000C4
:10002000000000000000000000000000AF01000818
:10003000B101000800000000B30100084585000878
:10004000B7010008B7010008B7010008B7010008B0
:10005000B7010008B7010008B7010008B7010008A0
:10006000B7010008B70100082B690008B7010008B4
:10007000B7010008B7010008B7010008B701000880
:10008000B7010008B7010008B7010008B701000870
:10009000B7010008B7010008B70100082D69000882
:1000A000B7010008B7010008B7010008657D000826
:1000B000A17E0008F17E0008737F0008F36F00083E
:1000C000D16D0008F76F0008F56F0008B701000850
:1000D000B7010008B7010008BF8A0008698C000852
:1000E000B7010008B7010008B7010008B701000810
:1000F000B7010008B7010008037E0008B701000837
:10010000B7010008B701000809800008B70100081E
:10011000B7010008B7010008B7010008B7010008DF
:10012000B7010008B7010008B7010008B7010008CF
:10013000B7010008B7010008B7010008B7010008BF
:10014000B7010008B7010008B7010008B7010008AF
:10015000B7010008B701000853870008B70100087D
:10016000B7010008B7010008B7010008B70100088F
:10017000B7010008B7010008B7010008B70100087F
:10018000B7010008B7010008DFF80CD00BF0FAFB4C
:100190000048004753350008B01900200648804742
:1001A00006480047FEE7FEE7FEE7FEE7FEE7FEE75C
:1001B000FEE7FEE7FEE7FEE7C98C000889010008BC
:1001C0002DE9F0417E4D044601262878F70280B9DA
:1001D00008F0D7F9A9683231884207D379482E70E0
:1001E000078008F0CEF9A860BDE8F08128780028E3
:1001F000FAD008F0C6F9A96821448842F4D3002057
:1002000028707048801C078008F0BBF9A8606E4811
:10021000017809B1491E01706E70E5E7F8B5684DC7
:100220008DF800008DF801108DF802208DF8033054
:10023000A8791DF8001044292FD04C292BD04D2926
:1002400027D04E292CD032240026032806D274B1A0
:100250002046FFF7B5FFA879032808D308F091F9E5
:10026000A968001B884202D95748AE7106706878A9
:10027000012801D0002C0BD1A879032801D2401C01
:10028000A87150496E70891C2E704FF40060088070
:10029000F8BD6424D8E7C824D6E74FF4FA64D3E75E
:1002A0000024D1E72DE9F047DFF820A10446444DB2
:1002B0009AF80D004FF00109002610B185F8029060
:1002C00000E0AE704FF4007001F052FD404F18B3E3
:1002D000404941484FF0020891F86430B0F90000FD
:1002E00003EB830282420FDA97F801C0BCF1000FE2
:1002F0000AD085F8049091F86510194401EB81014A
:10030000814201DA85F80480824203DA797809B9FA
:1003100085F8048000B92E71102001F014FD40B161
:100320009AF80A1011B99AF80B0008B1F87AA8B136
:10033000EE702879022814D0012817D0E878012817
:1003400017D0A878012817D0042C19D0022C1ED061
:10035000012C1ED0687901281ED022E085F8039078
:10036000E7E74E22442311464C200DE04D234C225A
:1003700008E04D234E2201E04D235322532102E099
:1003800044234D224D215320BDE8F04746E7442346
:1003900005E044234E22F5E7787810B14E234D2234
:1003A000ECE70948007818B1BDE8F047322007E7CC
:1003B00004492E70891C4FF400600880BDE8F08766
:1003C00000000020180C0240300100207A0C0020B0
:1003D000480C0020A40800203E01002070B51546FE
:1003E000B0FBF5F60446A84203D33046FFF7F6FF0C
:1003F000014605FB1640ECA2105C0870481C70BD5D
:1004000070B50C46911E232900D30A22002500282E
:1004100004DA2D212170611C404200E02146FFF7E3
:10042000DDFF0570204670BD70B504462DED0C8BC8
:1004300000E0641C20782028FBD00928F9D09FED2B
:10044000E4ABC1B22D29B0EE4ABAF0EE6ABA02D0DE
:100450002B2802D002E09FEDE0BB641C9FEDE08BF7
:100460009FEDE1CB11E000BF0BF06AF941EC190BF5
:1004700053EC1C2B51EC180B0BF083F853EC192B9D
:100480000AF0D9FF41EC180B641C20783038092899
:10049000EAD920782E2822D1B0EE4C9AF0EE6C9A50
:1004A000641CB0EE4CDAF0EE6CDA14E00BF048F9B4
:1004B00053EC192B0BF0D5F853EC182B0AF0BBFFBB
:1004C00041EC180B53EC1D2B51EC190B0BF059F8A8
:1004D00041EC190B641C207830380928E6D92078C3
:1004E000652801D045284CD114F8010F00262D288D
:1004F00002D02B2801D001E00126641C00256FF0FA
:100500002F0105E005EB850201EB42028518641C12
:1005100022781046303A092AF4D94FF49A7085426D
:100520000BD905469FEDB20B51EC1A0B53EC102B77
:100530000BF027F841EC1A0B323D322DF2D29FED31
:10054000AE9B082D13D353EC192B51EC1A0B0BF067
:1005500018F841EC1A0B083DF3E700BF53EC1C2BD5
:1005600051EC1A0B0BF00DF841EC1A0B6D1E002D1F
:10057000F4D136B153EC1A2B51EC180B0BF071F887
:1005800005E053EC1A2B51EC180B0AF0FAFF53EC70
:100590001B2B0AF0F6FF0BF0E4F8BDEC0C8B00EE21
:1005A000100A70BDF0B587B0002607460096019688
:1005B00093A5DFED940AB5EEC00A0296F1EE10FAAB
:1005C00002DD30EE200A01E030EE600ADFED8E0A37
:1005D00020EE200ABDEEC00A10EE104A002C01DD0C
:1005E000204600E060420A2203A9FFF709FF002C21
:1005F00001DB202000E02D208DF8000003A80AF088
:10060000ECFE302401280AD003A80AF0E6FE0228F6
:100610000CD003A80AF0E1FE03280CD00DE08DF801
:1006200001408DF802408DF8034006E08DF801404E
:100630008DF8024001E08DF8014003A968460AF0F8
:1006400093FE68460AF0C9FEC01EC4B2224669463F
:1006500038460AF0ADFE3E55294638460AF084FE7B
:100660000DEB040138460AF07FFE07B03846F0BDB6
:1006700070B505460C4608680AF0AFFE02462168D0
:100680002868BDE870400AF0B0BE70B505460AF0B3
:10069000A4FE5E4E10F0FF0F0FD028460AF0BEFEFB
:1006A0000446142815DA202128460AF08DFE0AF0A7
:1006B000B5FE06EB4401088770BD002406EB44003C
:1006C0002146028F52A004F059FC641C142CF5DB67
:1006D00070BDBDE87040142150A004F04FBCF0B5CF
:1006E00000242DED028B87B0054626460AF075FEE4
:1006F00010F0FF0F9FED538A534F51D0052253A1A5
:1007000028460AF072FE00284BD0042251A1284648
:100710000AF06BFE002845D02E4628460AF07EFEE1
:10072000451E0C2D3FDA202130460AF04DFE060012
:1007300008D0701C0646FFF777FE07EB0510012472
:1007400080ED040A202130460AF03EFE060008D063
:10075000461C3046FFF768FE07EB0510641C80ED71
:10076000050A202130460AF02FFE060008D0701C32
:100770000646FFF759FE07EB0510641C80ED060ADC
:10078000202130460AF020FE38B1401CFFF74CFE15
:1007900007EB0510641C80ED070A042C7ED05DE099
:1007A00064E0DFE0E6E00BE13031323334353637F8
:1007B00038394142434445464748494A4B4C4D4EDF
:1007C0004F505152535455565758595A0000000033
:1007D000000000000000F03F000000000000F0BF3B
:1007E00000000000000000000000000000002440A5
:1007F0009A647EC50E1B514A0000000084D79741C1
:100800002E0000006F12033A00007A44A408002072
:100810006175782025752025750D0A00496E766171
:100820006C6964204665617475726520696E6465E3
:10083000783A206D757374206265203C2025750D13
:100840000A00000000000000A40500207265736526
:10085000740000006C6F616400000000E9A000BF3C
:1008600008F089F807B0BDEC028BF0BDF4A008F0E9
:1008700082F8002407EB041595ED040AB5EEC00AD2
:10088000F1EE10FA2DD0761C611CF8A004F076FB76
:1008900095ED040A03A8FFF785FE00E08CE0014611
:1008A000F4A004F06BFB95ED050A03A8FFF77AFEB0
:1008B0000146F0A004F062FB95ED060A03A8FFF7DD
:1008C00071FE0146EBA004F059FB95ED070A03A861
:1008D000FFF768FE0146E8A004F050FB641C0C2CF6
:1008E000C8DB8DED028A8DED018A8DED008A002036
:1008F0001BE000BF07EB00119DED000AD1ED050ADA
:10090000401C30EE200A8DED000A9DED010AD1ED6C
:10091000060A30EE200A8DED010A9DED020AD1EDA6
:10092000070A30EE200A8DED020AB042E2DBD4A0C5
:1009300008F021F8D64E00246D4600BF05EB840078
:1009400090ED000AB0EEC00A10EE100AB04201DDD0
:10095000D0A000E0D0A008F00EF8641C032CEDDB62
:10096000C1A07DE707EB0011401C81ED048A0C2833
:10097000F8DB77E7202128460AF026FD0028F8D08A
:10098000401C05460AF029FDC44FC6B2002400BF32
:1009900057F8241031B1324628460AF026FD18B126
:1009A000641CF5E7BEA05BE7204602F015FF57F890
:1009B0002410C1A004F0E2FAB0A0FFF790FE51E7C6
:1009C0000C21C2A004F0DAFA4CE710B5C9A007F078
:1009D000D2FF012001F0A8F9CDA007F0CCFF0A203A
:1009E00007F0DFFDBDE81040002007F078BE7CB5C1
:1009F00004460D4600790021062814D2DFE800F0F5
:100A000003060A0D111EA06801780CE0A06890F999
:100A1000001008E0A068018805E0A068B0F90010A7
:100A200001E0A0680168BEA004F0A8FA002D04D07F
:100A3000D4E90312BBA004F0A1FA7CBDA06890ED3C
:100A4000000A6846FFF7AEFD0146B8A004F096FA2A
:100A5000002DF2D094ED030A6846B8EEC00AFFF705
:100A6000A1FD0146B2A004F089FA94ED040A68469B
:100A7000B8EEC00AFFF796FD0146ADA004F07EFA7D
:100A80007CBD2DE9F041ABA02DED048B84B004F0CA
:100A900075FA7AA0FFF7F9FDB24D8049687901EB4C
:100AA000800050F8041CB0A004F068FA95ED040A28
:100AB000B5EEC00AF1EE10FA5BD0002405EB04108D
:100AC00090ED048AB5EEC08AF1EE10FA4DD01430E4
:100AD000611CD0EC038AA7A004F050FAB5EEC08ADE
:100AE000F1EE10FA02D2A5A004F048FA6846B0EE82
:100AF000480AFFF757FD01468CA004F03FFAF5EED7
:100B0000C08AF1EE10FA02D29CA004F037FA6846CF
:100B1000B0EE680AFFF746FD014684A004F02EFA05
:100B2000B5EEC09AF1EE10FA02D294A004F026FAC3
:100B30006846B0EE490AFFF735FD01467BA004F098
:100B40001DFAF5EEC09AF1EE10FA02D28BA004F075
:100B500015FA6846B0EE690AFFF724FD014646A083
:100B600004F00CFA641C0C2CA8DB611C84A004F0BB
:100B700005FA01F00AF9494F0024064617F14C071F
:100B800057F8241021B183A004F0F8F9641CF7E7AA
:100B900000244FF0010800BF57F8241041B108FAB3
:100BA00004F0304202D07FA004F0E8F9641CF3E7BF
:100BB000804A002069462C18135C94F80241401CBE
:100BC00008280B55F7DB00220A547BA004F0D6F965
:100BD0007C4E002404EB840006EB800556F82010C0
:100BE00079A004F0CBF900212846FFF700FF1EA0F2
:100BF00007F0C1FE641C682CECD304B0BDEC048B80
:100C0000BDE8F08157726F6E67206E756D62657218
:100C1000206F6620617267756D656E74732C206E2F
:100C200065656473206964782074687220726F6CE3
:100C30006C207069746368207961770D0A00000088
:100C4000437573746F6D206D697865723A200D0A73
:100C50004D6F746F720954687209526F6C6C095051
:100C600069746368095961770D0A00002325643AA5
:100C7000090000002573090025730D0A000000001B
:100C800053616E69747920636865636B3A0900008B
:100C90000AD7233C4E4709004F4B090068C30008A0
:100CA000496E76616C6964206D697865722074792B
:100CB00070652E2E2E0D0A004C6F61646564202530
:100CC00073206D69782E2E2E0D0A00004D6F746F03
:100CD00072206E756D626572206D75737420626529
:100CE000206265747765656E203120616E64202511
:100CF000640D0A00526573657474696E6720746FC1
:100D00002064656661756C74732E2E2E0D0A0000CA
:100D10005265626F6F74696E672E2E2E00000000A0
:100D20002564000020256420256400002573000050
:100D30002025730043757272656E7420436F6E6672
:100D400069673A20436F70792065766572797468B7
:100D5000696E672062656C6F7720686572652E2EFC
:100D60002E0D0A00A40500206D6978657220257398
:100D70000D0A0000636D69782025640020000000E2
:100D8000636D697820256420302030203020300DBC
:100D90000A00000066656174757265202D25730D6B
:100DA0000A000000666561747572652025730D0A7E
:100DB00000000000E4CC00086D61702025730D0A6E
:100DC00000000000C4C40008736574202573203D32
:100DD0002000000010B5FAA007F0CDFD0121002091
:100DE00000F0E5FDF9A007F0C6FD0A2007F0D9FBE9
:100DF000BDE81040002007F072BC10B50446F7A013
:100E000007F0B9FDFB4900200870FB490860FB4969
:100E100008702046BDE81040DCE72DE9F0470646A3
:100E20000AF0DBFA054600F0B0FFDFF8D49307467E
:100E30004FF0010855B12A46F2A130460AF0D5FA22
:100E4000C8B1307800272D2823D025E0EFA007F087
:100E500092FD002445464E4656F8241041B105FA4D
:100E600004F0384202D0EEA004F088F8641CF3E7E6
:100E7000AFF20C201DE0EBA007F07DFD00244D46F5
:100E800055F824100029F3D0E5A004F077F8641C8D
:100E9000F6E70127761C6D1E5FF0000459F8241058
:100EA00031B12A4630460AF0A0FA30B1641CF5E7A9
:100EB000E2A0BDE8F04707F05EBD08FA04F01FB1FC
:100EC00000F05EFFE4A002E000F0D2FDE5A007F034
:100ED00052FD59F82410AFF26020BDE8F04704F04D
:100EE0004DB870B50024E2A007F045FDC44D68354B
:100EF00004EB440005EB80014A6855F82010E2A09D
:100F000004F03CF8641C0E2CF2D370BD3EB50546CF
:100F10000AF063FA08281DD10024285D0AF0C8F9F8
:100F20002855641C082CF8D30024D948295D0AF000
:100F30004BFA28B12819295D401C0AF045FA18B16E
:100F4000D4A007F018FD3EBD641C082CEDD3284644
:100F500000F072FCD7A007F00EFDCD4BDB4A00205D
:100F6000694615181C5C95F80251401C08284C5520
:100F7000F7D300220A54AFF2003003F0FFFF3EBD6A
:100F80002DE9F04180460AF028FA9D4ECF4F05002A
:100F9000A6F14C0610D002469AA140460AF025FA66
:100FA00088B1002456F82410E9B12A4640460AF0D8
:100FB0001CFAF0B1641CF5E7787906EB800050F874
:100FC000041CC3A01AE0C7A007F0D5FC5FF0000422
:100FD00056F8241021B192A003F0D0FF641CF7E76B
:100FE000AFF27C3001E0AFF24830BDE8F04107F0ED
:100FF000C2BC601C787156F82410BFA0BDE8F04157
:1010000003F0BCBF70B504460AF0E7F9AF4D10F02D
:10101000FF0F0CD020460AF001FA02280ED885F8FE
:10102000FC020021084600F0C2FC77A0EBE795F82F
:10103000FC12BDE87040B5A003F0A0BF70BD2DE963
:10104000F04180462DED028B0AF0C7F9B54F06003E
:101050002CD0012E03D198F800002A2826D0B2A166
:1010600040460AF08FF9002839D0401C04460AF0A7
:10107000D5F908EE900A2046FFF7D6F9B0EE408A7F
:101080005FF0000404EB840607EB860557F82600A2
:101090000AF0A3F9024657F8261040460AF0A5F9CF
:1010A00000B3641C682CEDD3A0A057E0A7A007F004
:1010B00062FC002404EB840007EB800557F8201045
:1010C000AFF2F82003F05AFF31462846FFF78FFCB5
:1010D000AFF26C4007F04FFC641C682CEAD3BDEC07
:1010E000028B8DE504EB840007EB800191ED030A90
:1010F000B8EEC00AB4EEC80AF1EE10FA2DD891EDA0
:10110000040AB8EEC00AB4EEC80AF1EE10FA24DB05
:101110000979052901D0B0EE688A062911D2DFE8E5
:1011200001F0030308080D0DAA6818EE101A1170DB
:1011300007E0AA6818EE101A118002E0A96881ED94
:10114000008A57F8201087A003F018FFBDEC028B2F
:101150002846BDE8F041002149E485A0BDEC028BA2
:10116000BDE8F04107F007BC2DE9F04107F009FAAE
:101170004FF47A71B0FBF1F1874803788748027821
:1011800087A003F0FBFE00F0F0FD0546944895496A
:101190000068B0FBF1F194A003F0F0FE184F0024BA
:1011A00001263C3757F8241049B106FA04F02842CA
:1011B00002D01BA003F0E2FE641CE4B2F2E723E1DC
:1011C000536176696E672E2E2E0000000D0A52655F
:1011D000626F6F74696E672E2E2E00000D0A4C65CB
:1011E0006176696E6720434C49206D6F64652E2ED1
:1011F0002E0D0A00740500200C0000205202002071
:10120000B4C300086C69737400000000456E61622D
:101210006C65642066656174757265733A200000C0
:1012200025732000417661696C61626C652066659A
:101230006174757265733A2000000000496E766132
:101240006C69642066656174757265206E616D6598
:101250002E2E2E0D0A00000044697361626C6564D5
:1012600020000000456E61626C6564200000000093
:10127000417661696C61626C6520636F6D6D616E52
:1012800064733A0D0A00000025730925730D0A00E6
:10129000E4CC00084D75737420626520616E79207E
:1012A0006F72646572206F6620414554523132334B
:1012B000340D0A0043757272656E74206173736930
:1012C000676E6D656E743A2000000000A405002072
:1012D00043757272656E74206D697865723A202567
:1012E000730D0A00417661696C61626C65206D69FD
:1012F000786572733A2000004D69786572207365D5
:101300007420746F2025730D0A00000043757272FB
:10131000656E742070726F66696C653A2025640D85
:101320000A000000C4C400083D0000004552523AC3
:1013300020556E6B6E6F776E207661726961626C9C
:1013400065206E616D650D0A0000000043757272C4
:10135000656E742073657474696E67733A200D0A44
:101360000000000025732073657420746F20000056
:101370004552523A2056616C7565206173736967F6
:101380006E6D656E74206F7574206F662072616E6D
:1013900067650D0A00000000E70100203A01002007
:1013A00053797374656D20557074696D653A2025A5
:1013B00064207365636F6E64732C20566F6C746168
:1013C00067653A202564202A20302E3156202825B2
:1013D00064532062617474657279290D0A000000FB
:1013E0004C05002040420F004350552025644D48D5
:1013F0007A2C2064657465637465642073656E730C
:101400006F72733A20000000012000F09CFCA0B134
:10141000BF4CBE48217850F82110BEA003F0AEFDAD
:101420002078022809D1BE4890F8F10008B16F2158
:1014300000E06E21BBA003F0A1FDAFF2D47007F075
:101440009AFA05F05FFE0246B7484FF440730188F0
:10145000BDE8F041B5A003F091BDC1A007F08BBA83
:101460002DE9FF5FDFF8289399F8000038B90121D2
:1014700089F80010C7A007F07EFA00F044F9DFF801
:101480004CA3DFF84CB300BF07F031FA00287CD042
:1014900007F043FA04461B2806D09B2C08D0092CE1
:1014A00027D03F2C25D01FE007F044FA5B2818D145
:1014B00007F040FA412808D0422808D0432808D035
:1014C000442808D0332808D00BE00B240CE00A2471
:1014D0000AE00C2408E0082406E007F02BFA7E2836
:1014E00001D0002400E0FF24DAF800005546A8B33C
:1014F00052E00026854D3746143505F1A808DAF884
:1015000000400BE0DAF8002022B1B148296809F068
:101510006CFF10B906B92E462F460C354545F1D360
:1015200096B151465D46086832683B68125C1B5CA8
:101530009A4209D19AB92E2811D220222A54401C4D
:10154000086000210BF80010DAF80000554608B1D9
:10155000BE4214D09FA007F00EFA0BE01AE02A5406
:10156000401C0860DFE7306807F005FA092007F043
:10157000EAF90C36BE42F6D900F0C5F800245E4602
:101580002868844280D2305D00E0BAE007F0DBF9E1
:10159000641CF5E7042C24D0152C27D00B2C3FF429
:1015A00073AF0A2CFBD0082C28D00C2C2DD0FF2C8C
:1015B00036D09BF80010D84609B10D2C44D07F2CB2
:1015C00069D0834809F009FF401C3028DAD2202C6A
:1015D000FFF45AAF7E2C3FF657AF2868002873D02F
:1015E00074E004B07A48BDE8F05F06E47BA007F041
:1015F000C2F9002028608BF8000045E70028FCD0E5
:10160000401ECAF8000078A007E01BF8001000296F
:10161000F3D0401CCAF8000074A007F0ACF933E71F
:101620001BF800105E460029E7D0304409F0D5FED3
:1016300004462868621C3518691C284609F061FEBA
:10164000224629466AA03BE0AFF6E41007F093F982
:101650006A48CDE900082D4900260C230E221431DA
:10166000029601A809F02AFE040007D0206809F0BC
:10167000B4FE4044A168401C884702E060A007F027
:101680007AF988F800602E6099F80000002838D0B8
:1016900000F039F8F8E60028AFD00029ADD040447A
:1016A00009F09BFE04462868621C401E286008EB77
:1016B0000005691C284609F024FE621C294659A031
:1016C00003F05CFCE0E6FFE7202C96D0AA464044FD
:1016D00009F083FEDAF80070064608EB0705681C7F
:1016E000721C294609F00DFE08F80740721C2946B5
:1016F0003FA003F043FCDAF80000401CCAF80000E9
:10170000C2E6BDE8FF9F4AA007F035B908C400084B
:101710000402002041434348573A2025730000004B
:10172000A40500202E2563003C0100204379636C52
:10173000652054696D653A2025642C204932432088
:101740004572726F72733A2025642C20636F6E6647
:1017500069672073697A653A2025640D0A000000E4
:101760004166726F333220434C492076657273694B
:101770006F6E20322E31204A756E20313820323083
:101780003133202F2030383A32353A3539000000D5
:10179000520200200D0A456E746572696E6720431F
:1017A0004C49204D6F64652C207479706520276545
:1017B0007869742720746F2072657475726E2C209E
:1017C0006F72202768656C70270D0A000C000020DE
:1017D000740500200D1B5B4B000000001B5B471BCA
:1017E0005B4B2320000000001B5B44001B5B43009D
:1017F0002573201B5B25644400000000710600086F
:101800004552523A20556E6B6E6F776E20636F6D46
:101810006D616E642C20747279202768656C702766
:10182000000000001B5B442573201B5B2564440003
:101830000D0A2320000000002DE9F0410546044672
:10184000FD4EFE4F09E0FC4809F0BEFD20B1611BD2
:10185000801B384480F80211641C21780029F2D1E1
:10186000BDE8F081F648F74B002102781B789A42D8
:1018700012D14288B2F5407F0ED10279BE2A0BD137
:1018800090F8FD22EF2A07D100F5407210F8013BD5
:1018900059409042FAD309B10020704701207047A7
:1018A0002DE9F05FFFF7DEFF10B90A2006F0F7FE22
:1018B0004FF44072E249E14809F023FDDF4C94F80F
:1018C000FC02022802D9002084F8FC02C0B200EB1E
:1018D000800004EB401101F58E71A022DA4809F076
:1018E00010FDD94AD94E0020D17F937F40F6C4170E
:1018F00010FB00F5193D4D4305F6C41545435D4306
:1019000095FBF7F526F81050401CC0B20628EFD31F
:1019100092F8201092F821809346B4F8D220B4F8BF
:10192000D0C0DFF82C9300204FF47A7EC8F1640613
:1019300001EB810AA2EB0C0500EB8002C1EB420334
:101940000122002B03DDC1F16402D2B201E000DA12
:101950000A4613FB03F708FB07F412FB02F294FBA1
:10196000F2F2324402FB03F24FF00A0392FBF3F26D
:1019700002EB4A0212B205FB02F292FBFEF2624453
:1019800029F8102000F10100C0B20B28D4D3BBF815
:101990006C10BBF86E205846914203D3B0F870200B
:1019A000914200D91146ABF86C10BDE8F09F2DE9CB
:1019B000F0478046A348A14E4FF44077007830703E
:1019C00000247780BE203071EF2086F8FD02254686
:1019D00086F8FE4259B196F8FC02A02200EB800086
:1019E00006EB401000F58E70974909F08AFC934889
:1019F000954902E010F8012B54408842FAD386F84A
:101A0000FE42DFF83CA2B94607F04CFEF32007F097
:101A1000D3FF0221582007F076FE082810D10024B9
:101A200057463159E01907F0F2FE082805D007F0B3
:101A300045FE6D1C032DE7DB02E0241D4C45F0D371
:101A400007F03CFE032D02D0FFF70CFF10B90A206F
:101A500006F025FEFFF724FFB8F1000F06D0BDE821
:101A6000F047012214210F2002F05AB9BDE8F08797
:101A700072498A6802438A60704770490020886012
:101A800070472DE9F05F6C484FF440710C3070C81E
:101A90006A4809F05DFCA0216B4809F059FC6948CF
:101AA000DFF898B101788BF800105946032048718F
:101AB000002088600220FFF7DBFF5946002081F8F4
:101AC000FC024FF41670A1F8E600FA20A1F8E80035
:101AD0002A20A1F8E4000020A1F8F200A1F8F40007
:101AE000A1F8F60001F180005A46C0F85A40C0F84B
:101AF0005E5080F86260002081F8E300202081F8C9
:101B0000F0005448C1F8EC006E2081F8FE002B2054
:101B100081F8FF00212081F80001002081F80101F7
:101B200081F80A01084640F2DC55A0F80C5140F259
:101B30004C40A1F80E0140F26C70A1F81001002099
:101B400081F8120140F2E240A1F8D00040F23A7070
:101B5000A1F8D2004FF47A70A1F8D40058464FF49F
:101B6000C871A0F8D61059463220A1F8D80000213B
:101B700082F813114FF4E131C2F81411C2F81811B0
:101B80001146314C8D81282626704FF01E0A84F8AC
:101B90000AA017212175667084F80BA06175552184
:101BA000A1702D2121730022A2754022E27019221A
:101BB00062731822E2750B2222710022A273227630
:101BC000142767710822E27361760E21A1712774D0
:101BD0005021A1765A21E1714FF00A0884F8118052
:101BE0004FF0640984F81B90267200226272E2743E
:101BF0006277A1774121E17784F8222084F82320BD
:101C000084F8242084F8200084F82120228562852D
:101C100040F27121E18484F82C9084F82D00152085
:101C20009FED0D0A84F82E0084ED0C0A9FED0B0A3F
:101C30000BA084ED0D0A19E0E4CC0008A4050020F7
:101C400000000E0810000020A4080020580C0020FE
:101C5000640C0020031414009A99193FF6287C3F65
:101C6000414554523132333400000000FFF7E4FDA7
:101C700004F8607F01206770A670E07084F804802B
:101C80004FF0C80C84F805C04FF49661E18040F233
:101C9000D9312181A072A5814FF47F71E1814FF488
:101CA000FA6222826182A582E28221836583A28315
:101CB000A077FF23E37784F8200084F8210084F8DC
:101CC000228084F8238084F82400E18422856585BD
:101CD000A185E2852586A4F832C084F8347084F8A2
:101CE00035A084F83600A4F838904FF496706087D9
:101CF0009FED270AA68700204FEA0B0505EB001190
:101D0000401C81ED040A0C28F8DB002404EB84005D
:101D100005EB401000F58E70A0221E4909F0F1FA83
:101D2000641C032CF2DB40E610B50446FFF79AFD75
:101D3000641E204206D1FFF7A4FE0021BDE810403A
:101D4000084634E610BD14494968014201D001201B
:101D500070470020704710494A6802434A60704744
:101D60000D494A6882434A6070470B484068704793
:101D70000A498968014201D001207047002070475C
:101D800006498A6882438A607047044880687047C1
:101D900000000000A408002010000020A40500207E
:101DA00070B50446FE4D09E006F06EFE95F813018D
:101DB000012802D1042006F0F4FB641C20780028DE
:101DC000F2D100BF06F072FE0028FBD0BDE87040E3
:101DD0001E2006F0E6BB44F25061884201DDA0EB14
:101DE0004100F049884202DA48F6A04108447047B1
:101DF00010B5546891ED001A041B00EE104AEA4C2D
:101E0000B8EEC00AC0EE010AC2ED040A94F894408C
:101E100000EE104AB8EE400A9FEDE41AF7EE001A01
:101E200020EE010A81EE801A91ED000A71EE001A8F
:101E300080EE211A92ED020A70EEC00A01EE200A2D
:101E400082ED040A506082ED020AD3ED020A20EE10
:101E5000800ABDEEC00A10EE100A10BD00EE900A16
:101E600093ED011A92ED000AF8EEE00A61EE200A05
:101E700091ED001A00EE810A82ED000AD3ED030A0B
:101E8000B1EE601AB4EEC10AF1EE10FA02D2B0EE71
:101E9000410A06E0B4EEE00AF1EE10FA01DDB0EE20
:101EA000600A82ED000ABDEEC00A10EE100A70470B
:101EB00010B5BF4CD4E90D01401AFFF78CFF002884
:101EC000D4E90D01A0EB010002DDFFF784FF02E081
:101ED000FFF781FF404241F2941188422CDAD4E9A5
:101EE0000D01401A00EE100AB8EEC00ADFEDB10A8B
:101EF00020EE200A0AF0A0F8D4ED0F0AAE49F8EE61
:101F0000600A20EE200ABDEEC00A10EE100A00B2F0
:101F10002082884202DB4942884200DD0846616B2C
:101F2000084448F6A0416064884200DD401A002859
:101F300000DA0844606410BD606BFBE72DE9F04FE8
:101F400081462DED028B83B0FFF7B2FF984842F235
:101F50002831406C081A00EE100AB8EEC00ADFED16
:101F6000950A20EE208AB0EE480A09F0F3FE8DEDC6
:101F7000010AB0EE480A0AF05FF88D4E0024DFF83F
:101F80003CB2DFF83CA28DED000A303688488D491E
:101F90001A3030F9140000EE100A684600EB840095
:101FA000F8EEC00A00EE109A90ED001AB8EEC00AE2
:101FB00051EE000ABDEEE00A10EE100A00B226F85B
:101FC0001400884202DB4942884200DD08467B4912
:101FD00026F81400603900F059FE04EB8408774BB2
:101FE000734907460BEB880536F91400603B2A4617
:101FF0002831FFF733FF714B6D49074436F9140060
:10200000603B2A462831FFF7F3FE384400B26A49A4
:102010002AF81400884203DB4942884200DC01466A
:102020002AF81410654829682838641C40F82810DC
:10203000022CABDB03B0BDEC028BBDE8F08F2DE9C9
:10204000F05F5B4E00245036DFF874A1A6F1200B40
:10205000A6F13609594956F82400803900F016FED9
:1020600039F814105D46401A544900B22BF8140098
:10207000703900F00BFE074635F9140056F82410AD
:1020800004EB840808444D49283901EB8805A1F187
:10209000480347492A462831FFF7E0FE3844474BBA
:1020A00043492AF81400574656F82400703B2A4644
:1020B0002831FFF79DFE4449884202DB49428842AD
:1020C00000DD084639F914103131622900D80020AA
:1020D00037F81410084400B2374927F81400884232
:1020E00002DB4942884200DD084627F814003348E5
:1020F0002968641C40F82810022CABDBBDE8F09F77
:1021000009681B68C91A00EE101A2949B8EEC00AFE
:10211000D1ED0B0A503120EE200ABDEEC00A81ED50
:10212000010A00681268801A0860704770B52DEDCA
:10213000028B126800680968101A00EE100A18680D
:10214000DDE90654F8EEC08A401A00EE100A18487D
:10215000B8EEC00AD0ED0B0A20EE208A28EEA80ABD
:1021600008EE080A0AF024F8DFED180A20EE200A2B
:10217000F0EE480ABCEEC00A85ED000AB1EE680A2E
:1021800009F0C4FC9FED121ADFED120A40EE010ABD
:10219000BDEEE00A10EE100A2060002820DA1BE0F5
:1021A000A4050020B0B9FFFFA4080020DB0FC94040
:1021B00018000020D302373948F4FFFFD40900206B
:1021C0008801002018FCFFFF30F8FFFF2C7D8E3FB8
:1021D000A00CB34500A00C4648F6A041084420607E
:1021E000BDEC028B70BDF0B5F949F848D1E9003279
:1021F000447800F1480CCCB3D0ED0A0AB7EE001ACF
:10220000DCF8041081EE200A511A00EE901A90EDCD
:102210000B1A00F11A06F8EEE00A60EE810A60EE91
:10222000800AFDEEE00A10EE901A0CB2DCF8001005
:10223000591A00EE901AF8EEE00A20EE800ABDEE80
:10224000C00A10EE101A0DB200F12401B1F90270AB
:102250003C4404EBD47464107480B1F900703D44C4
:1022600005EBD5756D1035804C800D8001214170D6
:10227000CCE90032F0BD00EE100A10B5B8EEC00A8D
:10228000002801DCB1EE400A9FEDD21AC0EE010A2F
:102290009FEDD10A20EE800A09F05CFDCB4880ED6D
:1022A0000B0A10BD10B5CD4CE07A002811D0CC48F7
:1022B000007805280DD3C649CA4A086810604968E5
:1022C0005160FFF7D8FFC848C049008888820120C4
:1022D000207310BD2DE9F043BC49C448BF4B8E7A32
:1022E000012502790024062E29D004DC022E09D013
:1022F000032E04D116E0122E33D0302E3DD0002014
:10230000BDE8F083B24A4668566086681660006988
:102310004FF47A7290FBF2F0B54A1080C87AD87206
:102320004D7350E04079C00701D0032A03D000204C
:10233000C87210B147E00120FAE7DC7243E0C27ACC
:10234000D20702D0827A032A03D00022CA7212B1C5
:1023500002E00122FAE7DC72A14A90F82F00107027
:1023600031E0A44B42691A80806942F2107290FBFE
:10237000F2F0A14A10808D7325E0A04B102A1A704C
:1023800001D910221A7000229D4D9E4E9E4FDFF8FB
:102390007C9293F800C014E002EB420300EB83034D
:1023A00093F8088005F8028093F8098006F8028007
:1023B00093F80B8007F8028093F80C8009F80280EC
:1023C000521C6245E8DB487B8A7B104098D04C73F6
:1023D0008C73012094E72DE9F0477C494FF0000809
:1023E0000A464E7AD579137A2C18B2F816C04FF0F7
:1023F0000109E4B24246092E56D2DFE806F008058C
:1024000010161D2434444A00622803D04A72B528AD
:1024100002D049E0022034E081F8099044E0032230
:102420004A720873C87108723EE004224A72CC7185
:10243000E2180A72887237E005224A72CC71E218FB
:102440000A72C88230E006254D720CEB0020CC7178
:10245000234480B20B72C882B0F5007F01D9CA82D2
:102460004A720A8320E0CC71E2180A720A8BC82AE9
:1024700001D25E4B9854521C90B20883604513D130
:102480000720487210E008234B7285420CD04A7234
:102490000AE04A72834207D15D4880F80090FFF756
:1024A00019FF08B14FF001084046BDE8F08770B54C
:1024B000034600200246054611E02E2C04D1521C92
:1024C00000290FD054181D559C5C00EB8000400083
:1024D000A4F13006092E01D830382044521C9C5CEF
:1024E000002CEAD170BD2DE9F04100268046374628
:1024F0003546044608F0D8FE006800E0641C2178E8
:10250000415C2029FAD009E01EB106EB860149069C
:102510000E0E18F8011B303E3144CEB2A4EB080178
:102520000229F1DC09E01FB107EB870149060F0E14
:1025300018F8011B303F3944CFB24445F3D8217815
:102540002E290ED1641C002105EB8502550022784E
:10255000835C202B02D1303D1544641C491C0429A6
:10256000F2DB2C480621474305EBC50000EB0510C4
:1025700007EB8000B0FBF1F027494E4300EBC6109B
:10258000BDE8F0812DE9F0470025104E04462F46A6
:102590004FF00109242815D014483146E038C97895
:1025A0002C2C3BD02A2C39D032460D2C52796FD0AE
:1025B0000A2C6DD00F2902D24454491CF170002A14
:1025C00067D0B5E0B770F7703771B1E01800002040
:1025D000B80100208096184B35FA8E3C480C00203C
:1025E0003B010020C00100204A020020240A0020F4
:1025F000F6010020F8010020E4010020FA0100208B
:102600008E0C00209E0C0020AE0C0020BE0C002082
:10261000E601002040420F002D3101004754B178FF
:10262000B8463A4629B1B279012A21D0022A5DD0B2
:1026300074E0B2710178472970D1417850296DD189
:102640008178472902D0522909D067E0C17847290B
:1026500064D10079412861D186F806905EE0C178A6
:102660004D295BD10079432858D10220B07155E043
:10267000FE4F02290ED0032910D0042915D00529B8
:1026800017D006291CD0072923D0092928D045E0D6
:102690005BE04AE0F648FFF726FF04E000785328A5
:1026A0003CD138684042386038E0F148FFF71BFF02
:1026B00004E00078572831D17868404278602DE0F6
:1026C0000078302801D9012000E00020E949C872D3
:1026D00024E00021E648FFF7EAFEE74908701DE024
:1026E0000021E348FFF7E3FEE44916E0072902D0A2
:1026F00008290DD012E00121DD48FFF7D8FE41F294
:10270000184148434FF47A71B0FBF1F0DC4904E022
:102710000121D748FFF7CBFEDA490880B078401C8A
:10272000B07086F803802A2C0CD03079604030716C
:10273000B07910B1D44A82F800900DB1012800D0D0
:102740000020B2E686F80590F2E772B18046007884
:1027500000F0CFFA040198F8010000F0CAFA204412
:102760003179C0B2884200D101257771E0E72DE9C7
:10277000FF5FC649C0B291F8131119B1012904D005
:1027800002297CD1FFF7FEFE01E0FFF724FE0028BE
:1027900075D0BF484FF0000B0178012910D00121FE
:1027A0000170B448C17A002969D0B3490978052974
:1027B00065D38246407830B19AF80C1031B108E008
:1027C00080F800B0EDE78AF80CB002E008B1FFF73E
:1027D00069FDB04905239E460878401CB0FBF3F222
:1027E00003FB12020A70AC49002091F90090DFF857
:1027F0007CC2A849A74C68315CF8203041F82030F1
:10280000A649783493FBF1F144F82010A44C00EB76
:1028100080054C4303EBC41342F2107493FBF4F4B1
:102820001FFA84F89B4C403424F81080904CB83444
:1028300004EB8505974C55F82260603454F82070FD
:1028400045F82230BE1B334444F8203093FBFEF39E
:10285000934C6442614303EBC1138E497031B9F16B
:10286000010F41F8203006D1A8F10208B8F5797FB0
:1028700001D84CF82030401C0228B8DB00E081E091
:1028800005F07FFE834D296A401A00EE100AB8EE6B
:10289000400ADFED840A80EE201A85ED0A1A05F061
:1028A00070FE2862A86AB0F17E5F02DA00EE100ABC
:1028B00001E0B7EE000A85ED0A0A03A902A86B4CF5
:1028C000794BCDE900011A1F211D2046FFF72EFC90
:1028D00002986426B0FBF6F07449754A57460880A2
:1028E000039890FBF6F010809AF80C0018B9A1F844
:1028F00000B0A2F800B0FFF776FC387A10B9F8798A
:1029000000283FD06349343101F1080000F11C0771
:10291000CDE900013B1D3A46211D5448FFF706FC56
:10292000231D524A391D3846FFF7EAFB5A4C94F9E9
:102930000000012828D0022824D15E4F0121B7F9D8
:102940009A0000F0B0F9FFF7F9FA97F896005A4AA2
:1029500018B1686C90FBF6F01080B7F89200E96B44
:1029600088420BD2D5E90D01401AFFF734FA00284E
:1029700000DC404242F21071884203DD01202070E9
:10298000A88A1080BDE8FF9FFFF759FBFAE7494886
:10299000017900EE101AF8EE400A9FED480A34491A
:1029A00080EE801A103181ED001A827B00EE902AB1
:1029B000F8EE600A80EE801A81ED011ADFED400A20
:1029C000C1ED030A417901EE101A2949F8EE411AC6
:1029D000B2EE041A203181EE812A81ED002AC27BF9
:1029E00001EE902AF8EE611A81EE802A81ED012A2B
:1029F000427E01EE902AB8EE612ADFED2A1AC2EE7D
:102A0000212AC1ED022AC1ED030A817902EE101AD2
:102A10001749B8EE422A3031C2EE012AC1ED002A30
:102A2000027C01EE102AB8EE411A81EE002A81EDF7
:102A3000012A807E00EE100AB8EE400A80EE211ACC
:102A400081ED021AC1ED030A70472DE9F0470646F1
:102A50000025FFF79CFF00221A49304605F0B8FF19
:102A60000A4F97F81301012831D02DE0B80100205A
:102A700044090020480C00203B010020F601002002
:102A8000F8010020E4010020E6010020A405002058
:102A9000E2010020180000203101002080969800FB
:102AA000D3CEFEFF00007A44C4010020F2010020D2
:102AB000F4010020A40800204C0200200000C842BD
:102AC0000000FA446F270008022817D030B3DFF85F
:102AD000488200244FF4964A08F1140958F824005B
:102AE00005F0D1FF56450BD0B6F5164F0BD0B6F515
:102AF000614F1DD0B6F5E13F0AD11DE00425E6E7A0
:102B000059F8250002E009EB85004068FFF748F915
:102B10000A2005F046FD641C052CDFDB304605F07D
:102B2000B2FF97F8130101280AD0022815D01AE045
:102B300009EB85008068E9E709EB8500C068E5E7F7
:102B4000754D00243435285D05F09EFF042005F006
:102B500028FD641C8C2CF6D305E070A0FFF720F94B
:102B60007BA0FFF71DF94FF47A7005F01AFD7D4840
:102B70000078002804D0BDE8F0471020FFF7EBB83C
:102B800093E400210180704710B5B0F90030028055
:102B9000D31A00EE903AF8EEE00A60EE800A60EE9A
:102BA000800AFDEEE00A10EE903A00EE902A1BB289
:102BB000F8EEE00A20EE800ABDEEC00A10EE104AE0
:102BC0000FFA84FC01EB0C00184410BD2DE9F05FF6
:102BD000DFF8A0A10024644FDFF89081DFF8909126
:102BE00026460AF1280B00BF27F8146028F8146065
:102BF00004EB840529F814600AEB850000F082F8E4
:102C00000BEB850000F07EF85A48503000EB850051
:102C100000F078F8641C022CE6DBBDE8F09F7CB580
:102C2000554C02682260096861600068FFF723FB69
:102C3000A4F1240101F10800504ECDE90001231D4B
:102C40002246311D3046FFF771FAA4F15805331DB5
:102C5000686B68643246211D2046FFF751FA686BA5
:102C6000A8634748B0F8980068827CBD30B507E09B
:102C7000147810F8015B2C4414701D782C441C70DF
:102C80000C00A1F10101C9B2F2D130BD00EE100A71
:102C9000D1ED000AB8EEC00A20EE800ABDEEC00AEF
:102CA00010EE100A7047344A583AD36B21B1B0EB9A
:102CB000530F0BD3580809E0984200D31846304907
:102CC00000B2B1F89810814200DB0846B2F9121048
:102CD00000B288420CDD92ED0A0A5FED880A20EE10
:102CE000200ABDEEC00A10EE100A084400B250825D
:102CF00070473038C0B2092801D9C01FC0B200F0F7
:102D00000F0070479FED1F0A002180ED000A41600F
:102D100080ED020A70470000FCCC000824504D549E
:102D20004B3331342C302C312C302C312C302C3096
:102D30002C302C302C302C302C302C302C302C30B3
:102D40002C302C302C302C302C302A32380D0A000C
:102D500024504D544B3232302C3230302A32430D15
:102D60000A000000E6010020680100208C0100201C
:102D7000880100208409002070000020B801002094
:102D8000A408002000000000FE4810B5008800EEF6
:102D9000100AB8EE400ADFEDFC0AFC4920EE200ADA
:102DA000BDEEC00A10EE102A00EE100A0A80F8EEFE
:102DB000400A9FEDF71A81EE200ADFEDF60A0420A3
:102DC00080EE201A81ED111AFEF7BDFF002803D016
:102DD000BDE8104002F032BC10BD70B505462DEDC7
:102DE000088B0C4691ED010AD0EC03AAB1EE400A23
:102DF00008F0B0FFB0EE409A94ED010AB1EE400A3F
:102E000009F01AF9F0EE409A94ED000A08F0A2FFDA
:102E1000F0EE408A94ED000A09F00EF9B0EE408A17
:102E200094ED020A08F096FFB0EE40AA94ED020A73
:102E300009F002F9F0EE402A29EE8A2A22EE894AA8
:102E40002AEE283A6AEE093A69EEA21AF0EE440A2E
:102E50002AEE833A52EE080A62EEA84AB0EE631AEE
:102E600014EE082A01EE881A43EE881A0BEE203A77
:102E70006AEEA40AF1EE482A28EEA95A28EE890A39
:102E80004BEE010A0BEEA13A4BEE820A85ED003AB9
:102E9000C5ED010A6AEEA20A4BEE050A4BEE800A66
:102EA000C5ED020ABDEC088B70BDF0B500242DED18
:102EB000048B83B005F04BFBB44EEC4606F15E0587
:102EC000B16AAA1D411A00EE101AB349B7EE008A82
:102ED000B8EE400AD1ED040AB049B06220EE200AF3
:102EE000002091F82C10971D35F9103000EE903A23
:102EF0000CEB8003F8EEE00A60EE800AC3ED000AF6
:102F000019B300EE901AA64B32F910E0B8EE601A31
:102F100003EB8003C8EE010A93ED001A78EE600A15
:102F200060EE810A01EE101AB8EE411AC8EE011ADD
:102F300001EE10EAB8EEC11A41EE210AC3ED000A13
:102F4000FDEEE00A10EE903A01E032F8103027F87A
:102F500010309BB213FB0344401C0328C4D36420ED
:102F60004443884861460088404394FBF0F48C4811
:102F70000C30FFF732FF0420FEF7E5FE20B1884851
:102F800069460C38FFF729FFB7F9000039460028D9
:102F900000DC4042B6F90020824B90420CDAB1F9D5
:102FA0000200002800DC4042904205DAB1F904003A
:102FB000002801DD012000E00020794F493C7A4DD6
:102FC0000C3758733C2C22D2B5F8E620002000BF05
:102FD00000EE102A31F91030B8EE400A30EE080A3F
:102FE00088EE001A00EE103A07EB8003401CF8EE62
:102FF000C00A00EE102AD3ED001A0328B8EE400AEA
:1030000041EE800A21EE200A83ED000AE0D304207D
:10301000FEF799FE624C0C3C18B35C4B0020B5F8EF
:10302000E810703300EE101A33F91020B8EE400AA1
:1030300030EE080A88EE001A00EE102A04EB800237
:10304000401CF8EEC00A00EE101AD2ED001A032858
:10305000B8EE400A41EE800A21EE200A82ED000A15
:10306000E0D397ED020AD7ED000A97ED011A20EEA2
:10307000000A60EEA00A3D4661EE019A70EE808A79
:10308000B0EE680A09F094F888EE009A38EEA90AC2
:1030900009F08EF8C8EE000AC6ED120AD5ED020A54
:1030A00095ED000A00F028FA384F69EE280A20371B
:1030B000388095ED010A00F01FFA78800420FEF7B1
:1030C00042FE00283DD0D4ED001A95ED000A94EDA3
:1030D000022A95ED021A61EE802AD6ED120AD4ED8D
:1030E000013A22EE000A42EE012A95ED013A01EE84
:1030F000C10A62EEA02A63EEA00A60EEA80A42EEC0
:10310000C30A00F0F9F900EE100AD6ED070A0A2208
:10311000B8EEC00A254930EE200ABDEEC00A10EE16
:10312000100A00B290FBF2F000B20880B42802DD71
:10313000A0F5B47004E010F1B40F02DA00F5B47039
:10314000088003B0BDEC048BF0BD2DE9FF5F0120CA
:10315000FEF7F9FD18B102F00DF9FFF7A6FE02F037
:1031600058FA0A4D00206F4615F15E0535F810102B
:1031700027F81010401C0328F8D305F0E8F9034E97
:10318000706215E00A0200207593D83E9800002076
:103190000AE81C4100401C46040E0020A408002040
:1031A000F80A0020480C0020A40500204A02002054
:1031B00000F0E1FD05F0CBF9716A40F28A24401A73
:1031C000A04204D9D3490888401C088005E005F0D6
:1031D000BEF9716A401AA042F9D302F01AFADFF878
:1031E00038A30024B946A8460DF1080B0327AAF11D
:1031F000060500BF38F8141039F81400084400B26E
:103200002BF814003AF91420024492FBF7F200EB79
:10321000D07025F8142040102AF814000120FEF781
:1032200092FD20B9BC490020123121F81400641C21
:10323000032CDFD34020FEF79BFDB84A10B3B649FC
:103240004639087830B9D2F8EC00020C0A70020A4C
:103250004A708870B04C002014F106040A5C35F9FD
:10326000106034F81070531E17FB03635B1C93FB54
:10327000F2F225F8102024F81020401C0328EDD38A
:10328000BDE8FF9F50790128FAD1B5F90400B6F9DD
:10329000081000EB410090FBF7F0A8803081EFE7C9
:1032A000002801DD024600E042428A4201DA0020A5
:1032B0007047002802DDA0EB010001E0F8DA0844C5
:1032C00000B270472DE9F04105F041F9924D523DB1
:1032D000296B441A46F2A8118C4202D20020BDE8A4
:1032E000F0818F4928638F4E088840B196F82E20D0
:1032F0006B69521E93FBF2F2401EEA62088096F858
:103300002E00E96A401E484300EE100AF8EEC00A9B
:1033100095ED050AB8EEC01A80EE810A08F0D4FDDA
:10332000286946F6B321084400EE900AF8EEE00A58
:1033300020EE200ADFED7C0A7C4B4FF4967C20EED9
:10334000200ABDEEC00A10EE100AA861E96B01EB7D
:103350004101490001EB4000C010E863296C081AE4
:10336000984201DA184602E0604500DD604600B28E
:103370000A21FFF795FFF17811FB00F16FF0950737
:103380004FF09608B7EBE11F01DD394605E0B8EBD9
:10339000E11F01DA962100E0C91109B26980727B50
:1033A00012FB00F0AA8802EBA01000B2604AA880CD
:1033B000904202DB5242904200DD1046A88001EBB1
:1033C0006020688054481830B0F90010B0F902202D
:1033D00000EE101A5749B0F90400B8EEC00AD1ED5A
:1033E000000A91ED011A20EE200A00EE902AF8EE74
:1033F000E00A00EE810A00EE900A91ED021A4E49B1
:10340000F8EEE00A497800EE810AD5ED120A20EEC6
:10341000200ABDEEC00A10EE100A00B229B9B5F9B3
:103420000A10A1EBE10101446981B5F90A10A0EB92
:10343000E10000B296F82D10FFF732FF00EE100AFF
:10344000D5ED110AB8EEC00A60EE200A00EE104A6F
:10345000B8EE401A95ED0D0A00EE810ADFED370A4D
:1034600085ED0D0AD5E90E10411A00EE101AA86379
:10347000B8EEC00A60EE200A00EE104AB8EE400A2C
:1034800080EE801ABDEEC10A10EE101A0AB29A42FE
:1034900001DA1A4602E0624500DD624610460A2162
:1034A000FFF7FEFE95ED0D0ADFED250A9FED251ACB
:1034B000052120EE200A00EE900AF8EEE00A00EE68
:1034C000810A85ED0D0ABDEEC00A10EE100A00B2A9
:1034D000FFF7E6FEE880F17D11FB00F0B7EB201F5F
:1034E00005DCB8EB201F01DA962700E00711688899
:1034F000C01B68800120F2E610B508F007FBDFED85
:10350000120A20EE200ABDEEC00A10EE100A00B228
:1035100010BD0000E0010020EA000020A40500200A
:1035200048020020A40800208E2BEA41D4FEFFFFB1
:10353000D08AFFFF040B0020480C002000247449AF
:10354000F6287C3F8FC2753C4C3D0F44084605F081
:10355000FAB986B005F030F87049002001F00AFD94
:103560000020FEF7E1FBFEF79BF96D4D002495F876
:10357000010118B101281CD009281AD08DF810407B
:1035800085F8014104A803F077F80720FEF7E3FB74
:1035900000F0E0F8687901270E280DD008280BD03C
:1035A0008DF805404FF480763046FEF7E1FB50B9C8
:1035B00005E08DF81000E5E78DF80570F2E70820CA
:1035C000FEF7D6FB00B101208DF802000120FEF7C6
:1035D000CFFB8DF801000820FEF7CAFB80F0010048
:1035E0008DF800004F48007800B101208DF80300ED
:1035F0004D48017FC1F3C0018DF80410B5F8D61015
:10360000ADF80810B5F8D810ADF80A100088ADF87C
:103610000C0095F80101012812D0092813D08DF86B
:103620000640684604F09CFD414C4048206008205C
:10363000FEF79EFB58B102F026FE3E4820600EE0E9
:103640008DF80670EDE707208DF80600E9E73046B3
:10365000FEF78EFB18B1D5F81401FFF7F6F901203B
:10366000FEF786FB30B14FF48060FEF781FB08B1B6
:1036700002F09FF8304E4FF00209A6F81890B846B5
:103680007783DFF8B8A00024F7140AF1020B706901
:1036900080F002007061706980F001007061192093
:1036A00004F07FFFAAF80070192004F07AFFABF84D
:1036B0000070641CE4B20A2CE9D34446A6F81A80D0
:1036C000A6F81A9001F082FCFFF75EFB0220FEF7DD
:1036D0004FFB08B101F02EFDD5F8180102F05DF99D
:1036E00004F035FF164908606879052803D11549AB
:1036F0004FF4C870088014494FF47A700880134959
:10370000C82008801248447300F07FFDFCE704489D
:10371000B0F9D40000F0C5F8FEE700004D35000810
:10372000A40500201D0100200C090020F540000820
:1037300064010020B162000800100240180C024031
:10374000600100200602002008020020480200203C
:10375000480C002070B5FE4DFE4EFF4C687906EB1C
:10376000C000407860702020FEF702FB08B1012005
:1037700060706879F949122809D016F8302006EBF4
:10378000C00022704368002B18D0002021E00020E8
:1037900005EB001292ED040AB5EEC00AF1EE10FA44
:1037A0000CD0143201EB0013D2EC030A401C83EC62
:1037B000040A2278521C22700C28E9DB70BD00BF7D
:1037C00003EB001401EB001594EC040A401C85EC9B
:1037D000040A9042F4DB70BD30B5401C00219FED1F
:1037E000E00ADB4A02EB0113491C83ED040A0C29B1
:1037F000F8DBD84B03EBC0014C68002C10D0002143
:1038000013F830000AE000BF04EB011302EB0115CE
:1038100093EC040A1035491C85EC040A8842F3DC59
:1038200030BDCD4810B54078002827D0C848CA4CD4
:103830004079A41C05280ED004DC01281BD00428E4
:1038400004D112E0082806D00E2817D02020FEF759
:103850008FFA002812D02188002004F0E5FC61884E
:103860000120BDE8104004F0DFBC2189002004F0F5
:10387000DBFC6189F4E761890020F2E710BD70B5D7
:10388000B64E0024183EB44D07E000BF36F81410C1
:10389000204604F0BEFC641CE4B228788442F5D3D0
:1038A00070BDAD4AAD4B00211278183B04E000BF5B
:1038B00023F81100491CC9B29142F9D3DFE72DE981
:1038C000F05FA54EA748DFF8A09296F800C0BCF1C3
:1038D000030F22D9B9F90410B0F904304A42002983
:1038E00001DD0C4600E014466FF063052C1BA3427B
:1038F00004DA002900DC1146691A0DE0002901DD17
:103900000C4600E014466434A34204DD002900DCC8
:103910001146643100E0194681809349914A934CE5
:10392000B1F90680DFF834B2B2F9003094F96A10C8
:10393000B2F90220ABF1180BBCF1010F31D900250F
:103940002DE000BF00EE108A844EB0F9047006EB43
:103950000516B8EEC00AD6ED000A96ED021A4F43DE
:1039600020EE200A00EE902AF8EEE00A00EE810A2E
:1039700000EE903A96ED011AF8EEE00A00EE810AA8
:1039800000EE907A96ED031AF8EEE00A00EE810A56
:10399000BDEEC00A10EE106A2BF815606D1C65456F
:1039A000D0D36B4E6C4DDFF8C8A196F805C0AD1CA6
:1039B000704FBCF1050F3AD006DCBCF1010F26D0E8
:1039C000BCF1040F65D103E0BCF1080F61D1A9E09F
:1039D000B0F904004FF47F7C01FB002303F2DC53B9
:1039E0004FF4FA68634501DA634602E0434500DDBF
:1039F00043464143881A00F2DC502B81604501DACE
:103A0000604602E0404500DD4046688141E0B4F890
:103A10006C20B0F9040001FB0020B4F86E1088425D
:103A200003DBB4F870108842EFDD0846EDE794F947
:103A30008200BAF8021010FB01F1B4F88A20B9F93B
:103A400002301A44CB1701EB137102EB2111B4F8C9
:103A50008620914204DBB4F88820914200DC0A46BB
:103A60002A8094F98310BAF8002011FB02F1B4F80F
:103A70009020B9F900001044CA1701EB127100EB55
:103A80002110B4F88C10884261DBB4F88E10AEE0DF
:103A900068802020FEF76CF9002871D094F884200B
:103AA0000021900706D0B889B6F80C31A0EB0300CE
:103AB00060F30F01500706D4F889B6F80C31A0EB7B
:103AC000030060F31F41B4F88A00084400B2288064
:103AD000B4F8903003EB1141274B09B269801B7A8F
:103AE000A3B3D20694F982207ED5BAF802C052421E
:103AF00012FB0CF294F983C0BAF800301CFB03F3FC
:103B00004FEAE27C02EB1C724FEAE37C121103EBFA
:103B10001C73A2EB231CA0EB0C00288002EB2310EB
:103B200008447FE01149ABF80080144891F980C047
:103B300091F97F9090F80A8091F97E0091F98110B7
:103B4000B8F1000F2ED0B7F902201AE06BE051E077
:103B5000A4050020ACD100081C010020280B002087
:103B600000000000A8010020AE010020A4080020F1
:103B7000B8000020D00100207A0C0020480C002062
:103B800069E0B6F80C31A2EB030808FB00F2B7F9C4
:103B9000000008FB09F8C01A0CFB002201FB0080A2
:103BA0002A8007E050430CFB0300288009FB02F940
:103BB00001FB03906880B5F90000B4F87410084464
:103BC000B4F87210884204DBB4F87610884200DC46
:103BD00001462980B5F90200B4F87A100844B4F817
:103BE0007810884206DB00E006E0B4F87C108842DA
:103BF0007FF74EAF08464BE7BAF802C012FB0CF253
:103C00004FEAE27C02EB1C7200EB2210288094F950
:103C10008300BAF8002010FB02F0C21700EB12700C
:103C200001EB20106880B5F90000B4F886108842D6
:103C300003DBB4F88810884200DD08462880B5F917
:103C40000200B4F88C10884203DBB4F88E1088426E
:103C500000DD0846688094F88400000710D5002530
:103C60002020FEF785F800B10225002407EB440070
:103C700001896019C0B204F0D7FA641C042CF5D392
:103C80002549BBF9005001200B78D84606E000BF5B
:103C900038F91020AA4200DD1546401C9842F7D39F
:103CA0000024894632E000BFB6F8D200A84205DA07
:103CB00038F814102A1A891A28F8141038F9141030
:103CC000B6F8D020914201DA104602E0814200DCD1
:103CD000084628F81400B7F90600B6F80E11884215
:103CE00008DA1020FEF744F840B1B6F8D41000BF4F
:103CF00028F814100948407818B106E0B6F8D0103A
:103D0000F6E7B6F8D41028F81410641C99F80000EF
:103D10008442C9D3BDE8F09F1C010020480C00205C
:103D20002DE9F05F0646894690460025DFF81CA481
:103D30004FF40067DFF818B419E0002410E000BF6A
:103D4000DAF8142082F00102CAF81420ABF80070EF
:103D5000484604F026FCFE48801C0780641CE4B240
:103D6000B442EDD33C2004F01CFC6D1CEDB2454583
:103D7000E3D3BDE8F09F2DE9F05FF64800242DED78
:103D8000028B40F2DC52B0F90610F34D4FF4FA7397
:103D9000914202DA4FF064090EE0EF4AB1F5FA6F92
:103DA00092F8242004DAA1F2DC56724392FBF3F27B
:103DB000C2F1640202F0FF09E84BAE4695F860B02C
:103DC00095F861A0B3F80C510022E24840F2E633C6
:103DD00030F912C0ACEB050606F2F310984204D895
:103DE000002E04DCA5EB0C0601E04FF4FA76B0B22D
:103DF000022A33D0BBF1000F06D0834503D2A0EBDB
:103E00000B0080B200E000206423B0FBF3F3D44E3B
:103E100006EB430736F91380B7F90270A7EB0806E3
:103E20006FF018077B4300EB83035E43642396FB2C
:103E3000F3F3C84E4344223E26F812309EF8223057
:103E400043434FF4FA70B3FBF0F0C0F16400C0B22A
:103E500010FB09F36420B3FBF0F015E0BAF1000F9A
:103E600006D0824503D2A0EB0A0080B200E0002019
:103E7000B84E223EB0809EF8233043434FF4FA7090
:103E8000B3FBF0F0C0F164001EF80230C0B213FBC7
:103E900000F66423B6FBF3F6AE4F7A3FBE540EEB4A
:103EA0000206367D16FB00F0B0FBF3F0FB1CAC45C0
:103EB000985406DA03F1550030F812305B4220F8CE
:103EC0001230521CD2B2032AFFF47FAFA34AB2F8D9
:103ED0000E01814201DA014604E04FF4FA6399428F
:103EE00000DD194689B29146091A4FF47A7251439E
:103EF000C0F5FA60B1FBF0F081B26422B1FBF2F0E0
:103F0000974B6FF018060C3303EB400533F9103074
:103F10007043B5F9025001EB8000ED1A454395FB63
:103F2000F2F08C4F8E4E223F1844103EF880707A8B
:103F3000A7F17E05F0B38B48B5F91E10B0F900006B
:103F4000401A00EE100AB8EEC00ADFED870A20EE34
:103F5000200ADFED860AC0EE208AB0EE680A07F07C
:103F6000F9FEB0EE408AB0EE680A08F065F8B7F9DD
:103F70000210B7F9002000EE901AF8EEE00A20EEE9
:103F8000881A00EE902AF8EEE00A00EE801AFDEEA4
:103F9000C10A10EE900A00EE902AF8EEE00A20EE38
:103FA000881A00EE901AF8EEE00A00EEC01ABDEE94
:103FB000C10A00E003E010EE101A39807880022078
:103FC000FDF7D6FE4FF0000860B3E878401CC0B2A1
:103FD0000621B0FBF1F2E87001FB1200C0B900202D
:103FE00002F0C9FB29795E4A01F00703703A491CC7
:103FF00022F813002971002032F81010401C2144CF
:10400000C0B28CB20828F7D3E00801F078F8A872A3
:10401000A87AA98C884203D899F80011814202D964
:1040200085F8028001E00420A870A878FCF73AF92E
:104030004F48464C0127008818B10120FDF783FE48
:1040400010B94C48008820B1606980F001006061BF
:104050000FE0B07800B16783707800B127834FF428
:104060000060FDF785FE20B1707800B1012002F0FC
:10407000D1F98020FDF77CFE48B1296CE86A411A2D
:1040800005D44CF250310844286403F029F9E96B57
:10409000E86A411A02D4717BF9B1B77002F04DF8A9
:1040A0001020FDF750FE68B1696CE86A411A09D426
:1040B000E97A052906D3304908446864606980F0CC
:1040C000020060612D48C168002910D0BDEC028B50
:1040D0002048BDE8F05F8038084786F802806169B3
:1040E00081F00101616126490844E863D6E7BDEC2F
:1040F000028B3EE610B5194C204490F8020104F002
:104100009EF8A0F2EE2140F2DD52914201D3B4F8C4
:104110000C0110BD2DE9F0470E4E0024A03E104FBB
:104120007079DFF83080401C603F7071A14607F164
:104130004005716B20468847727907EBC40102F095
:10414000030221F8120025F814901BE00010024031
:10415000180C0240D0010020A4080020A405002073
:10416000580C00204A020020DB0F49400000344375
:104170000602002008020020F0490200040E002080
:1041800020A107005FF0000035F8143031F810204E
:10419000401C1A44C0B225F814200428F4D335F981
:1041A0001400801CC11700EB9170801025F81400DA
:1041B00038F914204146D21E904202DA821C21F8BE
:1041C000142031F91420D21C904202DD801E28F800
:1041D0001400641CE4B2082CABD3BDE8F087FC48A3
:1041E0000288FC48417852B9827842B1002905D151
:1041F00001214170F848F9490088C88370470029B7
:10420000FCD10122FF2102208AE52DE9F04F002494
:104210002DED048B83B0A346A1462546009402F001
:1042200044F808B1FFF776FFDFF8B0A34FF00107BD
:104230005146DAF82C00C96C4FF00006411A78D4C8
:1042400044F620621044CAF84C00D0460820FDF71E
:104250008FFD08B9FFF75EFF4FF40070FDF788FD92
:10426000F0B3DF48B8F90EC090F8643003EB830078
:10427000604522DAD7484078F8B1DA490020B1F930
:104280000C21D64911F1A00121F81020401CC0B228
:104290000328F9D3D24864304288CA804078184451
:1042A00000EB8000604503DA00F039FDC948067074
:1042B000B8F81010491CA8F81010C94890F864000C
:1042C00000EB8001B8F90E00814206DAC14840785F
:1042D00018B900F024FDBF480670B8F80E1000E0D1
:1042E00002E0491CA8F80E10DFF8F8C2DFF8ECE293
:1042F0000020BCF80E11BCF810310EF1A00EA4087D
:104300003EF910208A4201DD44F080049A4201DA2D
:1043100044F04004401CC0B20428F0D398F80720B1
:104320004046944206D18279FA2A04D2521C827104
:1043300001E023E2867188F80740BEF90600C24614
:10434000F046884219DAA5486030068046808680AB
:10435000183806804680A248008F70B19D483230E0
:10436000007828B19B48007810B1FFF738FF04E0CF
:104370009848407808B100F0D2FC9AF8060014285A
:1043800019D194484078B8B1954C208F28B99AF843
:1043900007005F2801D100F0C2FC924890F812019A
:1043A000002808D0208F002805D19AF807007D2822
:1043B00001D100F0B4FC8CE09AF80700572809D02E
:1043C0000420FDF7D5FCB8B19AF8071050465A29D9
:1043D0001BD011E07E494FF47A7008804FF4807052
:1043E000FDF7C6FC08B1FDF75DFF0220FDF7ABFC51
:1043F00010B17D490A2008809AF807005D2817D07F
:104400005B2817D05E2817D024E0818A19B18682F4
:10441000AAF816701EE0418C21B10021418419B127
:10442000022102E00121F9E703218AF8001011E0DE
:10443000012402E0022400E003246A49601E81F89E
:10444000FC0200210846FDF7B2FA2246282102208C
:10445000FFF766FC624C218F19B99AF807006F28A4
:104460000FD0604890F8120120B119B99AF80700EE
:104470007E2806D09AF80700972805D0A72808D0EC
:1044800009E0FFF7ACFE06E058494FF4C870088019
:1044900001E0504887739AF80700BB2806D0B72878
:1044A00007D0BE2809D0BD280AD012E0608D801C3C
:1044B00001E0608D801E608505E0208D801C01E09C
:1044C000208D801E208500210120FDF770FA8AF8DA
:1044D00006600420FDF74CFC38B3BAF822105046B1
:1044E000322379B13B49497861B13E49B8F9062098
:1044F000B1F80E118A4205DD36493231097809B921
:104500004382468433493231497C31B1018B828AFE
:1045100011430AD1AAF8123007E0818A29B12D4946
:10452000497811B98682AAF81670C646002040F272
:10453000A46800BF0EEB4001B1F908C040F214516D
:104540008C4501DA012200E0002200EB40018A40A4
:10455000ACF21553B3F5C77F01D8012400E0002465
:104560004B1C9C402243C44501DD012300E0002395
:10457000891C8B401A432A43401CC0B295B20428C0
:10458000D8D3144C00203234154901EB4001098F77
:10459000294000D001212154401CC0B21428F3D37B
:1045A000607840B90E4890F8640000EB8001BAF9D9
:1045B0000E0081421CDA0120FDF7C5FBC0B10549A0
:1045C000C878B8B90548483006804680CF7011E0F9
:1045D00008020020480C00204A0200203001002080
:1045E000A4080020A40500204802002006020020A4
:1045F000FE48C670A0780028FC4807D0C670017934
:1046000029B9FB490E804E80077100E006712078C1
:10461000A04608B9F5480770F44CF648E17809B9A6
:10462000217911B10221018301E00221418302209D
:10463000FDF789FBF8B198F80300454680B1A079F1
:1046400078B9ED48A7710168EC480160E848363058
:10465000C188EB48AAF81A100680EA48068000E0F4
:10466000A6714FF40050FDF783FB20B1287918B1F3
:10467000E07B00B9E77300E0E6730420FDF763FB1D
:10468000D0B198F80500424638B1607930B9DE48BB
:1046900067710188DD48018000E06671907918B18A
:1046A000607A10B9677200E0667298F8070018B176
:1046B000D5480188AAF81E101020FDF744FBE8B386
:1046C000E07AE0B39AF80B005546052844D398F8F1
:1046D0000A1061B1E07988BBC549E77126724C3197
:1046E0002E72081FFEF79BFA0220687038E0E67110
:1046F00098F80B0040B3BE4A3632B2F900000028E9
:1047000000DC4042C249B1F89C1088421CDAB2F980
:104710000200002800DC4042884215DA207A68B99D
:10472000B348277240302E7200F1100102680A600F
:10473000406841F8040FAE48503001E010E00BE053
:10474000FEF76DFA6F700BE02672287A40B98AF88E
:104750000870FEF73BFA03E0E67126728AF8016002
:1047600098F80C0008B1A77200E0A672A948407939
:10477000082801D00E2839D1667237E0DAF85400E3
:104780005446032801DD001F606530B101280CD0BC
:10479000022814D0032829D11BE004206765FDF707
:1047A000D2FA10B100F057FF00BB606D401C60658D
:1047B0000220FDF7C8FA10B100F032FEB0B9606D0A
:1047C000401C60650220FDF7BEFA10B1FEF77AFDCD
:1047D00060B9606D401C60650820FDF7B4FA08B14F
:1047E00000F0F2FF4FF40050FDF7C2FA03F0AFFE05
:1047F0008849CAF82C005446898911B1226D821A61
:1048000074D408442065FEF7A0FC03F0A0FEE0622B
:10481000216B411AA18120630420FDF794FA30B383
:10482000734D3635B5F9043003F145008A281FD899
:104830006E484179E1B174490A8874490988511A6E
:1048400009B211F1B40F02DC01F5B47109B2B42957
:1048500002DBA1F5B47109B2407B40B16C48007A2B
:1048600010FB01F01E2190FBF1F0181AA88003E064
:1048700065480188654801800220FDF764FA38B375
:104880005A48807920B3624890F8631009B3584DB4
:10489000B4F91A203635B5F906108B1A002B00DC56
:1048A000531A90F86200834207DD554B91421E80F7
:1048B000677200DD4042084409E0607A20B14E484A
:1048C00001684E48016066724E4800881044E880D6
:1048D00038E0DFF81C81B4F91A2008F13608B8F97D
:1048E0000630991A002902DD0B4601E012E2D31AC4
:1048F00090F86200834219DDA08B084400B200F5F5
:10490000FA71A083B1F57A7F0CD94FF4FA7190FB5C
:10491000F1F53A4B01FB1500D3F800C0AC44C3F8E5
:1049200000C0A08336480680677206E0607A20B136
:10493000314801683148016066723248008810448D
:10494000A8F806001020FDF7FEF9E8B32748C17962
:1049500009B9017AC1B3007BB0B32B4CDFED2E8ACD
:10496000B4F9000000EE100AB8EEC00A20EE280AE2
:1049700007F062FBB4F90000B0EE408A00EE100AC6
:10498000B8EEC00A20EE280A07F0E4F9204D184FCF
:10499000F0EE408A95F89500B2EE049A1037E8B32D
:1049A0003C1DB7F90200B4F90210401AFDF713FAE2
:1049B000014695F895004042814214DBB7F90200A8
:1049C000B4F90210401A00E0A2E0FDF704FA014633
:1049D00095F89500814206DCB7F90200B4F902109F
:1049E000401AFDF7F8F96188084418E0480C0020E7
:1049F0007801002000100240D4000020D8000020E0
:104A00009C0000209A0000204A0200204C02002056
:104A1000A4080020A405002035FA8E3C4DE06080FB
:104A2000B7F90000B4F90010401AFDF7D4F995F871
:104A300095104942884212DBB7F90000B4F9001022
:104A4000401AFDF7C8F995F89510884207DCB7F9C8
:104A50000000B4F90010401AFDF7BDF901462088A6
:104A6000084400B22080B4F90230B04900EE103A98
:104A7000B8EEC00A60EE280A00EE100AB8EEC00ACE
:104A800040EE480A80EE890ABDEEC00A10EE102AF8
:104A900000EE103A0A80B8EEC00A60EE080A00EE96
:104AA000100AB8EEC00A40EE280A80EE890ABDEE70
:104AB000C00A10EE100A48802AE0B7F90230B7F9B0
:104AC000002000EE103A9948B8EEC00A60EE280ABD
:104AD00000EE102AB8EEC00A40EE480A80EE890ABD
:104AE000BDEEC00A10EE101A00EE103A0180B8EECA
:104AF000C00A60EE080A00EE102AB8EEC00A40EEC6
:104B0000280A80EE890ABDEEC00A10EE101A418014
:104B100086494631B1F90200002801DD024600E075
:104B2000424282494631B1F90010002901DD0B46AD
:104B300000E04B429A4203DD002806DC404204E0DC
:104B4000002901DD084600E0484279490FFA80FC5F
:104B500000200A79C97801B9F2B3022844D2734B14
:104B600033F91040463333F9103004EB4303714CF2
:104B7000A34202DB6442A34200DD23466E4C6F4D2C
:104B800034F810401B1B05EB4004248D23441FB256
:104B9000EB7913FB07F3642493FBF4F395F81B8084
:104BA0001BB2C8F1000404EB84049C4203DC08EB54
:104BB00088049C4200DA2346DFF87081019308F1F3
:104BC00010085F4C38F910303B44A34203DB6442C9
:104BD000A34200DC1C4600E00AE028F810406B7C91
:104BE00014FB03F31B13009311B10AB902284BD134
:104BF0004E4BDFF84881463333F910B018F80040C7
:104C00000BEB8B031B0193FBF4F34E4C34F9105068
:104C1000464C5B1B28341BB234F910703B444A4F9E
:104C2000BB4202DB7F42BB4200DD3B4605F52075FF
:104C300024F81030B5F5A06F01D924F8106034F9CC
:104C400010307D2493FBF4F308EB0004A47A634353
:104C50009B110FFA83F9B2B1022814D2019CCCF552
:104C6000FA735C431BFB0C454FF4FA7495FBF4F5A7
:104C70000FFA85FA009D6B4319FB0C3393FBF4F399
:104C80000FFA83FE07E021B1022802D2DDE900EA33
:104C900001E0DA46CE462B4B33F81040234B123B53
:104CA0001B5C14FB03F5502395FBF3F31F4DAAEB9C
:104CB00003082E3505F1060A35F8103025F81040A6
:104CC000E31A0AF106043AF8105034F8107024F888
:104CD00010502F441F442AF81030A4F149031B5CE4
:104CE00013FB07F308EB0E04A4EB63130AF10C04A7
:104CF00024F81030401CC0B20328FFF42CAFFEF79C
:104D0000DEFDFEF78EFD03B0BDEC048BBDE8F04F79
:104D1000FEF7B5BD03B0BDEC048BBDE8F08F0448D1
:104D20004178002901D000214170704768010020BE
:104D3000480C00200CFEFFFFB8000020A408002053
:104D4000F0D8FFFFE400002080C1FFFF70B54FF0F6
:104D5000000C012400E04C43B0FBF4F58D42FAD284
:104D60001BE000BFB0FBF4F504FB1500B4FBF1F44D
:104D7000BCF1000F03D1002D01DC002CF2D10A2D73
:104D800001DA302604E00AB1412600E061260A3E3D
:104D9000354403F8015B0CF1010C002CE2D100203A
:104DA000187070BD70B54FF0000C012400E04C434A
:104DB000B0FBF4F58D42FAD21BE000BFB0FBF4F576
:104DC00004FB1500B4FBF1F4BCF1000F03D1002D7E
:104DD00001DC002CF2D10A2D01DA302604E00AB100
:104DE000412600E061260A3E354403F8015B0CF1E0
:104DF000010C002CE2D10020187070BD2DE9F041AB
:104E00008046069D0E4614460BB1302700E0202751
:104E1000284600E0641E10F8011B29B1002CF9DCC3
:104E200002E039464046B047201EA4F10104F8DCF8
:104E300001E04046B04715F8011B0029F9D1BDE853
:104E4000F0812DE9FF5F83468A46144699462D2757
:104E500001AE83E025297FD14FF0000814F8011B33
:104E600042464546302903D114F8011B4FF0010892
:104E7000A1F13000092819D84FF00A0C002505E0EF
:104E8000604513DC05FB0C0514F8011BA1F1300093
:104E9000092809D93138052801D80A3004E0A1F1E0
:104EA0004100052802D80A300028E9DA6C2902D12D
:104EB00014F8011B012264291DD008DC002952D0FE
:104EC000252949D058292CD0632947D141E073299D
:104ED0004BD0752902D0782940D122E059F8040B33
:104EE00001AB92B91AE0434600962A46514658460D
:104EF000FFF784FF32E059F8040B01AB42B1002800
:104F000003DA40428DF804705B1C00220A2110E095
:104F1000002803DA40428DF804705B1C00220A214D
:104F200012E059F8040B52B1582906D0002201AB07
:104F30001021FFF70BFFD6E70EE00122F7E7582913
:104F400005D0002201AB1021FFF72CFFCBE7012297
:104F5000F8E759F8040BC1B25846D04714F8011BC2
:104F600000297FF477AFBDE8FF9F59F8040B0023B9
:104F70000090BAE7134AC2E9001070470FB4114815
:104F800010B5D0E9001003AB029AFFF75AFF00BF3B
:104F900003F0BAFC0028FBD010BC5DF814FB0FB482
:104FA000094910B504AB02A8039AFFF74AFF002194
:104FB00002A800F001F8EFE70268531C03601170CB
:104FC00070470000FC010020B94F00082DE9F843AC
:104FD000FE4DFF4905F1F1030024B5F8E4209846A1
:104FE000A1F1140002F0E4FB08B101240EE0B5F8D1
:104FF000E410F74802F033F940B9B5F8E410F4488A
:1050000002F0DEFA10B9032003F049FBF14E00274D
:1050100095F8E30030B1012804D0022814D0032809
:1050200029D120E08DF800704FF44870E849ADF8C0
:1050300002001439684601F035FC08B101203070D7
:1050400095F8E300012816D06CB1E149B5F8E420E9
:105050004346A1F1140002F0ABFB0220307095F83A
:10506000E300022812D0DA48143802F01AFA10B11C
:10507000032030700AE0307840B995F8E30010B1B1
:1050800085F8E370C4E70120FCF76AFED0481430CD
:1050900002F0A5FC10B90220FCF762FE0120FCF72B
:1050A00052FE18B1CA48143800688047C8480068E2
:1050B0008047C648E03001F0A3FC10B90420FCF79B
:1050C0004FFEC5486423B0F9262092FBF3F108B2E5
:1050D00000EE100A03FB1121F8EEC00A00EE101AD0
:1050E000B8EEC00A9FEDBD1ABD4840EE010AB2EE0F
:1050F000040A20EE800A80ED000ABDE8F88300EE85
:10510000100AB8EE400ADFEDB70A20EE200A9FED44
:10511000B61AAE48C0EE010A90F8FE0000EE100A82
:10512000B8EE400A20EE800ABCEEC00A10EE100A6B
:1051300080B2704770B500252C46002001F01BFBA3
:1051400005440A2003F02DFA641C202CF5D3C5F386
:105150004F10FFF7D4FF9D4A022192F8FF3000BFA5
:1051600003FB01F4844202D8491C0629F8D39F4866
:10517000017092F8000148439D49088070BD3CB51C
:105180000A88ADF800204A88ADF802208A888F4B43
:10519000ADF8042000EB4000002203446C46981850
:1051A00034F8125090F9DA00002802DD01EB4000DB
:1051B00002E06D42A1EB4000521C20F8025C032A81
:1051C000EDDB3CBD2DE9F05FDFF808A2894EDFF88A
:1051D0000892BAF802207D4C0025CAB38649002007
:1051E0004FF4C87CD046624501D141F8205051F8B7
:1051F000203036F910703B4441F8203026F810502A
:1052000004EB4003401CA3F8F2500328EBDB012A17
:1052100019D1086890FBFCF024F8F20F486890FB65
:10522000FCF060808868B8F8061090FBFCF0401A2B
:10523000A080A9F828501146A4F1F204A9F82A5038
:105240000846FCF7B4FBB8F80200401EA8F80200BC
:105250000420FCF78DFD00287DD0684FDFF87481B5
:1052600065493A8808F120080C31A8F1180C322A57
:1052700005D0EAB30020BB46322A15D016E034F838
:10528000F20FA8F800006088A8F80200A088A8F82B
:105290000400B9F82830ACF80030B9F82A00A4F1BD
:1052A000F204ACF80200E5E741F8205051F8203054
:1052B00036F910703B4441F8203026F8105004EBCA
:1052C0004003401CA3F8F2500328D5DB012A1DD16E
:1052D0004B484C4B0580012018804B4B0220187026
:1052E000B8F8000024F8F20FB8F80200608000E07F
:1052F00010E0B8F80400A080BCF80030A9F828300D
:10530000BCF80230A4F1F204A9F82A30A2F101029B
:10531000ABF800203D480288012A1CD105800A68AC
:10532000322092FBF0F224F8F22F4A6892FBF0F25E
:105330006280896891FBF0F1BAF80600081AA08033
:10534000A9F828504FF00101A4F1F204A9F82A505D
:105350000846FCF72CFB308834F8F21F401A3080E6
:1053600070886188401A7080B088A188401AB08027
:10537000BDE8F09F10B5164C1E48143C6168884784
:10538000124890F8DD0020B11A490120FFF7F7FE1E
:1053900002E0A16817488847BDE8104012E730B521
:1053A0000C4A0D4BD06893F82E300146401C8342C6
:1053B00000D10020164B1C680F4B183343F82140D6
:1053C000144953F820300D682C4425E0A405002032
:1053D000040E002004020020A40800208988883CD4
:1053E000B40000203333534000F07F45E701002034
:1053F00054010020FC000020D00C002042010020BD
:105400004801002044010020300100204601002016
:1054100010010020AC000020E31A0B60D06030BD0A
:1054200070B5EB48EB4C00682169411A01D50020AA
:1054300070BD2061E84D606978B12869804768686F
:10544000804728882169084420616A69E349E44863
:10545000904700206061022070BDA8688047E8681E
:105460008047FFF79CFF012060616888216908443C
:105470002061012070BD2DE9F05FD6482DED028B33
:10548000818800297DD000249FEDD68ADFF848B3BB
:105490008246ABF1640B25464FF47A79ABF10C06EA
:1054A000BAF804304B4506D104EB84020BEB8200C2
:1054B00046F824500561CC4F56F8240037F914C043
:1054C000604446F8240004EB84000BEB800000EEFF
:1054D00010CAD0F810C0B8EEC00A0CF1010CC0F828
:1054E00010C0BCF1010F28D0D0ED000A01EE10CAA7
:1054F000844670EE601AB8EEC12A81EE821A71EE0F
:10550000200AC0ED010AD0ED001A90ED021A70EEEB
:10551000611A30EE600A01EE801A80ED031AC0EDC8
:10552000000A80ED021A00BF27F81450AF4FD04692
:10553000012B27F8145008D03EE080ED010A80EDE1
:10554000000A844680ED028AEEE70169012909DD3F
:10555000491E00EE101ADCED030AB8EEC01A80EE08
:10556000810A01E0B0EE480A06F022FEA04890F859
:10557000F000B0B100EE900AF8EE600AF4EEC00A56
:1055800000E022E0F1EE10FA0BD29348A8F8049064
:105590006438CBF8105045628563B560756035603E
:1055A0000AE056F82410012291FBF9F027F81400C4
:1055B0000F210A20FEF7B4FB641C032CFFF670AF2A
:1055C000BAF80410491EAAF80410824D0020874E34
:1055D000854C263536F8102034F81010891A09B297
:1055E00024F8101035F91020A2F54873994201DA19
:1055F0001A4604E002F54872914200DC0A4624F89B
:10560000102025F81020401C0328E3DBBDEC028BA2
:10561000AEE610B5704C7448143C61688847744815
:1056200090F8DA0020B170490020FFF7A8FD02E0F1
:10563000A1686D488847BDE810401CE770B56D4C07
:10564000022525836348383001F022FA65836149D9
:105650000120487070BD2DE9F0475D485D4C006841
:10566000A169411A02D50020BDE8F08762490844CB
:10567000A061624801F0DDF96049DFF88481554B93
:10568000B1F90000002700EE100A52482C333830E0
:10569000B8EEC00AD0ED000A9E1D20EE200ABDEE35
:1056A000C00A10EE102A0FFA82FCA1F800C0B1F96E
:1056B0000220D0ED010A00EE102AB8EEC00A20EE5A
:1056C000200ABDEEC00A10EE102A0FFA82F9A1F8E6
:1056D0000290B1F90420D0ED020A00EE102A444AEB
:1056E000B8EEC00A20EE200ABDEEC00A10EE100A85
:1056F0000FFA80FAA1F804A098F80E0088B1A0690A
:10570000E061002002EB4005A5F8F87031F8105078
:1057100023F8105026F81050401C0328F2D388F8C4
:105720000E70607870B132F8F80FACEB00000880B2
:105730005088A9EB000048809088A2F1F802AAEBFB
:1057400000008880E06990B3A569281A2D4DA84211
:1057500018D22848426982F0010242615FF00000DD
:1057600031F9102033F91040A24201DA23F8102059
:1057700036F91040A24201DD26F81020401C032813
:10578000EED314E00020E76133F9101036F9104031
:10579000214401EBD17102EB40044910401CA4F8F4
:1057A000F8100328F0D301210846FCF700F9012086
:1057B0005AE710B5012001F0BAF80820FCF7CBFA3F
:1057C00011490020088010BD0F4801F0FBB800000F
:1057D0005C01002004020020180E0020A800002018
:1057E0001001002000000000F6000020140100203D
:1057F000A405002000100240A0860100080100203E
:10580000480C002080C3C9011A01002070B5F64D74
:105810000446C0B2E87003F096F8287AE978484068
:105820002872C4F30720E87003F08DF8287AE9782D
:1058300048402872C4F30740E87003F084F8287ADF
:10584000E97848402872200EE87003F07CF8287A46
:10585000E9784840287270BD70B5E34D0446C0B287
:10586000287103F070F8287A297948402872C4F327
:105870000720287103F067F8287A297948402872B0
:1058800070BD10B5044603F05EF8D748017A614058
:10589000017210BDD44AD548517A405C491C5172FE
:1058A000704700B5FFF7F6FF0346FFF7F3FF03EB82
:1058B000002080B200BD00B5FFF7F3FF8446FFF77C
:1058C000F0FF0CEB004000BD70B504460D462420EF
:1058D000FFF7D7FF4D20FFF7D4FF0CB1212000E0E8
:1058E0003E20FFF7CEFFC04C002020722846FFF775
:1058F000C8FFA07ABDE87040C3E701460020E3E797
:1059000001460120E0E7B848007ABAE710B504463E
:1059100003E000BFFFF7B5FF641C20780028F9D131
:1059200010BD2DE9F047C0B04FF48071684605F016
:105930000FFDDFF8B8A2AC4F0025DFF8AC92AAF15A
:10594000140A0C3705EB4506002407EB86080BE02C
:1059500017F826101AF80400814204D16846D8F8D6
:10596000041005F001FD641C99F800008442EFDB8F
:105970006D1C142DE6DB684605F02FFDC0B2FFF765
:10598000BCFF6C4603E000BFFFF77BFF641C207880
:105990000028F9D140B0BDE8F08770B502F0F4FE00
:1059A0009248FF221421143805F0CBFC8F4D0020C3
:1059B000143D012428702046FCF7C5F920B10120D0
:1059C00068700220A87003240220FCF7BCF950B1D3
:1059D00003202855641C4FF40050FCF7C9F910B19E
:1059E00004202855641C0420FCF7ADF940B10520C3
:1059F0002855641C06202855641C07202855641C63
:105A00002020FCF7B5F910B108202855641C4FF48C
:105A10008070FCF7ADF948B11020FCF794F928B17B
:105A20000A202855641C0B202855641C70484079B6
:105A3000082801D00E2802D10C202855641C0D2006
:105A40002855641C0420FCF793F910B11120285547
:105A5000641C6548047070BD2DE9F05F624D002440
:105A60002946A87ADFF884910978DFF888B1DFF851
:105A700080A1614E614FA046A9F11409772873D027
:105A80000FDCA0F16400132838D2DFE800F0D9FB66
:105A9000F9F8F7F6F5F4F3F2F1F0EFEEEDECEBEAEE
:105AA000E90056490124CF28497836D014DCCA28A9
:105AB0005BD008DCA02876D0A42875D0C82823D0D5
:105AC000C9281BD134E0CB285ED0CC286FD0CD289C
:105AD0006CD0CE2812D1DBE2EF2822D008DCD0280F
